{
	"goofy.sol": {
		"goof": {
			"abi": [
				{
					"inputs": [
						{
							"internalType": "string",
							"name": "_name",
							"type": "string"
						},
						{
							"internalType": "uint256",
							"name": "_favnum",
							"type": "uint256"
						}
					],
					"name": "addppl",
					"outputs": [],
					"stateMutability": "nonpayable",
					"type": "function"
				},
				{
					"inputs": [
						{
							"internalType": "uint256",
							"name": "",
							"type": "uint256"
						}
					],
					"name": "arr",
					"outputs": [
						{
							"internalType": "uint256",
							"name": "favnum",
							"type": "uint256"
						},
						{
							"internalType": "string",
							"name": "name",
							"type": "string"
						}
					],
					"stateMutability": "view",
					"type": "function"
				},
				{
					"inputs": [],
					"name": "favnum",
					"outputs": [
						{
							"internalType": "uint256",
							"name": "",
							"type": "uint256"
						}
					],
					"stateMutability": "view",
					"type": "function"
				},
				{
					"inputs": [
						{
							"internalType": "string",
							"name": "",
							"type": "string"
						}
					],
					"name": "nametofavnum",
					"outputs": [
						{
							"internalType": "uint256",
							"name": "",
							"type": "uint256"
						}
					],
					"stateMutability": "view",
					"type": "function"
				},
				{
					"inputs": [],
					"name": "person1",
					"outputs": [
						{
							"internalType": "uint256",
							"name": "favnum",
							"type": "uint256"
						},
						{
							"internalType": "string",
							"name": "name",
							"type": "string"
						}
					],
					"stateMutability": "view",
					"type": "function"
				},
				{
					"inputs": [],
					"name": "ret",
					"outputs": [
						{
							"internalType": "uint256",
							"name": "",
							"type": "uint256"
						},
						{
							"internalType": "uint256",
							"name": "",
							"type": "uint256"
						}
					],
					"stateMutability": "view",
					"type": "function"
				},
				{
					"inputs": [
						{
							"internalType": "uint256",
							"name": "_num",
							"type": "uint256"
						}
					],
					"name": "sore",
					"outputs": [],
					"stateMutability": "nonpayable",
					"type": "function"
				}
			],
			"devdoc": {
				"kind": "dev",
				"methods": {},
				"version": 1
			},
			"evm": {
				"assembly": "    /* \"goofy.sol\":182:2226  contract goof {... */\n  mstore(0x40, 0x80)\n    /* \"goofy.sol\":213:217  true */\n  0x01\n    /* \"goofy.sol\":203:217  bool num =true */\n  0x00\n  dup1\n  0x0100\n  exp\n  dup2\n  sload\n  dup2\n  0xff\n  mul\n  not\n  and\n  swap1\n  dup4\n  iszero\n  iszero\n  mul\n  or\n  swap1\n  sstore\n  pop\n    /* \"goofy.sol\":485:527  0x6880607d4890Dd9D1b9B90e66E2608D7de658EE0 */\n  0x6880607d4890dd9d1b9b90e66e2608d7de658ee0\n    /* \"goofy.sol\":469:527  address myadd = 0x6880607d4890Dd9D1b9B90e66E2608D7de658EE0 */\n  0x02\n  exp(0x0100, 0x00)\n  dup2\n  sload\n  dup2\n  0xffffffffffffffffffffffffffffffffffffffff\n  mul\n  not\n  and\n  swap1\n  dup4\n  0xffffffffffffffffffffffffffffffffffffffff\n  and\n  mul\n  or\n  swap1\n  sstore\n  pop\n    /* \"goofy.sol\":552:570  bytes32 t = \"text\" */\n  sstore(0x03, 0x7465787400000000000000000000000000000000000000000000000000000000)\n    /* \"goofy.sol\":820:855  ppl({favnum : 69 , name : \"Ghoul\"}) */\n  mload(0x40)\n  dup1\n  0x40\n  add\n  0x40\n  mstore\n  dup1\n    /* \"goofy.sol\":834:836  69 */\n  0x45\n    /* \"goofy.sol\":820:855  ppl({favnum : 69 , name : \"Ghoul\"}) */\n  dup2\n  mstore\n  0x20\n  add\n  mload(0x40)\n  dup1\n  0x40\n  add\n  0x40\n  mstore\n  dup1\n  0x05\n  dup2\n  mstore\n  0x20\n  add\n  0x47686f756c000000000000000000000000000000000000000000000000000000\n  dup2\n  mstore\n  pop\n  dup2\n  mstore\n  pop\n    /* \"goofy.sol\":800:855  ppl public person1= ppl({favnum : 69 , name : \"Ghoul\"}) */\n  0x04\n  0x00\n  dup3\n  add\n  mload\n  dup2\n  0x00\n  add\n  sstore\n  0x20\n  dup3\n  add\n  mload\n  dup2\n  0x01\n  add\n  swap1\n  dup2\n  tag_1\n  swap2\n  swap1\n  tag_2\n  jump\t// in\ntag_1:\n  pop\n  pop\n  pop\n    /* \"goofy.sol\":182:2226  contract goof {... */\n  callvalue\n  dup1\n  iszero\n  tag_3\n  jumpi\n  0x00\n  dup1\n  revert\ntag_3:\n  pop\n  jump(tag_4)\n    /* \"#utility.yul\":7:106   */\ntag_5:\n    /* \"#utility.yul\":59:65   */\n  0x00\n    /* \"#utility.yul\":93:98   */\n  dup2\n    /* \"#utility.yul\":87:99   */\n  mload\n    /* \"#utility.yul\":77:99   */\n  swap1\n  pop\n    /* \"#utility.yul\":7:106   */\n  swap2\n  swap1\n  pop\n  jump\t// out\n    /* \"#utility.yul\":112:292   */\ntag_6:\n    /* \"#utility.yul\":160:237   */\n  0x4e487b7100000000000000000000000000000000000000000000000000000000\n    /* \"#utility.yul\":157:158   */\n  0x00\n    /* \"#utility.yul\":150:238   */\n  mstore\n    /* \"#utility.yul\":257:261   */\n  0x41\n    /* \"#utility.yul\":254:255   */\n  0x04\n    /* \"#utility.yul\":247:262   */\n  mstore\n    /* \"#utility.yul\":281:285   */\n  0x24\n    /* \"#utility.yul\":278:279   */\n  0x00\n    /* \"#utility.yul\":271:286   */\n  revert\n    /* \"#utility.yul\":298:478   */\ntag_7:\n    /* \"#utility.yul\":346:423   */\n  0x4e487b7100000000000000000000000000000000000000000000000000000000\n    /* \"#utility.yul\":343:344   */\n  0x00\n    /* \"#utility.yul\":336:424   */\n  mstore\n    /* \"#utility.yul\":443:447   */\n  0x22\n    /* \"#utility.yul\":440:441   */\n  0x04\n    /* \"#utility.yul\":433:448   */\n  mstore\n    /* \"#utility.yul\":467:471   */\n  0x24\n    /* \"#utility.yul\":464:465   */\n  0x00\n    /* \"#utility.yul\":457:472   */\n  revert\n    /* \"#utility.yul\":484:804   */\ntag_8:\n    /* \"#utility.yul\":528:534   */\n  0x00\n    /* \"#utility.yul\":565:566   */\n  0x02\n    /* \"#utility.yul\":559:563   */\n  dup3\n    /* \"#utility.yul\":555:567   */\n  div\n    /* \"#utility.yul\":545:567   */\n  swap1\n  pop\n    /* \"#utility.yul\":612:613   */\n  0x01\n    /* \"#utility.yul\":606:610   */\n  dup3\n    /* \"#utility.yul\":602:614   */\n  and\n    /* \"#utility.yul\":633:651   */\n  dup1\n    /* \"#utility.yul\":623:704   */\n  tag_30\n  jumpi\n    /* \"#utility.yul\":689:693   */\n  0x7f\n    /* \"#utility.yul\":681:687   */\n  dup3\n    /* \"#utility.yul\":677:694   */\n  and\n    /* \"#utility.yul\":667:694   */\n  swap2\n  pop\n    /* \"#utility.yul\":623:704   */\ntag_30:\n    /* \"#utility.yul\":751:753   */\n  0x20\n    /* \"#utility.yul\":743:749   */\n  dup3\n    /* \"#utility.yul\":740:754   */\n  lt\n    /* \"#utility.yul\":720:738   */\n  dup2\n    /* \"#utility.yul\":717:755   */\n  sub\n    /* \"#utility.yul\":714:798   */\n  tag_31\n  jumpi\n    /* \"#utility.yul\":770:788   */\n  tag_32\n  tag_7\n  jump\t// in\ntag_32:\n    /* \"#utility.yul\":714:798   */\ntag_31:\n    /* \"#utility.yul\":535:804   */\n  pop\n    /* \"#utility.yul\":484:804   */\n  swap2\n  swap1\n  pop\n  jump\t// out\n    /* \"#utility.yul\":810:951   */\ntag_9:\n    /* \"#utility.yul\":859:863   */\n  0x00\n    /* \"#utility.yul\":882:885   */\n  dup2\n    /* \"#utility.yul\":874:885   */\n  swap1\n  pop\n    /* \"#utility.yul\":905:908   */\n  dup2\n    /* \"#utility.yul\":902:903   */\n  0x00\n    /* \"#utility.yul\":895:909   */\n  mstore\n    /* \"#utility.yul\":939:943   */\n  0x20\n    /* \"#utility.yul\":936:937   */\n  0x00\n    /* \"#utility.yul\":926:944   */\n  keccak256\n    /* \"#utility.yul\":918:944   */\n  swap1\n  pop\n    /* \"#utility.yul\":810:951   */\n  swap2\n  swap1\n  pop\n  jump\t// out\n    /* \"#utility.yul\":957:1050   */\ntag_10:\n    /* \"#utility.yul\":994:1000   */\n  0x00\n    /* \"#utility.yul\":1041:1043   */\n  0x20\n    /* \"#utility.yul\":1036:1038   */\n  0x1f\n    /* \"#utility.yul\":1029:1034   */\n  dup4\n    /* \"#utility.yul\":1025:1039   */\n  add\n    /* \"#utility.yul\":1021:1044   */\n  div\n    /* \"#utility.yul\":1011:1044   */\n  swap1\n  pop\n    /* \"#utility.yul\":957:1050   */\n  swap2\n  swap1\n  pop\n  jump\t// out\n    /* \"#utility.yul\":1056:1163   */\ntag_11:\n    /* \"#utility.yul\":1100:1108   */\n  0x00\n    /* \"#utility.yul\":1150:1155   */\n  dup3\n    /* \"#utility.yul\":1144:1148   */\n  dup3\n    /* \"#utility.yul\":1140:1156   */\n  shl\n    /* \"#utility.yul\":1119:1156   */\n  swap1\n  pop\n    /* \"#utility.yul\":1056:1163   */\n  swap3\n  swap2\n  pop\n  pop\n  jump\t// out\n    /* \"#utility.yul\":1169:1562   */\ntag_12:\n    /* \"#utility.yul\":1238:1244   */\n  0x00\n    /* \"#utility.yul\":1288:1289   */\n  0x08\n    /* \"#utility.yul\":1276:1286   */\n  dup4\n    /* \"#utility.yul\":1272:1290   */\n  mul\n    /* \"#utility.yul\":1311:1408   */\n  tag_37\n    /* \"#utility.yul\":1341:1407   */\n  0xffffffffffffffffffffffffffffffffffffffffffffffffffffffffffffffff\n    /* \"#utility.yul\":1330:1339   */\n  dup3\n    /* \"#utility.yul\":1311:1408   */\n  tag_11\n  jump\t// in\ntag_37:\n    /* \"#utility.yul\":1429:1468   */\n  tag_38\n    /* \"#utility.yul\":1459:1467   */\n  dup7\n    /* \"#utility.yul\":1448:1457   */\n  dup4\n    /* \"#utility.yul\":1429:1468   */\n  tag_11\n  jump\t// in\ntag_38:\n    /* \"#utility.yul\":1417:1468   */\n  swap6\n  pop\n    /* \"#utility.yul\":1501:1505   */\n  dup1\n    /* \"#utility.yul\":1497:1506   */\n  not\n    /* \"#utility.yul\":1490:1495   */\n  dup5\n    /* \"#utility.yul\":1486:1507   */\n  and\n    /* \"#utility.yul\":1477:1507   */\n  swap4\n  pop\n    /* \"#utility.yul\":1550:1554   */\n  dup1\n    /* \"#utility.yul\":1540:1548   */\n  dup7\n    /* \"#utility.yul\":1536:1555   */\n  and\n    /* \"#utility.yul\":1529:1534   */\n  dup5\n    /* \"#utility.yul\":1526:1556   */\n  or\n    /* \"#utility.yul\":1516:1556   */\n  swap3\n  pop\n    /* \"#utility.yul\":1245:1562   */\n  pop\n  pop\n    /* \"#utility.yul\":1169:1562   */\n  swap4\n  swap3\n  pop\n  pop\n  pop\n  jump\t// out\n    /* \"#utility.yul\":1568:1645   */\ntag_13:\n    /* \"#utility.yul\":1605:1612   */\n  0x00\n    /* \"#utility.yul\":1634:1639   */\n  dup2\n    /* \"#utility.yul\":1623:1639   */\n  swap1\n  pop\n    /* \"#utility.yul\":1568:1645   */\n  swap2\n  swap1\n  pop\n  jump\t// out\n    /* \"#utility.yul\":1651:1711   */\ntag_14:\n    /* \"#utility.yul\":1679:1682   */\n  0x00\n    /* \"#utility.yul\":1700:1705   */\n  dup2\n    /* \"#utility.yul\":1693:1705   */\n  swap1\n  pop\n    /* \"#utility.yul\":1651:1711   */\n  swap2\n  swap1\n  pop\n  jump\t// out\n    /* \"#utility.yul\":1717:1859   */\ntag_15:\n    /* \"#utility.yul\":1767:1776   */\n  0x00\n    /* \"#utility.yul\":1800:1853   */\n  tag_42\n    /* \"#utility.yul\":1818:1852   */\n  tag_43\n    /* \"#utility.yul\":1827:1851   */\n  tag_44\n    /* \"#utility.yul\":1845:1850   */\n  dup5\n    /* \"#utility.yul\":1827:1851   */\n  tag_13\n  jump\t// in\ntag_44:\n    /* \"#utility.yul\":1818:1852   */\n  tag_14\n  jump\t// in\ntag_43:\n    /* \"#utility.yul\":1800:1853   */\n  tag_13\n  jump\t// in\ntag_42:\n    /* \"#utility.yul\":1787:1853   */\n  swap1\n  pop\n    /* \"#utility.yul\":1717:1859   */\n  swap2\n  swap1\n  pop\n  jump\t// out\n    /* \"#utility.yul\":1865:1940   */\ntag_16:\n    /* \"#utility.yul\":1908:1911   */\n  0x00\n    /* \"#utility.yul\":1929:1934   */\n  dup2\n    /* \"#utility.yul\":1922:1934   */\n  swap1\n  pop\n    /* \"#utility.yul\":1865:1940   */\n  swap2\n  swap1\n  pop\n  jump\t// out\n    /* \"#utility.yul\":1946:2215   */\ntag_17:\n    /* \"#utility.yul\":2056:2095   */\n  tag_47\n    /* \"#utility.yul\":2087:2094   */\n  dup4\n    /* \"#utility.yul\":2056:2095   */\n  tag_15\n  jump\t// in\ntag_47:\n    /* \"#utility.yul\":2117:2208   */\n  tag_48\n    /* \"#utility.yul\":2166:2207   */\n  tag_49\n    /* \"#utility.yul\":2190:2206   */\n  dup3\n    /* \"#utility.yul\":2166:2207   */\n  tag_16\n  jump\t// in\ntag_49:\n    /* \"#utility.yul\":2158:2164   */\n  dup5\n    /* \"#utility.yul\":2151:2155   */\n  dup5\n    /* \"#utility.yul\":2145:2156   */\n  sload\n    /* \"#utility.yul\":2117:2208   */\n  tag_12\n  jump\t// in\ntag_48:\n    /* \"#utility.yul\":2111:2115   */\n  dup3\n    /* \"#utility.yul\":2104:2209   */\n  sstore\n    /* \"#utility.yul\":2022:2215   */\n  pop\n    /* \"#utility.yul\":1946:2215   */\n  pop\n  pop\n  pop\n  jump\t// out\n    /* \"#utility.yul\":2221:2294   */\ntag_18:\n    /* \"#utility.yul\":2266:2269   */\n  0x00\n    /* \"#utility.yul\":2221:2294   */\n  swap1\n  jump\t// out\n    /* \"#utility.yul\":2300:2489   */\ntag_19:\n    /* \"#utility.yul\":2377:2409   */\n  tag_52\n  tag_18\n  jump\t// in\ntag_52:\n    /* \"#utility.yul\":2418:2483   */\n  tag_53\n    /* \"#utility.yul\":2476:2482   */\n  dup2\n    /* \"#utility.yul\":2468:2474   */\n  dup5\n    /* \"#utility.yul\":2462:2466   */\n  dup5\n    /* \"#utility.yul\":2418:2483   */\n  tag_17\n  jump\t// in\ntag_53:\n    /* \"#utility.yul\":2353:2489   */\n  pop\n    /* \"#utility.yul\":2300:2489   */\n  pop\n  pop\n  jump\t// out\n    /* \"#utility.yul\":2495:2681   */\ntag_20:\n    /* \"#utility.yul\":2555:2675   */\ntag_55:\n    /* \"#utility.yul\":2572:2575   */\n  dup2\n    /* \"#utility.yul\":2565:2570   */\n  dup2\n    /* \"#utility.yul\":2562:2576   */\n  lt\n    /* \"#utility.yul\":2555:2675   */\n  iszero\n  tag_57\n  jumpi\n    /* \"#utility.yul\":2626:2665   */\n  tag_58\n    /* \"#utility.yul\":2663:2664   */\n  0x00\n    /* \"#utility.yul\":2656:2661   */\n  dup3\n    /* \"#utility.yul\":2626:2665   */\n  tag_19\n  jump\t// in\ntag_58:\n    /* \"#utility.yul\":2599:2600   */\n  0x01\n    /* \"#utility.yul\":2592:2597   */\n  dup2\n    /* \"#utility.yul\":2588:2601   */\n  add\n    /* \"#utility.yul\":2579:2601   */\n  swap1\n  pop\n    /* \"#utility.yul\":2555:2675   */\n  jump(tag_55)\ntag_57:\n    /* \"#utility.yul\":2495:2681   */\n  pop\n  pop\n  jump\t// out\n    /* \"#utility.yul\":2687:3230   */\ntag_21:\n    /* \"#utility.yul\":2788:2790   */\n  0x1f\n    /* \"#utility.yul\":2783:2786   */\n  dup3\n    /* \"#utility.yul\":2780:2791   */\n  gt\n    /* \"#utility.yul\":2777:3223   */\n  iszero\n  tag_60\n  jumpi\n    /* \"#utility.yul\":2822:2860   */\n  tag_61\n    /* \"#utility.yul\":2854:2859   */\n  dup2\n    /* \"#utility.yul\":2822:2860   */\n  tag_9\n  jump\t// in\ntag_61:\n    /* \"#utility.yul\":2906:2935   */\n  tag_62\n    /* \"#utility.yul\":2924:2934   */\n  dup5\n    /* \"#utility.yul\":2906:2935   */\n  tag_10\n  jump\t// in\ntag_62:\n    /* \"#utility.yul\":2896:2904   */\n  dup2\n    /* \"#utility.yul\":2892:2936   */\n  add\n    /* \"#utility.yul\":3089:3091   */\n  0x20\n    /* \"#utility.yul\":3077:3087   */\n  dup6\n    /* \"#utility.yul\":3074:3092   */\n  lt\n    /* \"#utility.yul\":3071:3120   */\n  iszero\n  tag_63\n  jumpi\n    /* \"#utility.yul\":3110:3118   */\n  dup2\n    /* \"#utility.yul\":3095:3118   */\n  swap1\n  pop\n    /* \"#utility.yul\":3071:3120   */\ntag_63:\n    /* \"#utility.yul\":3133:3213   */\n  tag_64\n    /* \"#utility.yul\":3189:3211   */\n  tag_65\n    /* \"#utility.yul\":3207:3210   */\n  dup6\n    /* \"#utility.yul\":3189:3211   */\n  tag_10\n  jump\t// in\ntag_65:\n    /* \"#utility.yul\":3179:3187   */\n  dup4\n    /* \"#utility.yul\":3175:3212   */\n  add\n    /* \"#utility.yul\":3162:3173   */\n  dup3\n    /* \"#utility.yul\":3133:3213   */\n  tag_20\n  jump\t// in\ntag_64:\n    /* \"#utility.yul\":2792:3223   */\n  pop\n  pop\n    /* \"#utility.yul\":2777:3223   */\ntag_60:\n    /* \"#utility.yul\":2687:3230   */\n  pop\n  pop\n  pop\n  jump\t// out\n    /* \"#utility.yul\":3236:3353   */\ntag_22:\n    /* \"#utility.yul\":3290:3298   */\n  0x00\n    /* \"#utility.yul\":3340:3345   */\n  dup3\n    /* \"#utility.yul\":3334:3338   */\n  dup3\n    /* \"#utility.yul\":3330:3346   */\n  shr\n    /* \"#utility.yul\":3309:3346   */\n  swap1\n  pop\n    /* \"#utility.yul\":3236:3353   */\n  swap3\n  swap2\n  pop\n  pop\n  jump\t// out\n    /* \"#utility.yul\":3359:3528   */\ntag_23:\n    /* \"#utility.yul\":3403:3409   */\n  0x00\n    /* \"#utility.yul\":3436:3487   */\n  tag_68\n    /* \"#utility.yul\":3484:3485   */\n  0x00\n    /* \"#utility.yul\":3480:3486   */\n  not\n    /* \"#utility.yul\":3472:3477   */\n  dup5\n    /* \"#utility.yul\":3469:3470   */\n  0x08\n    /* \"#utility.yul\":3465:3478   */\n  mul\n    /* \"#utility.yul\":3436:3487   */\n  tag_22\n  jump\t// in\ntag_68:\n    /* \"#utility.yul\":3432:3488   */\n  not\n    /* \"#utility.yul\":3517:3521   */\n  dup1\n    /* \"#utility.yul\":3511:3515   */\n  dup4\n    /* \"#utility.yul\":3507:3522   */\n  and\n    /* \"#utility.yul\":3497:3522   */\n  swap2\n  pop\n    /* \"#utility.yul\":3410:3528   */\n  pop\n    /* \"#utility.yul\":3359:3528   */\n  swap3\n  swap2\n  pop\n  pop\n  jump\t// out\n    /* \"#utility.yul\":3533:3828   */\ntag_24:\n    /* \"#utility.yul\":3609:3613   */\n  0x00\n    /* \"#utility.yul\":3755:3784   */\n  tag_70\n    /* \"#utility.yul\":3780:3783   */\n  dup4\n    /* \"#utility.yul\":3774:3778   */\n  dup4\n    /* \"#utility.yul\":3755:3784   */\n  tag_23\n  jump\t// in\ntag_70:\n    /* \"#utility.yul\":3747:3784   */\n  swap2\n  pop\n    /* \"#utility.yul\":3817:3820   */\n  dup3\n    /* \"#utility.yul\":3814:3815   */\n  0x02\n    /* \"#utility.yul\":3810:3821   */\n  mul\n    /* \"#utility.yul\":3804:3808   */\n  dup3\n    /* \"#utility.yul\":3801:3822   */\n  or\n    /* \"#utility.yul\":3793:3822   */\n  swap1\n  pop\n    /* \"#utility.yul\":3533:3828   */\n  swap3\n  swap2\n  pop\n  pop\n  jump\t// out\n    /* \"#utility.yul\":3833:5228   */\ntag_2:\n    /* \"#utility.yul\":3950:3987   */\n  tag_72\n    /* \"#utility.yul\":3983:3986   */\n  dup3\n    /* \"#utility.yul\":3950:3987   */\n  tag_5\n  jump\t// in\ntag_72:\n    /* \"#utility.yul\":4052:4070   */\n  0xffffffffffffffff\n    /* \"#utility.yul\":4044:4050   */\n  dup2\n    /* \"#utility.yul\":4041:4071   */\n  gt\n    /* \"#utility.yul\":4038:4094   */\n  iszero\n  tag_73\n  jumpi\n    /* \"#utility.yul\":4074:4092   */\n  tag_74\n  tag_6\n  jump\t// in\ntag_74:\n    /* \"#utility.yul\":4038:4094   */\ntag_73:\n    /* \"#utility.yul\":4118:4156   */\n  tag_75\n    /* \"#utility.yul\":4150:4154   */\n  dup3\n    /* \"#utility.yul\":4144:4155   */\n  sload\n    /* \"#utility.yul\":4118:4156   */\n  tag_8\n  jump\t// in\ntag_75:\n    /* \"#utility.yul\":4203:4270   */\n  tag_76\n    /* \"#utility.yul\":4263:4269   */\n  dup3\n    /* \"#utility.yul\":4255:4261   */\n  dup3\n    /* \"#utility.yul\":4249:4253   */\n  dup6\n    /* \"#utility.yul\":4203:4270   */\n  tag_21\n  jump\t// in\ntag_76:\n    /* \"#utility.yul\":4297:4298   */\n  0x00\n    /* \"#utility.yul\":4321:4325   */\n  0x20\n    /* \"#utility.yul\":4308:4325   */\n  swap1\n  pop\n    /* \"#utility.yul\":4353:4355   */\n  0x1f\n    /* \"#utility.yul\":4345:4351   */\n  dup4\n    /* \"#utility.yul\":4342:4356   */\n  gt\n    /* \"#utility.yul\":4370:4371   */\n  0x01\n    /* \"#utility.yul\":4365:4983   */\n  dup2\n  eq\n  tag_78\n  jumpi\n    /* \"#utility.yul\":5027:5028   */\n  0x00\n    /* \"#utility.yul\":5044:5050   */\n  dup5\n    /* \"#utility.yul\":5041:5118   */\n  iszero\n  tag_79\n  jumpi\n    /* \"#utility.yul\":5093:5102   */\n  dup3\n    /* \"#utility.yul\":5088:5091   */\n  dup8\n    /* \"#utility.yul\":5084:5103   */\n  add\n    /* \"#utility.yul\":5078:5104   */\n  mload\n    /* \"#utility.yul\":5069:5104   */\n  swap1\n  pop\n    /* \"#utility.yul\":5041:5118   */\ntag_79:\n    /* \"#utility.yul\":5144:5211   */\n  tag_80\n    /* \"#utility.yul\":5204:5210   */\n  dup6\n    /* \"#utility.yul\":5197:5202   */\n  dup3\n    /* \"#utility.yul\":5144:5211   */\n  tag_24\n  jump\t// in\ntag_80:\n    /* \"#utility.yul\":5138:5142   */\n  dup7\n    /* \"#utility.yul\":5131:5212   */\n  sstore\n    /* \"#utility.yul\":5000:5222   */\n  pop\n    /* \"#utility.yul\":4335:5222   */\n  jump(tag_77)\n    /* \"#utility.yul\":4365:4983   */\ntag_78:\n    /* \"#utility.yul\":4417:4421   */\n  0x1f\n    /* \"#utility.yul\":4413:4422   */\n  not\n    /* \"#utility.yul\":4405:4411   */\n  dup5\n    /* \"#utility.yul\":4401:4423   */\n  and\n    /* \"#utility.yul\":4451:4488   */\n  tag_81\n    /* \"#utility.yul\":4483:4487   */\n  dup7\n    /* \"#utility.yul\":4451:4488   */\n  tag_9\n  jump\t// in\ntag_81:\n    /* \"#utility.yul\":4510:4511   */\n  0x00\n    /* \"#utility.yul\":4524:4732   */\ntag_82:\n    /* \"#utility.yul\":4538:4545   */\n  dup3\n    /* \"#utility.yul\":4535:4536   */\n  dup2\n    /* \"#utility.yul\":4532:4546   */\n  lt\n    /* \"#utility.yul\":4524:4732   */\n  iszero\n  tag_84\n  jumpi\n    /* \"#utility.yul\":4617:4626   */\n  dup5\n    /* \"#utility.yul\":4612:4615   */\n  dup10\n    /* \"#utility.yul\":4608:4627   */\n  add\n    /* \"#utility.yul\":4602:4628   */\n  mload\n    /* \"#utility.yul\":4594:4600   */\n  dup3\n    /* \"#utility.yul\":4587:4629   */\n  sstore\n    /* \"#utility.yul\":4668:4669   */\n  0x01\n    /* \"#utility.yul\":4660:4666   */\n  dup3\n    /* \"#utility.yul\":4656:4670   */\n  add\n    /* \"#utility.yul\":4646:4670   */\n  swap2\n  pop\n    /* \"#utility.yul\":4715:4717   */\n  0x20\n    /* \"#utility.yul\":4704:4713   */\n  dup6\n    /* \"#utility.yul\":4700:4718   */\n  add\n    /* \"#utility.yul\":4687:4718   */\n  swap5\n  pop\n    /* \"#utility.yul\":4561:4565   */\n  0x20\n    /* \"#utility.yul\":4558:4559   */\n  dup2\n    /* \"#utility.yul\":4554:4566   */\n  add\n    /* \"#utility.yul\":4549:4566   */\n  swap1\n  pop\n    /* \"#utility.yul\":4524:4732   */\n  jump(tag_82)\ntag_84:\n    /* \"#utility.yul\":4760:4766   */\n  dup7\n    /* \"#utility.yul\":4751:4758   */\n  dup4\n    /* \"#utility.yul\":4748:4767   */\n  lt\n    /* \"#utility.yul\":4745:4924   */\n  iszero\n  tag_85\n  jumpi\n    /* \"#utility.yul\":4818:4827   */\n  dup5\n    /* \"#utility.yul\":4813:4816   */\n  dup10\n    /* \"#utility.yul\":4809:4828   */\n  add\n    /* \"#utility.yul\":4803:4829   */\n  mload\n    /* \"#utility.yul\":4861:4909   */\n  tag_86\n    /* \"#utility.yul\":4903:4907   */\n  0x1f\n    /* \"#utility.yul\":4895:4901   */\n  dup10\n    /* \"#utility.yul\":4891:4908   */\n  and\n    /* \"#utility.yul\":4880:4889   */\n  dup3\n    /* \"#utility.yul\":4861:4909   */\n  tag_23\n  jump\t// in\ntag_86:\n    /* \"#utility.yul\":4853:4859   */\n  dup4\n    /* \"#utility.yul\":4846:4910   */\n  sstore\n    /* \"#utility.yul\":4768:4924   */\n  pop\n    /* \"#utility.yul\":4745:4924   */\ntag_85:\n    /* \"#utility.yul\":4970:4971   */\n  0x01\n    /* \"#utility.yul\":4966:4967   */\n  0x02\n    /* \"#utility.yul\":4958:4964   */\n  dup9\n    /* \"#utility.yul\":4954:4968   */\n  mul\n    /* \"#utility.yul\":4950:4972   */\n  add\n    /* \"#utility.yul\":4944:4948   */\n  dup9\n    /* \"#utility.yul\":4937:4973   */\n  sstore\n    /* \"#utility.yul\":4372:4983   */\n  pop\n  pop\n  pop\n    /* \"#utility.yul\":4335:5222   */\ntag_77:\n  pop\n    /* \"#utility.yul\":3925:5228   */\n  pop\n  pop\n  pop\n    /* \"#utility.yul\":3833:5228   */\n  pop\n  pop\n  jump\t// out\n    /* \"goofy.sol\":182:2226  contract goof {... */\ntag_4:\n  dataSize(sub_0)\n  dup1\n  dataOffset(sub_0)\n  0x00\n  codecopy\n  0x00\n  return\nstop\n\nsub_0: assembly {\n        /* \"goofy.sol\":182:2226  contract goof {... */\n      mstore(0x40, 0x80)\n      callvalue\n      dup1\n      iszero\n      tag_1\n      jumpi\n      0x00\n      dup1\n      revert\n    tag_1:\n      pop\n      jumpi(tag_2, lt(calldatasize, 0x04))\n      shr(0xe0, calldataload(0x00))\n      dup1\n      0x71e5ee5f\n      gt\n      tag_10\n      jumpi\n      dup1\n      0x71e5ee5f\n      eq\n      tag_6\n      jumpi\n      dup1\n      0x7bd5989e\n      eq\n      tag_7\n      jumpi\n      dup1\n      0xbd821e5b\n      eq\n      tag_8\n      jumpi\n      dup1\n      0xc9de10ff\n      eq\n      tag_9\n      jumpi\n      jump(tag_2)\n    tag_10:\n      dup1\n      0x19908de0\n      eq\n      tag_3\n      jumpi\n      dup1\n      0x1b08d96f\n      eq\n      tag_4\n      jumpi\n      dup1\n      0x46cb59c2\n      eq\n      tag_5\n      jumpi\n    tag_2:\n      0x00\n      dup1\n      revert\n        /* \"goofy.sol\":307:328  uint256 public favnum */\n    tag_3:\n      tag_11\n      tag_12\n      jump\t// in\n    tag_11:\n      mload(0x40)\n      tag_13\n      swap2\n      swap1\n      tag_14\n      jump\t// in\n    tag_13:\n      mload(0x40)\n      dup1\n      swap2\n      sub\n      swap1\n      return\n        /* \"goofy.sol\":1192:1469  function ret () public view returns (uint256 , uint256) { //view and pure fucntions are read only ... */\n    tag_4:\n      tag_15\n      tag_16\n      jump\t// in\n    tag_15:\n      mload(0x40)\n      tag_17\n      swap3\n      swap2\n      swap1\n      tag_18\n      jump\t// in\n    tag_17:\n      mload(0x40)\n      dup1\n      swap2\n      sub\n      swap1\n      return\n        /* \"goofy.sol\":800:855  ppl public person1= ppl({favnum : 69 , name : \"Ghoul\"}) */\n    tag_5:\n      tag_19\n      tag_20\n      jump\t// in\n    tag_19:\n      mload(0x40)\n      tag_21\n      swap3\n      swap2\n      swap1\n      tag_22\n      jump\t// in\n    tag_21:\n      mload(0x40)\n      dup1\n      swap2\n      sub\n      swap1\n      return\n        /* \"goofy.sol\":1065:1081  ppl[] public arr */\n    tag_6:\n      tag_23\n      0x04\n      dup1\n      calldatasize\n      sub\n      dup2\n      add\n      swap1\n      tag_24\n      swap2\n      swap1\n      tag_25\n      jump\t// in\n    tag_24:\n      tag_26\n      jump\t// in\n    tag_23:\n      mload(0x40)\n      tag_27\n      swap3\n      swap2\n      swap1\n      tag_22\n      jump\t// in\n    tag_27:\n      mload(0x40)\n      dup1\n      swap2\n      sub\n      swap1\n      return\n        /* \"goofy.sol\":1477:2223  function addppl (string memory _name , uint256 _favnum) public { // need to use memroy for string cause it is an array ... */\n    tag_7:\n      tag_28\n      0x04\n      dup1\n      calldatasize\n      sub\n      dup2\n      add\n      swap1\n      tag_29\n      swap2\n      swap1\n      tag_30\n      jump\t// in\n    tag_29:\n      tag_31\n      jump\t// in\n    tag_28:\n      stop\n        /* \"goofy.sol\":1089:1184  function sore(uint256 _num) public virtual {... */\n    tag_8:\n      tag_32\n      0x04\n      dup1\n      calldatasize\n      sub\n      dup2\n      add\n      swap1\n      tag_33\n      swap2\n      swap1\n      tag_25\n      jump\t// in\n    tag_33:\n      tag_34\n      jump\t// in\n    tag_32:\n      stop\n        /* \"goofy.sol\":864:912  mapping (string => uint256 ) public nametofavnum */\n    tag_9:\n      tag_35\n      0x04\n      dup1\n      calldatasize\n      sub\n      dup2\n      add\n      swap1\n      tag_36\n      swap2\n      swap1\n      tag_37\n      jump\t// in\n    tag_36:\n      tag_38\n      jump\t// in\n    tag_35:\n      mload(0x40)\n      tag_39\n      swap2\n      swap1\n      tag_14\n      jump\t// in\n    tag_39:\n      mload(0x40)\n      dup1\n      swap2\n      sub\n      swap1\n      return\n        /* \"goofy.sol\":307:328  uint256 public favnum */\n    tag_12:\n      sload(0x01)\n      dup2\n      jump\t// out\n        /* \"goofy.sol\":1192:1469  function ret () public view returns (uint256 , uint256) { //view and pure fucntions are read only ... */\n    tag_16:\n        /* \"goofy.sol\":1229:1236  uint256 */\n      0x00\n        /* \"goofy.sol\":1239:1246  uint256 */\n      dup1\n        /* \"goofy.sol\":1300:1312  uint256 numm */\n      0x00\n        /* \"goofy.sol\":1315:1317  69 */\n      0x45\n        /* \"goofy.sol\":1300:1317  uint256 numm = 69 */\n      swap1\n      pop\n        /* \"goofy.sol\":1449:1455  favnum */\n      sload(0x01)\n        /* \"goofy.sol\":1456:1460  numm */\n      dup2\n        /* \"goofy.sol\":1441:1461  return (favnum,numm) */\n      swap3\n      pop\n      swap3\n      pop\n      pop\n        /* \"goofy.sol\":1192:1469  function ret () public view returns (uint256 , uint256) { //view and pure fucntions are read only ... */\n      swap1\n      swap2\n      jump\t// out\n        /* \"goofy.sol\":800:855  ppl public person1= ppl({favnum : 69 , name : \"Ghoul\"}) */\n    tag_20:\n      0x04\n      dup1\n      0x00\n      add\n      sload\n      swap1\n      dup1\n      0x01\n      add\n      dup1\n      sload\n      tag_41\n      swap1\n      tag_42\n      jump\t// in\n    tag_41:\n      dup1\n      0x1f\n      add\n      0x20\n      dup1\n      swap2\n      div\n      mul\n      0x20\n      add\n      mload(0x40)\n      swap1\n      dup2\n      add\n      0x40\n      mstore\n      dup1\n      swap3\n      swap2\n      swap1\n      dup2\n      dup2\n      mstore\n      0x20\n      add\n      dup3\n      dup1\n      sload\n      tag_43\n      swap1\n      tag_42\n      jump\t// in\n    tag_43:\n      dup1\n      iszero\n      tag_44\n      jumpi\n      dup1\n      0x1f\n      lt\n      tag_45\n      jumpi\n      0x0100\n      dup1\n      dup4\n      sload\n      div\n      mul\n      dup4\n      mstore\n      swap2\n      0x20\n      add\n      swap2\n      jump(tag_44)\n    tag_45:\n      dup3\n      add\n      swap2\n      swap1\n      0x00\n      mstore\n      keccak256(0x00, 0x20)\n      swap1\n    tag_46:\n      dup2\n      sload\n      dup2\n      mstore\n      swap1\n      0x01\n      add\n      swap1\n      0x20\n      add\n      dup1\n      dup4\n      gt\n      tag_46\n      jumpi\n      dup3\n      swap1\n      sub\n      0x1f\n      and\n      dup3\n      add\n      swap2\n    tag_44:\n      pop\n      pop\n      pop\n      pop\n      pop\n      swap1\n      pop\n      dup3\n      jump\t// out\n        /* \"goofy.sol\":1065:1081  ppl[] public arr */\n    tag_26:\n      0x07\n      dup2\n      dup2\n      sload\n      dup2\n      lt\n      tag_47\n      jumpi\n      0x00\n      dup1\n      revert\n    tag_47:\n      swap1\n      0x00\n      mstore\n      keccak256(0x00, 0x20)\n      swap1\n      0x02\n      mul\n      add\n      0x00\n      swap2\n      pop\n      swap1\n      pop\n      dup1\n      0x00\n      add\n      sload\n      swap1\n      dup1\n      0x01\n      add\n      dup1\n      sload\n      tag_49\n      swap1\n      tag_42\n      jump\t// in\n    tag_49:\n      dup1\n      0x1f\n      add\n      0x20\n      dup1\n      swap2\n      div\n      mul\n      0x20\n      add\n      mload(0x40)\n      swap1\n      dup2\n      add\n      0x40\n      mstore\n      dup1\n      swap3\n      swap2\n      swap1\n      dup2\n      dup2\n      mstore\n      0x20\n      add\n      dup3\n      dup1\n      sload\n      tag_50\n      swap1\n      tag_42\n      jump\t// in\n    tag_50:\n      dup1\n      iszero\n      tag_51\n      jumpi\n      dup1\n      0x1f\n      lt\n      tag_52\n      jumpi\n      0x0100\n      dup1\n      dup4\n      sload\n      div\n      mul\n      dup4\n      mstore\n      swap2\n      0x20\n      add\n      swap2\n      jump(tag_51)\n    tag_52:\n      dup3\n      add\n      swap2\n      swap1\n      0x00\n      mstore\n      keccak256(0x00, 0x20)\n      swap1\n    tag_53:\n      dup2\n      sload\n      dup2\n      mstore\n      swap1\n      0x01\n      add\n      swap1\n      0x20\n      add\n      dup1\n      dup4\n      gt\n      tag_53\n      jumpi\n      dup3\n      swap1\n      sub\n      0x1f\n      and\n      dup3\n      add\n      swap2\n    tag_51:\n      pop\n      pop\n      pop\n      pop\n      pop\n      swap1\n      pop\n      dup3\n      jump\t// out\n        /* \"goofy.sol\":1477:2223  function addppl (string memory _name , uint256 _favnum) public { // need to use memroy for string cause it is an array ... */\n    tag_31:\n        /* \"goofy.sol\":1606:1623  ppl memory person */\n      0x00\n        /* \"goofy.sol\":1626:1665  ppl({ favnum : _favnum , name : _name}) */\n      mload(0x40)\n      dup1\n      0x40\n      add\n      0x40\n      mstore\n      dup1\n        /* \"goofy.sol\":1641:1648  _favnum */\n      dup4\n        /* \"goofy.sol\":1626:1665  ppl({ favnum : _favnum , name : _name}) */\n      dup2\n      mstore\n      0x20\n      add\n        /* \"goofy.sol\":1658:1663  _name */\n      dup5\n        /* \"goofy.sol\":1626:1665  ppl({ favnum : _favnum , name : _name}) */\n      dup2\n      mstore\n      pop\n        /* \"goofy.sol\":1606:1665  ppl memory person = ppl({ favnum : _favnum , name : _name}) */\n      swap1\n      pop\n        /* \"goofy.sol\":2091:2098  _favnum */\n      dup2\n        /* \"goofy.sol\":2068:2080  nametofavnum */\n      0x06\n        /* \"goofy.sol\":2082:2087  _name */\n      dup5\n        /* \"goofy.sol\":2068:2088  nametofavnum [_name] */\n      mload(0x40)\n      tag_55\n      swap2\n      swap1\n      tag_56\n      jump\t// in\n    tag_55:\n      swap1\n      dup2\n      mstore\n      0x20\n      add\n      mload(0x40)\n      dup1\n      swap2\n      sub\n      swap1\n      keccak256\n        /* \"goofy.sol\":2068:2098  nametofavnum [_name] = _favnum */\n      dup2\n      swap1\n      sstore\n      pop\n        /* \"goofy.sol\":2199:2202  arr */\n      0x07\n        /* \"goofy.sol\":2208:2214  person */\n      dup2\n        /* \"goofy.sol\":2199:2215  arr.push(person) */\n      swap1\n      dup1\n      0x01\n      dup2\n      sload\n      add\n      dup1\n      dup3\n      sstore\n      dup1\n      swap2\n      pop\n      pop\n      0x01\n      swap1\n      sub\n      swap1\n      0x00\n      mstore\n      keccak256(0x00, 0x20)\n      swap1\n      0x02\n      mul\n      add\n      0x00\n      swap1\n      swap2\n      swap1\n      swap2\n      swap1\n      swap2\n      pop\n      0x00\n      dup3\n      add\n      mload\n      dup2\n      0x00\n      add\n      sstore\n      0x20\n      dup3\n      add\n      mload\n      dup2\n      0x01\n      add\n      swap1\n      dup2\n      tag_58\n      swap2\n      swap1\n      tag_59\n      jump\t// in\n    tag_58:\n      pop\n      pop\n      pop\n        /* \"goofy.sol\":1540:2223  { // need to use memroy for string cause it is an array ... */\n      pop\n        /* \"goofy.sol\":1477:2223  function addppl (string memory _name , uint256 _favnum) public { // need to use memroy for string cause it is an array ... */\n      pop\n      pop\n      jump\t// out\n        /* \"goofy.sol\":1089:1184  function sore(uint256 _num) public virtual {... */\n    tag_34:\n        /* \"goofy.sol\":1152:1156  _num */\n      dup1\n        /* \"goofy.sol\":1143:1149  favnum */\n      0x01\n        /* \"goofy.sol\":1143:1156  favnum = _num */\n      dup2\n      swap1\n      sstore\n      pop\n        /* \"goofy.sol\":1167:1173  favnum */\n      0x01\n      0x00\n        /* \"goofy.sol\":1167:1176  favnum ++ */\n      dup2\n      sload\n      dup1\n      swap3\n      swap2\n      swap1\n      tag_61\n      swap1\n      tag_62\n      jump\t// in\n    tag_61:\n      swap2\n      swap1\n      pop\n      sstore\n      pop\n        /* \"goofy.sol\":1089:1184  function sore(uint256 _num) public virtual {... */\n      pop\n      jump\t// out\n        /* \"goofy.sol\":864:912  mapping (string => uint256 ) public nametofavnum */\n    tag_38:\n      0x06\n      dup2\n      dup1\n      mload\n      0x20\n      dup2\n      add\n      dup3\n      add\n      dup1\n      mload\n      dup5\n      dup3\n      mstore\n      0x20\n      dup4\n      add\n      0x20\n      dup6\n      add\n      keccak256\n      dup2\n      dup4\n      mstore\n      dup1\n      swap6\n      pop\n      pop\n      pop\n      pop\n      pop\n      pop\n      0x00\n      swap2\n      pop\n      swap1\n      pop\n      sload\n      dup2\n      jump\t// out\n        /* \"#utility.yul\":7:84   */\n    tag_63:\n        /* \"#utility.yul\":44:51   */\n      0x00\n        /* \"#utility.yul\":73:78   */\n      dup2\n        /* \"#utility.yul\":62:78   */\n      swap1\n      pop\n        /* \"#utility.yul\":7:84   */\n      swap2\n      swap1\n      pop\n      jump\t// out\n        /* \"#utility.yul\":90:208   */\n    tag_64:\n        /* \"#utility.yul\":177:201   */\n      tag_106\n        /* \"#utility.yul\":195:200   */\n      dup2\n        /* \"#utility.yul\":177:201   */\n      tag_63\n      jump\t// in\n    tag_106:\n        /* \"#utility.yul\":172:175   */\n      dup3\n        /* \"#utility.yul\":165:202   */\n      mstore\n        /* \"#utility.yul\":90:208   */\n      pop\n      pop\n      jump\t// out\n        /* \"#utility.yul\":214:436   */\n    tag_14:\n        /* \"#utility.yul\":307:311   */\n      0x00\n        /* \"#utility.yul\":345:347   */\n      0x20\n        /* \"#utility.yul\":334:343   */\n      dup3\n        /* \"#utility.yul\":330:348   */\n      add\n        /* \"#utility.yul\":322:348   */\n      swap1\n      pop\n        /* \"#utility.yul\":358:429   */\n      tag_108\n        /* \"#utility.yul\":426:427   */\n      0x00\n        /* \"#utility.yul\":415:424   */\n      dup4\n        /* \"#utility.yul\":411:428   */\n      add\n        /* \"#utility.yul\":402:408   */\n      dup5\n        /* \"#utility.yul\":358:429   */\n      tag_64\n      jump\t// in\n    tag_108:\n        /* \"#utility.yul\":214:436   */\n      swap3\n      swap2\n      pop\n      pop\n      jump\t// out\n        /* \"#utility.yul\":442:774   */\n    tag_18:\n        /* \"#utility.yul\":563:567   */\n      0x00\n        /* \"#utility.yul\":601:603   */\n      0x40\n        /* \"#utility.yul\":590:599   */\n      dup3\n        /* \"#utility.yul\":586:604   */\n      add\n        /* \"#utility.yul\":578:604   */\n      swap1\n      pop\n        /* \"#utility.yul\":614:685   */\n      tag_110\n        /* \"#utility.yul\":682:683   */\n      0x00\n        /* \"#utility.yul\":671:680   */\n      dup4\n        /* \"#utility.yul\":667:684   */\n      add\n        /* \"#utility.yul\":658:664   */\n      dup6\n        /* \"#utility.yul\":614:685   */\n      tag_64\n      jump\t// in\n    tag_110:\n        /* \"#utility.yul\":695:767   */\n      tag_111\n        /* \"#utility.yul\":763:765   */\n      0x20\n        /* \"#utility.yul\":752:761   */\n      dup4\n        /* \"#utility.yul\":748:766   */\n      add\n        /* \"#utility.yul\":739:745   */\n      dup5\n        /* \"#utility.yul\":695:767   */\n      tag_64\n      jump\t// in\n    tag_111:\n        /* \"#utility.yul\":442:774   */\n      swap4\n      swap3\n      pop\n      pop\n      pop\n      jump\t// out\n        /* \"#utility.yul\":780:879   */\n    tag_65:\n        /* \"#utility.yul\":832:838   */\n      0x00\n        /* \"#utility.yul\":866:871   */\n      dup2\n        /* \"#utility.yul\":860:872   */\n      mload\n        /* \"#utility.yul\":850:872   */\n      swap1\n      pop\n        /* \"#utility.yul\":780:879   */\n      swap2\n      swap1\n      pop\n      jump\t// out\n        /* \"#utility.yul\":885:1054   */\n    tag_66:\n        /* \"#utility.yul\":969:980   */\n      0x00\n        /* \"#utility.yul\":1003:1009   */\n      dup3\n        /* \"#utility.yul\":998:1001   */\n      dup3\n        /* \"#utility.yul\":991:1010   */\n      mstore\n        /* \"#utility.yul\":1043:1047   */\n      0x20\n        /* \"#utility.yul\":1038:1041   */\n      dup3\n        /* \"#utility.yul\":1034:1048   */\n      add\n        /* \"#utility.yul\":1019:1048   */\n      swap1\n      pop\n        /* \"#utility.yul\":885:1054   */\n      swap3\n      swap2\n      pop\n      pop\n      jump\t// out\n        /* \"#utility.yul\":1060:1199   */\n    tag_67:\n        /* \"#utility.yul\":1149:1155   */\n      dup3\n        /* \"#utility.yul\":1144:1147   */\n      dup2\n        /* \"#utility.yul\":1139:1142   */\n      dup4\n        /* \"#utility.yul\":1133:1156   */\n      mcopy\n        /* \"#utility.yul\":1190:1191   */\n      0x00\n        /* \"#utility.yul\":1181:1187   */\n      dup4\n        /* \"#utility.yul\":1176:1179   */\n      dup4\n        /* \"#utility.yul\":1172:1188   */\n      add\n        /* \"#utility.yul\":1165:1192   */\n      mstore\n        /* \"#utility.yul\":1060:1199   */\n      pop\n      pop\n      pop\n      jump\t// out\n        /* \"#utility.yul\":1205:1307   */\n    tag_68:\n        /* \"#utility.yul\":1246:1252   */\n      0x00\n        /* \"#utility.yul\":1297:1299   */\n      0x1f\n        /* \"#utility.yul\":1293:1300   */\n      not\n        /* \"#utility.yul\":1288:1290   */\n      0x1f\n        /* \"#utility.yul\":1281:1286   */\n      dup4\n        /* \"#utility.yul\":1277:1291   */\n      add\n        /* \"#utility.yul\":1273:1301   */\n      and\n        /* \"#utility.yul\":1263:1301   */\n      swap1\n      pop\n        /* \"#utility.yul\":1205:1307   */\n      swap2\n      swap1\n      pop\n      jump\t// out\n        /* \"#utility.yul\":1313:1690   */\n    tag_69:\n        /* \"#utility.yul\":1401:1404   */\n      0x00\n        /* \"#utility.yul\":1429:1468   */\n      tag_117\n        /* \"#utility.yul\":1462:1467   */\n      dup3\n        /* \"#utility.yul\":1429:1468   */\n      tag_65\n      jump\t// in\n    tag_117:\n        /* \"#utility.yul\":1484:1555   */\n      tag_118\n        /* \"#utility.yul\":1548:1554   */\n      dup2\n        /* \"#utility.yul\":1543:1546   */\n      dup6\n        /* \"#utility.yul\":1484:1555   */\n      tag_66\n      jump\t// in\n    tag_118:\n        /* \"#utility.yul\":1477:1555   */\n      swap4\n      pop\n        /* \"#utility.yul\":1564:1629   */\n      tag_119\n        /* \"#utility.yul\":1622:1628   */\n      dup2\n        /* \"#utility.yul\":1617:1620   */\n      dup6\n        /* \"#utility.yul\":1610:1614   */\n      0x20\n        /* \"#utility.yul\":1603:1608   */\n      dup7\n        /* \"#utility.yul\":1599:1615   */\n      add\n        /* \"#utility.yul\":1564:1629   */\n      tag_67\n      jump\t// in\n    tag_119:\n        /* \"#utility.yul\":1654:1683   */\n      tag_120\n        /* \"#utility.yul\":1676:1682   */\n      dup2\n        /* \"#utility.yul\":1654:1683   */\n      tag_68\n      jump\t// in\n    tag_120:\n        /* \"#utility.yul\":1649:1652   */\n      dup5\n        /* \"#utility.yul\":1645:1684   */\n      add\n        /* \"#utility.yul\":1638:1684   */\n      swap2\n      pop\n        /* \"#utility.yul\":1405:1690   */\n      pop\n        /* \"#utility.yul\":1313:1690   */\n      swap3\n      swap2\n      pop\n      pop\n      jump\t// out\n        /* \"#utility.yul\":1696:2119   */\n    tag_22:\n        /* \"#utility.yul\":1837:1841   */\n      0x00\n        /* \"#utility.yul\":1875:1877   */\n      0x40\n        /* \"#utility.yul\":1864:1873   */\n      dup3\n        /* \"#utility.yul\":1860:1878   */\n      add\n        /* \"#utility.yul\":1852:1878   */\n      swap1\n      pop\n        /* \"#utility.yul\":1888:1959   */\n      tag_122\n        /* \"#utility.yul\":1956:1957   */\n      0x00\n        /* \"#utility.yul\":1945:1954   */\n      dup4\n        /* \"#utility.yul\":1941:1958   */\n      add\n        /* \"#utility.yul\":1932:1938   */\n      dup6\n        /* \"#utility.yul\":1888:1959   */\n      tag_64\n      jump\t// in\n    tag_122:\n        /* \"#utility.yul\":2006:2015   */\n      dup2\n        /* \"#utility.yul\":2000:2004   */\n      dup2\n        /* \"#utility.yul\":1996:2016   */\n      sub\n        /* \"#utility.yul\":1991:1993   */\n      0x20\n        /* \"#utility.yul\":1980:1989   */\n      dup4\n        /* \"#utility.yul\":1976:1994   */\n      add\n        /* \"#utility.yul\":1969:2017   */\n      mstore\n        /* \"#utility.yul\":2034:2112   */\n      tag_123\n        /* \"#utility.yul\":2107:2111   */\n      dup2\n        /* \"#utility.yul\":2098:2104   */\n      dup5\n        /* \"#utility.yul\":2034:2112   */\n      tag_69\n      jump\t// in\n    tag_123:\n        /* \"#utility.yul\":2026:2112   */\n      swap1\n      pop\n        /* \"#utility.yul\":1696:2119   */\n      swap4\n      swap3\n      pop\n      pop\n      pop\n      jump\t// out\n        /* \"#utility.yul\":2125:2200   */\n    tag_70:\n        /* \"#utility.yul\":2158:2164   */\n      0x00\n        /* \"#utility.yul\":2191:2193   */\n      0x40\n        /* \"#utility.yul\":2185:2194   */\n      mload\n        /* \"#utility.yul\":2175:2194   */\n      swap1\n      pop\n        /* \"#utility.yul\":2125:2200   */\n      swap1\n      jump\t// out\n        /* \"#utility.yul\":2206:2323   */\n    tag_71:\n        /* \"#utility.yul\":2315:2316   */\n      0x00\n        /* \"#utility.yul\":2312:2313   */\n      dup1\n        /* \"#utility.yul\":2305:2317   */\n      revert\n        /* \"#utility.yul\":2329:2446   */\n    tag_72:\n        /* \"#utility.yul\":2438:2439   */\n      0x00\n        /* \"#utility.yul\":2435:2436   */\n      dup1\n        /* \"#utility.yul\":2428:2440   */\n      revert\n        /* \"#utility.yul\":2452:2574   */\n    tag_73:\n        /* \"#utility.yul\":2525:2549   */\n      tag_128\n        /* \"#utility.yul\":2543:2548   */\n      dup2\n        /* \"#utility.yul\":2525:2549   */\n      tag_63\n      jump\t// in\n    tag_128:\n        /* \"#utility.yul\":2518:2523   */\n      dup2\n        /* \"#utility.yul\":2515:2550   */\n      eq\n        /* \"#utility.yul\":2505:2568   */\n      tag_129\n      jumpi\n        /* \"#utility.yul\":2564:2565   */\n      0x00\n        /* \"#utility.yul\":2561:2562   */\n      dup1\n        /* \"#utility.yul\":2554:2566   */\n      revert\n        /* \"#utility.yul\":2505:2568   */\n    tag_129:\n        /* \"#utility.yul\":2452:2574   */\n      pop\n      jump\t// out\n        /* \"#utility.yul\":2580:2719   */\n    tag_74:\n        /* \"#utility.yul\":2626:2631   */\n      0x00\n        /* \"#utility.yul\":2664:2670   */\n      dup2\n        /* \"#utility.yul\":2651:2671   */\n      calldataload\n        /* \"#utility.yul\":2642:2671   */\n      swap1\n      pop\n        /* \"#utility.yul\":2680:2713   */\n      tag_131\n        /* \"#utility.yul\":2707:2712   */\n      dup2\n        /* \"#utility.yul\":2680:2713   */\n      tag_73\n      jump\t// in\n    tag_131:\n        /* \"#utility.yul\":2580:2719   */\n      swap3\n      swap2\n      pop\n      pop\n      jump\t// out\n        /* \"#utility.yul\":2725:3054   */\n    tag_25:\n        /* \"#utility.yul\":2784:2790   */\n      0x00\n        /* \"#utility.yul\":2833:2835   */\n      0x20\n        /* \"#utility.yul\":2821:2830   */\n      dup3\n        /* \"#utility.yul\":2812:2819   */\n      dup5\n        /* \"#utility.yul\":2808:2831   */\n      sub\n        /* \"#utility.yul\":2804:2836   */\n      slt\n        /* \"#utility.yul\":2801:2920   */\n      iszero\n      tag_133\n      jumpi\n        /* \"#utility.yul\":2839:2918   */\n      tag_134\n      tag_71\n      jump\t// in\n    tag_134:\n        /* \"#utility.yul\":2801:2920   */\n    tag_133:\n        /* \"#utility.yul\":2959:2960   */\n      0x00\n        /* \"#utility.yul\":2984:3037   */\n      tag_135\n        /* \"#utility.yul\":3029:3036   */\n      dup5\n        /* \"#utility.yul\":3020:3026   */\n      dup3\n        /* \"#utility.yul\":3009:3018   */\n      dup6\n        /* \"#utility.yul\":3005:3027   */\n      add\n        /* \"#utility.yul\":2984:3037   */\n      tag_74\n      jump\t// in\n    tag_135:\n        /* \"#utility.yul\":2974:3037   */\n      swap2\n      pop\n        /* \"#utility.yul\":2930:3047   */\n      pop\n        /* \"#utility.yul\":2725:3054   */\n      swap3\n      swap2\n      pop\n      pop\n      jump\t// out\n        /* \"#utility.yul\":3060:3177   */\n    tag_75:\n        /* \"#utility.yul\":3169:3170   */\n      0x00\n        /* \"#utility.yul\":3166:3167   */\n      dup1\n        /* \"#utility.yul\":3159:3171   */\n      revert\n        /* \"#utility.yul\":3183:3300   */\n    tag_76:\n        /* \"#utility.yul\":3292:3293   */\n      0x00\n        /* \"#utility.yul\":3289:3290   */\n      dup1\n        /* \"#utility.yul\":3282:3294   */\n      revert\n        /* \"#utility.yul\":3306:3486   */\n    tag_77:\n        /* \"#utility.yul\":3354:3431   */\n      0x4e487b7100000000000000000000000000000000000000000000000000000000\n        /* \"#utility.yul\":3351:3352   */\n      0x00\n        /* \"#utility.yul\":3344:3432   */\n      mstore\n        /* \"#utility.yul\":3451:3455   */\n      0x41\n        /* \"#utility.yul\":3448:3449   */\n      0x04\n        /* \"#utility.yul\":3441:3456   */\n      mstore\n        /* \"#utility.yul\":3475:3479   */\n      0x24\n        /* \"#utility.yul\":3472:3473   */\n      0x00\n        /* \"#utility.yul\":3465:3480   */\n      revert\n        /* \"#utility.yul\":3492:3773   */\n    tag_78:\n        /* \"#utility.yul\":3575:3602   */\n      tag_140\n        /* \"#utility.yul\":3597:3601   */\n      dup3\n        /* \"#utility.yul\":3575:3602   */\n      tag_68\n      jump\t// in\n    tag_140:\n        /* \"#utility.yul\":3567:3573   */\n      dup2\n        /* \"#utility.yul\":3563:3603   */\n      add\n        /* \"#utility.yul\":3705:3711   */\n      dup2\n        /* \"#utility.yul\":3693:3703   */\n      dup2\n        /* \"#utility.yul\":3690:3712   */\n      lt\n        /* \"#utility.yul\":3669:3687   */\n      0xffffffffffffffff\n        /* \"#utility.yul\":3657:3667   */\n      dup3\n        /* \"#utility.yul\":3654:3688   */\n      gt\n        /* \"#utility.yul\":3651:3713   */\n      or\n        /* \"#utility.yul\":3648:3736   */\n      iszero\n      tag_141\n      jumpi\n        /* \"#utility.yul\":3716:3734   */\n      tag_142\n      tag_77\n      jump\t// in\n    tag_142:\n        /* \"#utility.yul\":3648:3736   */\n    tag_141:\n        /* \"#utility.yul\":3756:3766   */\n      dup1\n        /* \"#utility.yul\":3752:3754   */\n      0x40\n        /* \"#utility.yul\":3745:3767   */\n      mstore\n        /* \"#utility.yul\":3535:3773   */\n      pop\n        /* \"#utility.yul\":3492:3773   */\n      pop\n      pop\n      jump\t// out\n        /* \"#utility.yul\":3779:3908   */\n    tag_79:\n        /* \"#utility.yul\":3813:3819   */\n      0x00\n        /* \"#utility.yul\":3840:3860   */\n      tag_144\n      tag_70\n      jump\t// in\n    tag_144:\n        /* \"#utility.yul\":3830:3860   */\n      swap1\n      pop\n        /* \"#utility.yul\":3869:3902   */\n      tag_145\n        /* \"#utility.yul\":3897:3901   */\n      dup3\n        /* \"#utility.yul\":3889:3895   */\n      dup3\n        /* \"#utility.yul\":3869:3902   */\n      tag_78\n      jump\t// in\n    tag_145:\n        /* \"#utility.yul\":3779:3908   */\n      swap2\n      swap1\n      pop\n      jump\t// out\n        /* \"#utility.yul\":3914:4222   */\n    tag_80:\n        /* \"#utility.yul\":3976:3980   */\n      0x00\n        /* \"#utility.yul\":4066:4084   */\n      0xffffffffffffffff\n        /* \"#utility.yul\":4058:4064   */\n      dup3\n        /* \"#utility.yul\":4055:4085   */\n      gt\n        /* \"#utility.yul\":4052:4108   */\n      iszero\n      tag_147\n      jumpi\n        /* \"#utility.yul\":4088:4106   */\n      tag_148\n      tag_77\n      jump\t// in\n    tag_148:\n        /* \"#utility.yul\":4052:4108   */\n    tag_147:\n        /* \"#utility.yul\":4126:4155   */\n      tag_149\n        /* \"#utility.yul\":4148:4154   */\n      dup3\n        /* \"#utility.yul\":4126:4155   */\n      tag_68\n      jump\t// in\n    tag_149:\n        /* \"#utility.yul\":4118:4155   */\n      swap1\n      pop\n        /* \"#utility.yul\":4210:4214   */\n      0x20\n        /* \"#utility.yul\":4204:4208   */\n      dup2\n        /* \"#utility.yul\":4200:4215   */\n      add\n        /* \"#utility.yul\":4192:4215   */\n      swap1\n      pop\n        /* \"#utility.yul\":3914:4222   */\n      swap2\n      swap1\n      pop\n      jump\t// out\n        /* \"#utility.yul\":4228:4376   */\n    tag_81:\n        /* \"#utility.yul\":4326:4332   */\n      dup3\n        /* \"#utility.yul\":4321:4324   */\n      dup2\n        /* \"#utility.yul\":4316:4319   */\n      dup4\n        /* \"#utility.yul\":4303:4333   */\n      calldatacopy\n        /* \"#utility.yul\":4367:4368   */\n      0x00\n        /* \"#utility.yul\":4358:4364   */\n      dup4\n        /* \"#utility.yul\":4353:4356   */\n      dup4\n        /* \"#utility.yul\":4349:4365   */\n      add\n        /* \"#utility.yul\":4342:4369   */\n      mstore\n        /* \"#utility.yul\":4228:4376   */\n      pop\n      pop\n      pop\n      jump\t// out\n        /* \"#utility.yul\":4382:4807   */\n    tag_82:\n        /* \"#utility.yul\":4460:4465   */\n      0x00\n        /* \"#utility.yul\":4485:4551   */\n      tag_152\n        /* \"#utility.yul\":4501:4550   */\n      tag_153\n        /* \"#utility.yul\":4543:4549   */\n      dup5\n        /* \"#utility.yul\":4501:4550   */\n      tag_80\n      jump\t// in\n    tag_153:\n        /* \"#utility.yul\":4485:4551   */\n      tag_79\n      jump\t// in\n    tag_152:\n        /* \"#utility.yul\":4476:4551   */\n      swap1\n      pop\n        /* \"#utility.yul\":4574:4580   */\n      dup3\n        /* \"#utility.yul\":4567:4572   */\n      dup2\n        /* \"#utility.yul\":4560:4581   */\n      mstore\n        /* \"#utility.yul\":4612:4616   */\n      0x20\n        /* \"#utility.yul\":4605:4610   */\n      dup2\n        /* \"#utility.yul\":4601:4617   */\n      add\n        /* \"#utility.yul\":4650:4653   */\n      dup5\n        /* \"#utility.yul\":4641:4647   */\n      dup5\n        /* \"#utility.yul\":4636:4639   */\n      dup5\n        /* \"#utility.yul\":4632:4648   */\n      add\n        /* \"#utility.yul\":4629:4654   */\n      gt\n        /* \"#utility.yul\":4626:4738   */\n      iszero\n      tag_154\n      jumpi\n        /* \"#utility.yul\":4657:4736   */\n      tag_155\n      tag_76\n      jump\t// in\n    tag_155:\n        /* \"#utility.yul\":4626:4738   */\n    tag_154:\n        /* \"#utility.yul\":4747:4801   */\n      tag_156\n        /* \"#utility.yul\":4794:4800   */\n      dup5\n        /* \"#utility.yul\":4789:4792   */\n      dup3\n        /* \"#utility.yul\":4784:4787   */\n      dup6\n        /* \"#utility.yul\":4747:4801   */\n      tag_81\n      jump\t// in\n    tag_156:\n        /* \"#utility.yul\":4466:4807   */\n      pop\n        /* \"#utility.yul\":4382:4807   */\n      swap4\n      swap3\n      pop\n      pop\n      pop\n      jump\t// out\n        /* \"#utility.yul\":4827:5167   */\n    tag_83:\n        /* \"#utility.yul\":4883:4888   */\n      0x00\n        /* \"#utility.yul\":4932:4935   */\n      dup3\n        /* \"#utility.yul\":4925:4929   */\n      0x1f\n        /* \"#utility.yul\":4917:4923   */\n      dup4\n        /* \"#utility.yul\":4913:4930   */\n      add\n        /* \"#utility.yul\":4909:4936   */\n      slt\n        /* \"#utility.yul\":4899:5021   */\n      tag_158\n      jumpi\n        /* \"#utility.yul\":4940:5019   */\n      tag_159\n      tag_75\n      jump\t// in\n    tag_159:\n        /* \"#utility.yul\":4899:5021   */\n    tag_158:\n        /* \"#utility.yul\":5057:5063   */\n      dup2\n        /* \"#utility.yul\":5044:5064   */\n      calldataload\n        /* \"#utility.yul\":5082:5161   */\n      tag_160\n        /* \"#utility.yul\":5157:5160   */\n      dup5\n        /* \"#utility.yul\":5149:5155   */\n      dup3\n        /* \"#utility.yul\":5142:5146   */\n      0x20\n        /* \"#utility.yul\":5134:5140   */\n      dup7\n        /* \"#utility.yul\":5130:5147   */\n      add\n        /* \"#utility.yul\":5082:5161   */\n      tag_82\n      jump\t// in\n    tag_160:\n        /* \"#utility.yul\":5073:5161   */\n      swap2\n      pop\n        /* \"#utility.yul\":4889:5167   */\n      pop\n        /* \"#utility.yul\":4827:5167   */\n      swap3\n      swap2\n      pop\n      pop\n      jump\t// out\n        /* \"#utility.yul\":5173:5827   */\n    tag_30:\n        /* \"#utility.yul\":5251:5257   */\n      0x00\n        /* \"#utility.yul\":5259:5265   */\n      dup1\n        /* \"#utility.yul\":5308:5310   */\n      0x40\n        /* \"#utility.yul\":5296:5305   */\n      dup4\n        /* \"#utility.yul\":5287:5294   */\n      dup6\n        /* \"#utility.yul\":5283:5306   */\n      sub\n        /* \"#utility.yul\":5279:5311   */\n      slt\n        /* \"#utility.yul\":5276:5395   */\n      iszero\n      tag_162\n      jumpi\n        /* \"#utility.yul\":5314:5393   */\n      tag_163\n      tag_71\n      jump\t// in\n    tag_163:\n        /* \"#utility.yul\":5276:5395   */\n    tag_162:\n        /* \"#utility.yul\":5462:5463   */\n      0x00\n        /* \"#utility.yul\":5451:5460   */\n      dup4\n        /* \"#utility.yul\":5447:5464   */\n      add\n        /* \"#utility.yul\":5434:5465   */\n      calldataload\n        /* \"#utility.yul\":5492:5510   */\n      0xffffffffffffffff\n        /* \"#utility.yul\":5484:5490   */\n      dup2\n        /* \"#utility.yul\":5481:5511   */\n      gt\n        /* \"#utility.yul\":5478:5595   */\n      iszero\n      tag_164\n      jumpi\n        /* \"#utility.yul\":5514:5593   */\n      tag_165\n      tag_72\n      jump\t// in\n    tag_165:\n        /* \"#utility.yul\":5478:5595   */\n    tag_164:\n        /* \"#utility.yul\":5619:5682   */\n      tag_166\n        /* \"#utility.yul\":5674:5681   */\n      dup6\n        /* \"#utility.yul\":5665:5671   */\n      dup3\n        /* \"#utility.yul\":5654:5663   */\n      dup7\n        /* \"#utility.yul\":5650:5672   */\n      add\n        /* \"#utility.yul\":5619:5682   */\n      tag_83\n      jump\t// in\n    tag_166:\n        /* \"#utility.yul\":5609:5682   */\n      swap3\n      pop\n        /* \"#utility.yul\":5405:5692   */\n      pop\n        /* \"#utility.yul\":5731:5733   */\n      0x20\n        /* \"#utility.yul\":5757:5810   */\n      tag_167\n        /* \"#utility.yul\":5802:5809   */\n      dup6\n        /* \"#utility.yul\":5793:5799   */\n      dup3\n        /* \"#utility.yul\":5782:5791   */\n      dup7\n        /* \"#utility.yul\":5778:5800   */\n      add\n        /* \"#utility.yul\":5757:5810   */\n      tag_74\n      jump\t// in\n    tag_167:\n        /* \"#utility.yul\":5747:5810   */\n      swap2\n      pop\n        /* \"#utility.yul\":5702:5820   */\n      pop\n        /* \"#utility.yul\":5173:5827   */\n      swap3\n      pop\n      swap3\n      swap1\n      pop\n      jump\t// out\n        /* \"#utility.yul\":5833:6342   */\n    tag_37:\n        /* \"#utility.yul\":5902:5908   */\n      0x00\n        /* \"#utility.yul\":5951:5953   */\n      0x20\n        /* \"#utility.yul\":5939:5948   */\n      dup3\n        /* \"#utility.yul\":5930:5937   */\n      dup5\n        /* \"#utility.yul\":5926:5949   */\n      sub\n        /* \"#utility.yul\":5922:5954   */\n      slt\n        /* \"#utility.yul\":5919:6038   */\n      iszero\n      tag_169\n      jumpi\n        /* \"#utility.yul\":5957:6036   */\n      tag_170\n      tag_71\n      jump\t// in\n    tag_170:\n        /* \"#utility.yul\":5919:6038   */\n    tag_169:\n        /* \"#utility.yul\":6105:6106   */\n      0x00\n        /* \"#utility.yul\":6094:6103   */\n      dup3\n        /* \"#utility.yul\":6090:6107   */\n      add\n        /* \"#utility.yul\":6077:6108   */\n      calldataload\n        /* \"#utility.yul\":6135:6153   */\n      0xffffffffffffffff\n        /* \"#utility.yul\":6127:6133   */\n      dup2\n        /* \"#utility.yul\":6124:6154   */\n      gt\n        /* \"#utility.yul\":6121:6238   */\n      iszero\n      tag_171\n      jumpi\n        /* \"#utility.yul\":6157:6236   */\n      tag_172\n      tag_72\n      jump\t// in\n    tag_172:\n        /* \"#utility.yul\":6121:6238   */\n    tag_171:\n        /* \"#utility.yul\":6262:6325   */\n      tag_173\n        /* \"#utility.yul\":6317:6324   */\n      dup5\n        /* \"#utility.yul\":6308:6314   */\n      dup3\n        /* \"#utility.yul\":6297:6306   */\n      dup6\n        /* \"#utility.yul\":6293:6315   */\n      add\n        /* \"#utility.yul\":6262:6325   */\n      tag_83\n      jump\t// in\n    tag_173:\n        /* \"#utility.yul\":6252:6325   */\n      swap2\n      pop\n        /* \"#utility.yul\":6048:6335   */\n      pop\n        /* \"#utility.yul\":5833:6342   */\n      swap3\n      swap2\n      pop\n      pop\n      jump\t// out\n        /* \"#utility.yul\":6348:6528   */\n    tag_84:\n        /* \"#utility.yul\":6396:6473   */\n      0x4e487b7100000000000000000000000000000000000000000000000000000000\n        /* \"#utility.yul\":6393:6394   */\n      0x00\n        /* \"#utility.yul\":6386:6474   */\n      mstore\n        /* \"#utility.yul\":6493:6497   */\n      0x22\n        /* \"#utility.yul\":6490:6491   */\n      0x04\n        /* \"#utility.yul\":6483:6498   */\n      mstore\n        /* \"#utility.yul\":6517:6521   */\n      0x24\n        /* \"#utility.yul\":6514:6515   */\n      0x00\n        /* \"#utility.yul\":6507:6522   */\n      revert\n        /* \"#utility.yul\":6534:6854   */\n    tag_42:\n        /* \"#utility.yul\":6578:6584   */\n      0x00\n        /* \"#utility.yul\":6615:6616   */\n      0x02\n        /* \"#utility.yul\":6609:6613   */\n      dup3\n        /* \"#utility.yul\":6605:6617   */\n      div\n        /* \"#utility.yul\":6595:6617   */\n      swap1\n      pop\n        /* \"#utility.yul\":6662:6663   */\n      0x01\n        /* \"#utility.yul\":6656:6660   */\n      dup3\n        /* \"#utility.yul\":6652:6664   */\n      and\n        /* \"#utility.yul\":6683:6701   */\n      dup1\n        /* \"#utility.yul\":6673:6754   */\n      tag_176\n      jumpi\n        /* \"#utility.yul\":6739:6743   */\n      0x7f\n        /* \"#utility.yul\":6731:6737   */\n      dup3\n        /* \"#utility.yul\":6727:6744   */\n      and\n        /* \"#utility.yul\":6717:6744   */\n      swap2\n      pop\n        /* \"#utility.yul\":6673:6754   */\n    tag_176:\n        /* \"#utility.yul\":6801:6803   */\n      0x20\n        /* \"#utility.yul\":6793:6799   */\n      dup3\n        /* \"#utility.yul\":6790:6804   */\n      lt\n        /* \"#utility.yul\":6770:6788   */\n      dup2\n        /* \"#utility.yul\":6767:6805   */\n      sub\n        /* \"#utility.yul\":6764:6848   */\n      tag_177\n      jumpi\n        /* \"#utility.yul\":6820:6838   */\n      tag_178\n      tag_84\n      jump\t// in\n    tag_178:\n        /* \"#utility.yul\":6764:6848   */\n    tag_177:\n        /* \"#utility.yul\":6585:6854   */\n      pop\n        /* \"#utility.yul\":6534:6854   */\n      swap2\n      swap1\n      pop\n      jump\t// out\n        /* \"#utility.yul\":6860:7008   */\n    tag_85:\n        /* \"#utility.yul\":6962:6973   */\n      0x00\n        /* \"#utility.yul\":6999:7002   */\n      dup2\n        /* \"#utility.yul\":6984:7002   */\n      swap1\n      pop\n        /* \"#utility.yul\":6860:7008   */\n      swap3\n      swap2\n      pop\n      pop\n      jump\t// out\n        /* \"#utility.yul\":7014:7404   */\n    tag_86:\n        /* \"#utility.yul\":7120:7123   */\n      0x00\n        /* \"#utility.yul\":7148:7187   */\n      tag_181\n        /* \"#utility.yul\":7181:7186   */\n      dup3\n        /* \"#utility.yul\":7148:7187   */\n      tag_65\n      jump\t// in\n    tag_181:\n        /* \"#utility.yul\":7203:7292   */\n      tag_182\n        /* \"#utility.yul\":7285:7291   */\n      dup2\n        /* \"#utility.yul\":7280:7283   */\n      dup6\n        /* \"#utility.yul\":7203:7292   */\n      tag_85\n      jump\t// in\n    tag_182:\n        /* \"#utility.yul\":7196:7292   */\n      swap4\n      pop\n        /* \"#utility.yul\":7301:7366   */\n      tag_183\n        /* \"#utility.yul\":7359:7365   */\n      dup2\n        /* \"#utility.yul\":7354:7357   */\n      dup6\n        /* \"#utility.yul\":7347:7351   */\n      0x20\n        /* \"#utility.yul\":7340:7345   */\n      dup7\n        /* \"#utility.yul\":7336:7352   */\n      add\n        /* \"#utility.yul\":7301:7366   */\n      tag_67\n      jump\t// in\n    tag_183:\n        /* \"#utility.yul\":7391:7397   */\n      dup1\n        /* \"#utility.yul\":7386:7389   */\n      dup5\n        /* \"#utility.yul\":7382:7398   */\n      add\n        /* \"#utility.yul\":7375:7398   */\n      swap2\n      pop\n        /* \"#utility.yul\":7124:7404   */\n      pop\n        /* \"#utility.yul\":7014:7404   */\n      swap3\n      swap2\n      pop\n      pop\n      jump\t// out\n        /* \"#utility.yul\":7410:7685   */\n    tag_56:\n        /* \"#utility.yul\":7542:7545   */\n      0x00\n        /* \"#utility.yul\":7564:7659   */\n      tag_185\n        /* \"#utility.yul\":7655:7658   */\n      dup3\n        /* \"#utility.yul\":7646:7652   */\n      dup5\n        /* \"#utility.yul\":7564:7659   */\n      tag_86\n      jump\t// in\n    tag_185:\n        /* \"#utility.yul\":7557:7659   */\n      swap2\n      pop\n        /* \"#utility.yul\":7676:7679   */\n      dup2\n        /* \"#utility.yul\":7669:7679   */\n      swap1\n      pop\n        /* \"#utility.yul\":7410:7685   */\n      swap3\n      swap2\n      pop\n      pop\n      jump\t// out\n        /* \"#utility.yul\":7691:7832   */\n    tag_87:\n        /* \"#utility.yul\":7740:7744   */\n      0x00\n        /* \"#utility.yul\":7763:7766   */\n      dup2\n        /* \"#utility.yul\":7755:7766   */\n      swap1\n      pop\n        /* \"#utility.yul\":7786:7789   */\n      dup2\n        /* \"#utility.yul\":7783:7784   */\n      0x00\n        /* \"#utility.yul\":7776:7790   */\n      mstore\n        /* \"#utility.yul\":7820:7824   */\n      0x20\n        /* \"#utility.yul\":7817:7818   */\n      0x00\n        /* \"#utility.yul\":7807:7825   */\n      keccak256\n        /* \"#utility.yul\":7799:7825   */\n      swap1\n      pop\n        /* \"#utility.yul\":7691:7832   */\n      swap2\n      swap1\n      pop\n      jump\t// out\n        /* \"#utility.yul\":7838:7931   */\n    tag_88:\n        /* \"#utility.yul\":7875:7881   */\n      0x00\n        /* \"#utility.yul\":7922:7924   */\n      0x20\n        /* \"#utility.yul\":7917:7919   */\n      0x1f\n        /* \"#utility.yul\":7910:7915   */\n      dup4\n        /* \"#utility.yul\":7906:7920   */\n      add\n        /* \"#utility.yul\":7902:7925   */\n      div\n        /* \"#utility.yul\":7892:7925   */\n      swap1\n      pop\n        /* \"#utility.yul\":7838:7931   */\n      swap2\n      swap1\n      pop\n      jump\t// out\n        /* \"#utility.yul\":7937:8044   */\n    tag_89:\n        /* \"#utility.yul\":7981:7989   */\n      0x00\n        /* \"#utility.yul\":8031:8036   */\n      dup3\n        /* \"#utility.yul\":8025:8029   */\n      dup3\n        /* \"#utility.yul\":8021:8037   */\n      shl\n        /* \"#utility.yul\":8000:8037   */\n      swap1\n      pop\n        /* \"#utility.yul\":7937:8044   */\n      swap3\n      swap2\n      pop\n      pop\n      jump\t// out\n        /* \"#utility.yul\":8050:8443   */\n    tag_90:\n        /* \"#utility.yul\":8119:8125   */\n      0x00\n        /* \"#utility.yul\":8169:8170   */\n      0x08\n        /* \"#utility.yul\":8157:8167   */\n      dup4\n        /* \"#utility.yul\":8153:8171   */\n      mul\n        /* \"#utility.yul\":8192:8289   */\n      tag_190\n        /* \"#utility.yul\":8222:8288   */\n      0xffffffffffffffffffffffffffffffffffffffffffffffffffffffffffffffff\n        /* \"#utility.yul\":8211:8220   */\n      dup3\n        /* \"#utility.yul\":8192:8289   */\n      tag_89\n      jump\t// in\n    tag_190:\n        /* \"#utility.yul\":8310:8349   */\n      tag_191\n        /* \"#utility.yul\":8340:8348   */\n      dup7\n        /* \"#utility.yul\":8329:8338   */\n      dup4\n        /* \"#utility.yul\":8310:8349   */\n      tag_89\n      jump\t// in\n    tag_191:\n        /* \"#utility.yul\":8298:8349   */\n      swap6\n      pop\n        /* \"#utility.yul\":8382:8386   */\n      dup1\n        /* \"#utility.yul\":8378:8387   */\n      not\n        /* \"#utility.yul\":8371:8376   */\n      dup5\n        /* \"#utility.yul\":8367:8388   */\n      and\n        /* \"#utility.yul\":8358:8388   */\n      swap4\n      pop\n        /* \"#utility.yul\":8431:8435   */\n      dup1\n        /* \"#utility.yul\":8421:8429   */\n      dup7\n        /* \"#utility.yul\":8417:8436   */\n      and\n        /* \"#utility.yul\":8410:8415   */\n      dup5\n        /* \"#utility.yul\":8407:8437   */\n      or\n        /* \"#utility.yul\":8397:8437   */\n      swap3\n      pop\n        /* \"#utility.yul\":8126:8443   */\n      pop\n      pop\n        /* \"#utility.yul\":8050:8443   */\n      swap4\n      swap3\n      pop\n      pop\n      pop\n      jump\t// out\n        /* \"#utility.yul\":8449:8509   */\n    tag_91:\n        /* \"#utility.yul\":8477:8480   */\n      0x00\n        /* \"#utility.yul\":8498:8503   */\n      dup2\n        /* \"#utility.yul\":8491:8503   */\n      swap1\n      pop\n        /* \"#utility.yul\":8449:8509   */\n      swap2\n      swap1\n      pop\n      jump\t// out\n        /* \"#utility.yul\":8515:8657   */\n    tag_92:\n        /* \"#utility.yul\":8565:8574   */\n      0x00\n        /* \"#utility.yul\":8598:8651   */\n      tag_194\n        /* \"#utility.yul\":8616:8650   */\n      tag_195\n        /* \"#utility.yul\":8625:8649   */\n      tag_196\n        /* \"#utility.yul\":8643:8648   */\n      dup5\n        /* \"#utility.yul\":8625:8649   */\n      tag_63\n      jump\t// in\n    tag_196:\n        /* \"#utility.yul\":8616:8650   */\n      tag_91\n      jump\t// in\n    tag_195:\n        /* \"#utility.yul\":8598:8651   */\n      tag_63\n      jump\t// in\n    tag_194:\n        /* \"#utility.yul\":8585:8651   */\n      swap1\n      pop\n        /* \"#utility.yul\":8515:8657   */\n      swap2\n      swap1\n      pop\n      jump\t// out\n        /* \"#utility.yul\":8663:8738   */\n    tag_93:\n        /* \"#utility.yul\":8706:8709   */\n      0x00\n        /* \"#utility.yul\":8727:8732   */\n      dup2\n        /* \"#utility.yul\":8720:8732   */\n      swap1\n      pop\n        /* \"#utility.yul\":8663:8738   */\n      swap2\n      swap1\n      pop\n      jump\t// out\n        /* \"#utility.yul\":8744:9013   */\n    tag_94:\n        /* \"#utility.yul\":8854:8893   */\n      tag_199\n        /* \"#utility.yul\":8885:8892   */\n      dup4\n        /* \"#utility.yul\":8854:8893   */\n      tag_92\n      jump\t// in\n    tag_199:\n        /* \"#utility.yul\":8915:9006   */\n      tag_200\n        /* \"#utility.yul\":8964:9005   */\n      tag_201\n        /* \"#utility.yul\":8988:9004   */\n      dup3\n        /* \"#utility.yul\":8964:9005   */\n      tag_93\n      jump\t// in\n    tag_201:\n        /* \"#utility.yul\":8956:8962   */\n      dup5\n        /* \"#utility.yul\":8949:8953   */\n      dup5\n        /* \"#utility.yul\":8943:8954   */\n      sload\n        /* \"#utility.yul\":8915:9006   */\n      tag_90\n      jump\t// in\n    tag_200:\n        /* \"#utility.yul\":8909:8913   */\n      dup3\n        /* \"#utility.yul\":8902:9007   */\n      sstore\n        /* \"#utility.yul\":8820:9013   */\n      pop\n        /* \"#utility.yul\":8744:9013   */\n      pop\n      pop\n      pop\n      jump\t// out\n        /* \"#utility.yul\":9019:9092   */\n    tag_95:\n        /* \"#utility.yul\":9064:9067   */\n      0x00\n        /* \"#utility.yul\":9019:9092   */\n      swap1\n      jump\t// out\n        /* \"#utility.yul\":9098:9287   */\n    tag_96:\n        /* \"#utility.yul\":9175:9207   */\n      tag_204\n      tag_95\n      jump\t// in\n    tag_204:\n        /* \"#utility.yul\":9216:9281   */\n      tag_205\n        /* \"#utility.yul\":9274:9280   */\n      dup2\n        /* \"#utility.yul\":9266:9272   */\n      dup5\n        /* \"#utility.yul\":9260:9264   */\n      dup5\n        /* \"#utility.yul\":9216:9281   */\n      tag_94\n      jump\t// in\n    tag_205:\n        /* \"#utility.yul\":9151:9287   */\n      pop\n        /* \"#utility.yul\":9098:9287   */\n      pop\n      pop\n      jump\t// out\n        /* \"#utility.yul\":9293:9479   */\n    tag_97:\n        /* \"#utility.yul\":9353:9473   */\n    tag_207:\n        /* \"#utility.yul\":9370:9373   */\n      dup2\n        /* \"#utility.yul\":9363:9368   */\n      dup2\n        /* \"#utility.yul\":9360:9374   */\n      lt\n        /* \"#utility.yul\":9353:9473   */\n      iszero\n      tag_209\n      jumpi\n        /* \"#utility.yul\":9424:9463   */\n      tag_210\n        /* \"#utility.yul\":9461:9462   */\n      0x00\n        /* \"#utility.yul\":9454:9459   */\n      dup3\n        /* \"#utility.yul\":9424:9463   */\n      tag_96\n      jump\t// in\n    tag_210:\n        /* \"#utility.yul\":9397:9398   */\n      0x01\n        /* \"#utility.yul\":9390:9395   */\n      dup2\n        /* \"#utility.yul\":9386:9399   */\n      add\n        /* \"#utility.yul\":9377:9399   */\n      swap1\n      pop\n        /* \"#utility.yul\":9353:9473   */\n      jump(tag_207)\n    tag_209:\n        /* \"#utility.yul\":9293:9479   */\n      pop\n      pop\n      jump\t// out\n        /* \"#utility.yul\":9485:10028   */\n    tag_98:\n        /* \"#utility.yul\":9586:9588   */\n      0x1f\n        /* \"#utility.yul\":9581:9584   */\n      dup3\n        /* \"#utility.yul\":9578:9589   */\n      gt\n        /* \"#utility.yul\":9575:10021   */\n      iszero\n      tag_212\n      jumpi\n        /* \"#utility.yul\":9620:9658   */\n      tag_213\n        /* \"#utility.yul\":9652:9657   */\n      dup2\n        /* \"#utility.yul\":9620:9658   */\n      tag_87\n      jump\t// in\n    tag_213:\n        /* \"#utility.yul\":9704:9733   */\n      tag_214\n        /* \"#utility.yul\":9722:9732   */\n      dup5\n        /* \"#utility.yul\":9704:9733   */\n      tag_88\n      jump\t// in\n    tag_214:\n        /* \"#utility.yul\":9694:9702   */\n      dup2\n        /* \"#utility.yul\":9690:9734   */\n      add\n        /* \"#utility.yul\":9887:9889   */\n      0x20\n        /* \"#utility.yul\":9875:9885   */\n      dup6\n        /* \"#utility.yul\":9872:9890   */\n      lt\n        /* \"#utility.yul\":9869:9918   */\n      iszero\n      tag_215\n      jumpi\n        /* \"#utility.yul\":9908:9916   */\n      dup2\n        /* \"#utility.yul\":9893:9916   */\n      swap1\n      pop\n        /* \"#utility.yul\":9869:9918   */\n    tag_215:\n        /* \"#utility.yul\":9931:10011   */\n      tag_216\n        /* \"#utility.yul\":9987:10009   */\n      tag_217\n        /* \"#utility.yul\":10005:10008   */\n      dup6\n        /* \"#utility.yul\":9987:10009   */\n      tag_88\n      jump\t// in\n    tag_217:\n        /* \"#utility.yul\":9977:9985   */\n      dup4\n        /* \"#utility.yul\":9973:10010   */\n      add\n        /* \"#utility.yul\":9960:9971   */\n      dup3\n        /* \"#utility.yul\":9931:10011   */\n      tag_97\n      jump\t// in\n    tag_216:\n        /* \"#utility.yul\":9590:10021   */\n      pop\n      pop\n        /* \"#utility.yul\":9575:10021   */\n    tag_212:\n        /* \"#utility.yul\":9485:10028   */\n      pop\n      pop\n      pop\n      jump\t// out\n        /* \"#utility.yul\":10034:10151   */\n    tag_99:\n        /* \"#utility.yul\":10088:10096   */\n      0x00\n        /* \"#utility.yul\":10138:10143   */\n      dup3\n        /* \"#utility.yul\":10132:10136   */\n      dup3\n        /* \"#utility.yul\":10128:10144   */\n      shr\n        /* \"#utility.yul\":10107:10144   */\n      swap1\n      pop\n        /* \"#utility.yul\":10034:10151   */\n      swap3\n      swap2\n      pop\n      pop\n      jump\t// out\n        /* \"#utility.yul\":10157:10326   */\n    tag_100:\n        /* \"#utility.yul\":10201:10207   */\n      0x00\n        /* \"#utility.yul\":10234:10285   */\n      tag_220\n        /* \"#utility.yul\":10282:10283   */\n      0x00\n        /* \"#utility.yul\":10278:10284   */\n      not\n        /* \"#utility.yul\":10270:10275   */\n      dup5\n        /* \"#utility.yul\":10267:10268   */\n      0x08\n        /* \"#utility.yul\":10263:10276   */\n      mul\n        /* \"#utility.yul\":10234:10285   */\n      tag_99\n      jump\t// in\n    tag_220:\n        /* \"#utility.yul\":10230:10286   */\n      not\n        /* \"#utility.yul\":10315:10319   */\n      dup1\n        /* \"#utility.yul\":10309:10313   */\n      dup4\n        /* \"#utility.yul\":10305:10320   */\n      and\n        /* \"#utility.yul\":10295:10320   */\n      swap2\n      pop\n        /* \"#utility.yul\":10208:10326   */\n      pop\n        /* \"#utility.yul\":10157:10326   */\n      swap3\n      swap2\n      pop\n      pop\n      jump\t// out\n        /* \"#utility.yul\":10331:10626   */\n    tag_101:\n        /* \"#utility.yul\":10407:10411   */\n      0x00\n        /* \"#utility.yul\":10553:10582   */\n      tag_222\n        /* \"#utility.yul\":10578:10581   */\n      dup4\n        /* \"#utility.yul\":10572:10576   */\n      dup4\n        /* \"#utility.yul\":10553:10582   */\n      tag_100\n      jump\t// in\n    tag_222:\n        /* \"#utility.yul\":10545:10582   */\n      swap2\n      pop\n        /* \"#utility.yul\":10615:10618   */\n      dup3\n        /* \"#utility.yul\":10612:10613   */\n      0x02\n        /* \"#utility.yul\":10608:10619   */\n      mul\n        /* \"#utility.yul\":10602:10606   */\n      dup3\n        /* \"#utility.yul\":10599:10620   */\n      or\n        /* \"#utility.yul\":10591:10620   */\n      swap1\n      pop\n        /* \"#utility.yul\":10331:10626   */\n      swap3\n      swap2\n      pop\n      pop\n      jump\t// out\n        /* \"#utility.yul\":10631:12026   */\n    tag_59:\n        /* \"#utility.yul\":10748:10785   */\n      tag_224\n        /* \"#utility.yul\":10781:10784   */\n      dup3\n        /* \"#utility.yul\":10748:10785   */\n      tag_65\n      jump\t// in\n    tag_224:\n        /* \"#utility.yul\":10850:10868   */\n      0xffffffffffffffff\n        /* \"#utility.yul\":10842:10848   */\n      dup2\n        /* \"#utility.yul\":10839:10869   */\n      gt\n        /* \"#utility.yul\":10836:10892   */\n      iszero\n      tag_225\n      jumpi\n        /* \"#utility.yul\":10872:10890   */\n      tag_226\n      tag_77\n      jump\t// in\n    tag_226:\n        /* \"#utility.yul\":10836:10892   */\n    tag_225:\n        /* \"#utility.yul\":10916:10954   */\n      tag_227\n        /* \"#utility.yul\":10948:10952   */\n      dup3\n        /* \"#utility.yul\":10942:10953   */\n      sload\n        /* \"#utility.yul\":10916:10954   */\n      tag_42\n      jump\t// in\n    tag_227:\n        /* \"#utility.yul\":11001:11068   */\n      tag_228\n        /* \"#utility.yul\":11061:11067   */\n      dup3\n        /* \"#utility.yul\":11053:11059   */\n      dup3\n        /* \"#utility.yul\":11047:11051   */\n      dup6\n        /* \"#utility.yul\":11001:11068   */\n      tag_98\n      jump\t// in\n    tag_228:\n        /* \"#utility.yul\":11095:11096   */\n      0x00\n        /* \"#utility.yul\":11119:11123   */\n      0x20\n        /* \"#utility.yul\":11106:11123   */\n      swap1\n      pop\n        /* \"#utility.yul\":11151:11153   */\n      0x1f\n        /* \"#utility.yul\":11143:11149   */\n      dup4\n        /* \"#utility.yul\":11140:11154   */\n      gt\n        /* \"#utility.yul\":11168:11169   */\n      0x01\n        /* \"#utility.yul\":11163:11781   */\n      dup2\n      eq\n      tag_230\n      jumpi\n        /* \"#utility.yul\":11825:11826   */\n      0x00\n        /* \"#utility.yul\":11842:11848   */\n      dup5\n        /* \"#utility.yul\":11839:11916   */\n      iszero\n      tag_231\n      jumpi\n        /* \"#utility.yul\":11891:11900   */\n      dup3\n        /* \"#utility.yul\":11886:11889   */\n      dup8\n        /* \"#utility.yul\":11882:11901   */\n      add\n        /* \"#utility.yul\":11876:11902   */\n      mload\n        /* \"#utility.yul\":11867:11902   */\n      swap1\n      pop\n        /* \"#utility.yul\":11839:11916   */\n    tag_231:\n        /* \"#utility.yul\":11942:12009   */\n      tag_232\n        /* \"#utility.yul\":12002:12008   */\n      dup6\n        /* \"#utility.yul\":11995:12000   */\n      dup3\n        /* \"#utility.yul\":11942:12009   */\n      tag_101\n      jump\t// in\n    tag_232:\n        /* \"#utility.yul\":11936:11940   */\n      dup7\n        /* \"#utility.yul\":11929:12010   */\n      sstore\n        /* \"#utility.yul\":11798:12020   */\n      pop\n        /* \"#utility.yul\":11133:12020   */\n      jump(tag_229)\n        /* \"#utility.yul\":11163:11781   */\n    tag_230:\n        /* \"#utility.yul\":11215:11219   */\n      0x1f\n        /* \"#utility.yul\":11211:11220   */\n      not\n        /* \"#utility.yul\":11203:11209   */\n      dup5\n        /* \"#utility.yul\":11199:11221   */\n      and\n        /* \"#utility.yul\":11249:11286   */\n      tag_233\n        /* \"#utility.yul\":11281:11285   */\n      dup7\n        /* \"#utility.yul\":11249:11286   */\n      tag_87\n      jump\t// in\n    tag_233:\n        /* \"#utility.yul\":11308:11309   */\n      0x00\n        /* \"#utility.yul\":11322:11530   */\n    tag_234:\n        /* \"#utility.yul\":11336:11343   */\n      dup3\n        /* \"#utility.yul\":11333:11334   */\n      dup2\n        /* \"#utility.yul\":11330:11344   */\n      lt\n        /* \"#utility.yul\":11322:11530   */\n      iszero\n      tag_236\n      jumpi\n        /* \"#utility.yul\":11415:11424   */\n      dup5\n        /* \"#utility.yul\":11410:11413   */\n      dup10\n        /* \"#utility.yul\":11406:11425   */\n      add\n        /* \"#utility.yul\":11400:11426   */\n      mload\n        /* \"#utility.yul\":11392:11398   */\n      dup3\n        /* \"#utility.yul\":11385:11427   */\n      sstore\n        /* \"#utility.yul\":11466:11467   */\n      0x01\n        /* \"#utility.yul\":11458:11464   */\n      dup3\n        /* \"#utility.yul\":11454:11468   */\n      add\n        /* \"#utility.yul\":11444:11468   */\n      swap2\n      pop\n        /* \"#utility.yul\":11513:11515   */\n      0x20\n        /* \"#utility.yul\":11502:11511   */\n      dup6\n        /* \"#utility.yul\":11498:11516   */\n      add\n        /* \"#utility.yul\":11485:11516   */\n      swap5\n      pop\n        /* \"#utility.yul\":11359:11363   */\n      0x20\n        /* \"#utility.yul\":11356:11357   */\n      dup2\n        /* \"#utility.yul\":11352:11364   */\n      add\n        /* \"#utility.yul\":11347:11364   */\n      swap1\n      pop\n        /* \"#utility.yul\":11322:11530   */\n      jump(tag_234)\n    tag_236:\n        /* \"#utility.yul\":11558:11564   */\n      dup7\n        /* \"#utility.yul\":11549:11556   */\n      dup4\n        /* \"#utility.yul\":11546:11565   */\n      lt\n        /* \"#utility.yul\":11543:11722   */\n      iszero\n      tag_237\n      jumpi\n        /* \"#utility.yul\":11616:11625   */\n      dup5\n        /* \"#utility.yul\":11611:11614   */\n      dup10\n        /* \"#utility.yul\":11607:11626   */\n      add\n        /* \"#utility.yul\":11601:11627   */\n      mload\n        /* \"#utility.yul\":11659:11707   */\n      tag_238\n        /* \"#utility.yul\":11701:11705   */\n      0x1f\n        /* \"#utility.yul\":11693:11699   */\n      dup10\n        /* \"#utility.yul\":11689:11706   */\n      and\n        /* \"#utility.yul\":11678:11687   */\n      dup3\n        /* \"#utility.yul\":11659:11707   */\n      tag_100\n      jump\t// in\n    tag_238:\n        /* \"#utility.yul\":11651:11657   */\n      dup4\n        /* \"#utility.yul\":11644:11708   */\n      sstore\n        /* \"#utility.yul\":11566:11722   */\n      pop\n        /* \"#utility.yul\":11543:11722   */\n    tag_237:\n        /* \"#utility.yul\":11768:11769   */\n      0x01\n        /* \"#utility.yul\":11764:11765   */\n      0x02\n        /* \"#utility.yul\":11756:11762   */\n      dup9\n        /* \"#utility.yul\":11752:11766   */\n      mul\n        /* \"#utility.yul\":11748:11770   */\n      add\n        /* \"#utility.yul\":11742:11746   */\n      dup9\n        /* \"#utility.yul\":11735:11771   */\n      sstore\n        /* \"#utility.yul\":11170:11781   */\n      pop\n      pop\n      pop\n        /* \"#utility.yul\":11133:12020   */\n    tag_229:\n      pop\n        /* \"#utility.yul\":10723:12026   */\n      pop\n      pop\n      pop\n        /* \"#utility.yul\":10631:12026   */\n      pop\n      pop\n      jump\t// out\n        /* \"#utility.yul\":12032:12212   */\n    tag_102:\n        /* \"#utility.yul\":12080:12157   */\n      0x4e487b7100000000000000000000000000000000000000000000000000000000\n        /* \"#utility.yul\":12077:12078   */\n      0x00\n        /* \"#utility.yul\":12070:12158   */\n      mstore\n        /* \"#utility.yul\":12177:12181   */\n      0x11\n        /* \"#utility.yul\":12174:12175   */\n      0x04\n        /* \"#utility.yul\":12167:12182   */\n      mstore\n        /* \"#utility.yul\":12201:12205   */\n      0x24\n        /* \"#utility.yul\":12198:12199   */\n      0x00\n        /* \"#utility.yul\":12191:12206   */\n      revert\n        /* \"#utility.yul\":12218:12451   */\n    tag_62:\n        /* \"#utility.yul\":12257:12260   */\n      0x00\n        /* \"#utility.yul\":12280:12304   */\n      tag_241\n        /* \"#utility.yul\":12298:12303   */\n      dup3\n        /* \"#utility.yul\":12280:12304   */\n      tag_63\n      jump\t// in\n    tag_241:\n        /* \"#utility.yul\":12271:12304   */\n      swap2\n      pop\n        /* \"#utility.yul\":12326:12392   */\n      0xffffffffffffffffffffffffffffffffffffffffffffffffffffffffffffffff\n        /* \"#utility.yul\":12319:12324   */\n      dup3\n        /* \"#utility.yul\":12316:12393   */\n      sub\n        /* \"#utility.yul\":12313:12416   */\n      tag_242\n      jumpi\n        /* \"#utility.yul\":12396:12414   */\n      tag_243\n      tag_102\n      jump\t// in\n    tag_243:\n        /* \"#utility.yul\":12313:12416   */\n    tag_242:\n        /* \"#utility.yul\":12443:12444   */\n      0x01\n        /* \"#utility.yul\":12436:12441   */\n      dup3\n        /* \"#utility.yul\":12432:12445   */\n      add\n        /* \"#utility.yul\":12425:12445   */\n      swap1\n      pop\n        /* \"#utility.yul\":12218:12451   */\n      swap2\n      swap1\n      pop\n      jump\t// out\n\n    auxdata: 0xa264697066735822122099d290dbfa8966d742652f2c4ec68777770e9c2ab6e0a022b81a411f39bf0e1c64736f6c634300081a0033\n}\n",
				"bytecode": {
					"linkReferences": {},
					"object": "608060405260015f806101000a81548160ff021916908315150217905550736880607d4890dd9d1b9b90e66e2608d7de658ee060025f6101000a81548173ffffffffffffffffffffffffffffffffffffffff021916908373ffffffffffffffffffffffffffffffffffffffff1602179055507f74657874000000000000000000000000000000000000000000000000000000006003556040518060400160405280604581526020016040518060400160405280600581526020017f47686f756c00000000000000000000000000000000000000000000000000000081525081525060045f820151815f015560208201518160010190816100ff919061034d565b50505034801561010d575f80fd5b5061041c565b5f81519050919050565b7f4e487b71000000000000000000000000000000000000000000000000000000005f52604160045260245ffd5b7f4e487b71000000000000000000000000000000000000000000000000000000005f52602260045260245ffd5b5f600282049050600182168061018e57607f821691505b6020821081036101a1576101a061014a565b5b50919050565b5f819050815f5260205f209050919050565b5f6020601f8301049050919050565b5f82821b905092915050565b5f600883026102037fffffffffffffffffffffffffffffffffffffffffffffffffffffffffffffffff826101c8565b61020d86836101c8565b95508019841693508086168417925050509392505050565b5f819050919050565b5f819050919050565b5f61025161024c61024784610225565b61022e565b610225565b9050919050565b5f819050919050565b61026a83610237565b61027e61027682610258565b8484546101d4565b825550505050565b5f90565b610292610286565b61029d818484610261565b505050565b5b818110156102c0576102b55f8261028a565b6001810190506102a3565b5050565b601f821115610305576102d6816101a7565b6102df846101b9565b810160208510156102ee578190505b6103026102fa856101b9565b8301826102a2565b50505b505050565b5f82821c905092915050565b5f6103255f198460080261030a565b1980831691505092915050565b5f61033d8383610316565b9150826002028217905092915050565b61035682610113565b67ffffffffffffffff81111561036f5761036e61011d565b5b6103798254610177565b6103848282856102c4565b5f60209050601f8311600181146103b5575f84156103a3578287015190505b6103ad8582610332565b865550610414565b601f1984166103c3866101a7565b5f5b828110156103ea578489015182556001820191506020850194506020810190506103c5565b868310156104075784890151610403601f891682610316565b8355505b6001600288020188555050505b505050505050565b610a9d806104295f395ff3fe608060405234801561000f575f80fd5b506004361061007b575f3560e01c806371e5ee5f1161005957806371e5ee5f146100db5780637bd5989e1461010c578063bd821e5b14610128578063c9de10ff146101445761007b565b806319908de01461007f5780631b08d96f1461009d57806346cb59c2146100bc575b5f80fd5b610087610174565b60405161009491906103c9565b60405180910390f35b6100a561017a565b6040516100b39291906103e2565b60405180910390f35b6100c461018e565b6040516100d2929190610479565b60405180910390f35b6100f560048036038101906100f091906104e2565b610225565b604051610103929190610479565b60405180910390f35b61012660048036038101906101219190610639565b6102da565b005b610142600480360381019061013d91906104e2565b610363565b005b61015e60048036038101906101599190610693565b610384565b60405161016b91906103c9565b60405180910390f35b60015481565b5f805f604590506001548192509250509091565b6004805f0154908060010180546101a490610707565b80601f01602080910402602001604051908101604052809291908181526020018280546101d090610707565b801561021b5780601f106101f25761010080835404028352916020019161021b565b820191905f5260205f20905b8154815290600101906020018083116101fe57829003601f168201915b5050505050905082565b60078181548110610234575f80fd5b905f5260205f2090600202015f91509050805f01549080600101805461025990610707565b80601f016020809104026020016040519081016040528092919081815260200182805461028590610707565b80156102d05780601f106102a7576101008083540402835291602001916102d0565b820191905f5260205f20905b8154815290600101906020018083116102b357829003601f168201915b5050505050905082565b5f6040518060400160405280838152602001848152509050816006846040516103039190610771565b908152602001604051809103902081905550600781908060018154018082558091505060019003905f5260205f2090600202015f909190919091505f820151815f0155602082015181600101908161035b9190610924565b505050505050565b8060018190555060015f81548092919061037c90610a20565b919050555050565b6006818051602081018201805184825260208301602085012081835280955050505050505f915090505481565b5f819050919050565b6103c3816103b1565b82525050565b5f6020820190506103dc5f8301846103ba565b92915050565b5f6040820190506103f55f8301856103ba565b61040260208301846103ba565b9392505050565b5f81519050919050565b5f82825260208201905092915050565b8281835e5f83830152505050565b5f601f19601f8301169050919050565b5f61044b82610409565b6104558185610413565b9350610465818560208601610423565b61046e81610431565b840191505092915050565b5f60408201905061048c5f8301856103ba565b818103602083015261049e8184610441565b90509392505050565b5f604051905090565b5f80fd5b5f80fd5b6104c1816103b1565b81146104cb575f80fd5b50565b5f813590506104dc816104b8565b92915050565b5f602082840312156104f7576104f66104b0565b5b5f610504848285016104ce565b91505092915050565b5f80fd5b5f80fd5b7f4e487b71000000000000000000000000000000000000000000000000000000005f52604160045260245ffd5b61054b82610431565b810181811067ffffffffffffffff8211171561056a57610569610515565b5b80604052505050565b5f61057c6104a7565b90506105888282610542565b919050565b5f67ffffffffffffffff8211156105a7576105a6610515565b5b6105b082610431565b9050602081019050919050565b828183375f83830152505050565b5f6105dd6105d88461058d565b610573565b9050828152602081018484840111156105f9576105f8610511565b5b6106048482856105bd565b509392505050565b5f82601f8301126106205761061f61050d565b5b81356106308482602086016105cb565b91505092915050565b5f806040838503121561064f5761064e6104b0565b5b5f83013567ffffffffffffffff81111561066c5761066b6104b4565b5b6106788582860161060c565b9250506020610689858286016104ce565b9150509250929050565b5f602082840312156106a8576106a76104b0565b5b5f82013567ffffffffffffffff8111156106c5576106c46104b4565b5b6106d18482850161060c565b91505092915050565b7f4e487b71000000000000000000000000000000000000000000000000000000005f52602260045260245ffd5b5f600282049050600182168061071e57607f821691505b602082108103610731576107306106da565b5b50919050565b5f81905092915050565b5f61074b82610409565b6107558185610737565b9350610765818560208601610423565b80840191505092915050565b5f61077c8284610741565b915081905092915050565b5f819050815f5260205f209050919050565b5f6020601f8301049050919050565b5f82821b905092915050565b5f600883026107e37fffffffffffffffffffffffffffffffffffffffffffffffffffffffffffffffff826107a8565b6107ed86836107a8565b95508019841693508086168417925050509392505050565b5f819050919050565b5f61082861082361081e846103b1565b610805565b6103b1565b9050919050565b5f819050919050565b6108418361080e565b61085561084d8261082f565b8484546107b4565b825550505050565b5f90565b61086961085d565b610874818484610838565b505050565b5b818110156108975761088c5f82610861565b60018101905061087a565b5050565b601f8211156108dc576108ad81610787565b6108b684610799565b810160208510156108c5578190505b6108d96108d185610799565b830182610879565b50505b505050565b5f82821c905092915050565b5f6108fc5f19846008026108e1565b1980831691505092915050565b5f61091483836108ed565b9150826002028217905092915050565b61092d82610409565b67ffffffffffffffff81111561094657610945610515565b5b6109508254610707565b61095b82828561089b565b5f60209050601f83116001811461098c575f841561097a578287015190505b6109848582610909565b8655506109eb565b601f19841661099a86610787565b5f5b828110156109c15784890151825560018201915060208501945060208101905061099c565b868310156109de57848901516109da601f8916826108ed565b8355505b6001600288020188555050505b505050505050565b7f4e487b71000000000000000000000000000000000000000000000000000000005f52601160045260245ffd5b5f610a2a826103b1565b91507fffffffffffffffffffffffffffffffffffffffffffffffffffffffffffffffff8203610a5c57610a5b6109f3565b5b60018201905091905056fea264697066735822122099d290dbfa8966d742652f2c4ec68777770e9c2ab6e0a022b81a411f39bf0e1c64736f6c634300081a0033",
					"opcodes": "PUSH1 0x80 PUSH1 0x40 MSTORE PUSH1 0x1 PUSH0 DUP1 PUSH2 0x100 EXP DUP2 SLOAD DUP2 PUSH1 0xFF MUL NOT AND SWAP1 DUP4 ISZERO ISZERO MUL OR SWAP1 SSTORE POP PUSH20 0x6880607D4890DD9D1B9B90E66E2608D7DE658EE0 PUSH1 0x2 PUSH0 PUSH2 0x100 EXP DUP2 SLOAD DUP2 PUSH20 0xFFFFFFFFFFFFFFFFFFFFFFFFFFFFFFFFFFFFFFFF MUL NOT AND SWAP1 DUP4 PUSH20 0xFFFFFFFFFFFFFFFFFFFFFFFFFFFFFFFFFFFFFFFF AND MUL OR SWAP1 SSTORE POP PUSH32 0x7465787400000000000000000000000000000000000000000000000000000000 PUSH1 0x3 SSTORE PUSH1 0x40 MLOAD DUP1 PUSH1 0x40 ADD PUSH1 0x40 MSTORE DUP1 PUSH1 0x45 DUP2 MSTORE PUSH1 0x20 ADD PUSH1 0x40 MLOAD DUP1 PUSH1 0x40 ADD PUSH1 0x40 MSTORE DUP1 PUSH1 0x5 DUP2 MSTORE PUSH1 0x20 ADD PUSH32 0x47686F756C000000000000000000000000000000000000000000000000000000 DUP2 MSTORE POP DUP2 MSTORE POP PUSH1 0x4 PUSH0 DUP3 ADD MLOAD DUP2 PUSH0 ADD SSTORE PUSH1 0x20 DUP3 ADD MLOAD DUP2 PUSH1 0x1 ADD SWAP1 DUP2 PUSH2 0xFF SWAP2 SWAP1 PUSH2 0x34D JUMP JUMPDEST POP POP POP CALLVALUE DUP1 ISZERO PUSH2 0x10D JUMPI PUSH0 DUP1 REVERT JUMPDEST POP PUSH2 0x41C JUMP JUMPDEST PUSH0 DUP2 MLOAD SWAP1 POP SWAP2 SWAP1 POP JUMP JUMPDEST PUSH32 0x4E487B7100000000000000000000000000000000000000000000000000000000 PUSH0 MSTORE PUSH1 0x41 PUSH1 0x4 MSTORE PUSH1 0x24 PUSH0 REVERT JUMPDEST PUSH32 0x4E487B7100000000000000000000000000000000000000000000000000000000 PUSH0 MSTORE PUSH1 0x22 PUSH1 0x4 MSTORE PUSH1 0x24 PUSH0 REVERT JUMPDEST PUSH0 PUSH1 0x2 DUP3 DIV SWAP1 POP PUSH1 0x1 DUP3 AND DUP1 PUSH2 0x18E JUMPI PUSH1 0x7F DUP3 AND SWAP2 POP JUMPDEST PUSH1 0x20 DUP3 LT DUP2 SUB PUSH2 0x1A1 JUMPI PUSH2 0x1A0 PUSH2 0x14A JUMP JUMPDEST JUMPDEST POP SWAP2 SWAP1 POP JUMP JUMPDEST PUSH0 DUP2 SWAP1 POP DUP2 PUSH0 MSTORE PUSH1 0x20 PUSH0 KECCAK256 SWAP1 POP SWAP2 SWAP1 POP JUMP JUMPDEST PUSH0 PUSH1 0x20 PUSH1 0x1F DUP4 ADD DIV SWAP1 POP SWAP2 SWAP1 POP JUMP JUMPDEST PUSH0 DUP3 DUP3 SHL SWAP1 POP SWAP3 SWAP2 POP POP JUMP JUMPDEST PUSH0 PUSH1 0x8 DUP4 MUL PUSH2 0x203 PUSH32 0xFFFFFFFFFFFFFFFFFFFFFFFFFFFFFFFFFFFFFFFFFFFFFFFFFFFFFFFFFFFFFFFF DUP3 PUSH2 0x1C8 JUMP JUMPDEST PUSH2 0x20D DUP7 DUP4 PUSH2 0x1C8 JUMP JUMPDEST SWAP6 POP DUP1 NOT DUP5 AND SWAP4 POP DUP1 DUP7 AND DUP5 OR SWAP3 POP POP POP SWAP4 SWAP3 POP POP POP JUMP JUMPDEST PUSH0 DUP2 SWAP1 POP SWAP2 SWAP1 POP JUMP JUMPDEST PUSH0 DUP2 SWAP1 POP SWAP2 SWAP1 POP JUMP JUMPDEST PUSH0 PUSH2 0x251 PUSH2 0x24C PUSH2 0x247 DUP5 PUSH2 0x225 JUMP JUMPDEST PUSH2 0x22E JUMP JUMPDEST PUSH2 0x225 JUMP JUMPDEST SWAP1 POP SWAP2 SWAP1 POP JUMP JUMPDEST PUSH0 DUP2 SWAP1 POP SWAP2 SWAP1 POP JUMP JUMPDEST PUSH2 0x26A DUP4 PUSH2 0x237 JUMP JUMPDEST PUSH2 0x27E PUSH2 0x276 DUP3 PUSH2 0x258 JUMP JUMPDEST DUP5 DUP5 SLOAD PUSH2 0x1D4 JUMP JUMPDEST DUP3 SSTORE POP POP POP POP JUMP JUMPDEST PUSH0 SWAP1 JUMP JUMPDEST PUSH2 0x292 PUSH2 0x286 JUMP JUMPDEST PUSH2 0x29D DUP2 DUP5 DUP5 PUSH2 0x261 JUMP JUMPDEST POP POP POP JUMP JUMPDEST JUMPDEST DUP2 DUP2 LT ISZERO PUSH2 0x2C0 JUMPI PUSH2 0x2B5 PUSH0 DUP3 PUSH2 0x28A JUMP JUMPDEST PUSH1 0x1 DUP2 ADD SWAP1 POP PUSH2 0x2A3 JUMP JUMPDEST POP POP JUMP JUMPDEST PUSH1 0x1F DUP3 GT ISZERO PUSH2 0x305 JUMPI PUSH2 0x2D6 DUP2 PUSH2 0x1A7 JUMP JUMPDEST PUSH2 0x2DF DUP5 PUSH2 0x1B9 JUMP JUMPDEST DUP2 ADD PUSH1 0x20 DUP6 LT ISZERO PUSH2 0x2EE JUMPI DUP2 SWAP1 POP JUMPDEST PUSH2 0x302 PUSH2 0x2FA DUP6 PUSH2 0x1B9 JUMP JUMPDEST DUP4 ADD DUP3 PUSH2 0x2A2 JUMP JUMPDEST POP POP JUMPDEST POP POP POP JUMP JUMPDEST PUSH0 DUP3 DUP3 SHR SWAP1 POP SWAP3 SWAP2 POP POP JUMP JUMPDEST PUSH0 PUSH2 0x325 PUSH0 NOT DUP5 PUSH1 0x8 MUL PUSH2 0x30A JUMP JUMPDEST NOT DUP1 DUP4 AND SWAP2 POP POP SWAP3 SWAP2 POP POP JUMP JUMPDEST PUSH0 PUSH2 0x33D DUP4 DUP4 PUSH2 0x316 JUMP JUMPDEST SWAP2 POP DUP3 PUSH1 0x2 MUL DUP3 OR SWAP1 POP SWAP3 SWAP2 POP POP JUMP JUMPDEST PUSH2 0x356 DUP3 PUSH2 0x113 JUMP JUMPDEST PUSH8 0xFFFFFFFFFFFFFFFF DUP2 GT ISZERO PUSH2 0x36F JUMPI PUSH2 0x36E PUSH2 0x11D JUMP JUMPDEST JUMPDEST PUSH2 0x379 DUP3 SLOAD PUSH2 0x177 JUMP JUMPDEST PUSH2 0x384 DUP3 DUP3 DUP6 PUSH2 0x2C4 JUMP JUMPDEST PUSH0 PUSH1 0x20 SWAP1 POP PUSH1 0x1F DUP4 GT PUSH1 0x1 DUP2 EQ PUSH2 0x3B5 JUMPI PUSH0 DUP5 ISZERO PUSH2 0x3A3 JUMPI DUP3 DUP8 ADD MLOAD SWAP1 POP JUMPDEST PUSH2 0x3AD DUP6 DUP3 PUSH2 0x332 JUMP JUMPDEST DUP7 SSTORE POP PUSH2 0x414 JUMP JUMPDEST PUSH1 0x1F NOT DUP5 AND PUSH2 0x3C3 DUP7 PUSH2 0x1A7 JUMP JUMPDEST PUSH0 JUMPDEST DUP3 DUP2 LT ISZERO PUSH2 0x3EA JUMPI DUP5 DUP10 ADD MLOAD DUP3 SSTORE PUSH1 0x1 DUP3 ADD SWAP2 POP PUSH1 0x20 DUP6 ADD SWAP5 POP PUSH1 0x20 DUP2 ADD SWAP1 POP PUSH2 0x3C5 JUMP JUMPDEST DUP7 DUP4 LT ISZERO PUSH2 0x407 JUMPI DUP5 DUP10 ADD MLOAD PUSH2 0x403 PUSH1 0x1F DUP10 AND DUP3 PUSH2 0x316 JUMP JUMPDEST DUP4 SSTORE POP JUMPDEST PUSH1 0x1 PUSH1 0x2 DUP9 MUL ADD DUP9 SSTORE POP POP POP JUMPDEST POP POP POP POP POP POP JUMP JUMPDEST PUSH2 0xA9D DUP1 PUSH2 0x429 PUSH0 CODECOPY PUSH0 RETURN INVALID PUSH1 0x80 PUSH1 0x40 MSTORE CALLVALUE DUP1 ISZERO PUSH2 0xF JUMPI PUSH0 DUP1 REVERT JUMPDEST POP PUSH1 0x4 CALLDATASIZE LT PUSH2 0x7B JUMPI PUSH0 CALLDATALOAD PUSH1 0xE0 SHR DUP1 PUSH4 0x71E5EE5F GT PUSH2 0x59 JUMPI DUP1 PUSH4 0x71E5EE5F EQ PUSH2 0xDB JUMPI DUP1 PUSH4 0x7BD5989E EQ PUSH2 0x10C JUMPI DUP1 PUSH4 0xBD821E5B EQ PUSH2 0x128 JUMPI DUP1 PUSH4 0xC9DE10FF EQ PUSH2 0x144 JUMPI PUSH2 0x7B JUMP JUMPDEST DUP1 PUSH4 0x19908DE0 EQ PUSH2 0x7F JUMPI DUP1 PUSH4 0x1B08D96F EQ PUSH2 0x9D JUMPI DUP1 PUSH4 0x46CB59C2 EQ PUSH2 0xBC JUMPI JUMPDEST PUSH0 DUP1 REVERT JUMPDEST PUSH2 0x87 PUSH2 0x174 JUMP JUMPDEST PUSH1 0x40 MLOAD PUSH2 0x94 SWAP2 SWAP1 PUSH2 0x3C9 JUMP JUMPDEST PUSH1 0x40 MLOAD DUP1 SWAP2 SUB SWAP1 RETURN JUMPDEST PUSH2 0xA5 PUSH2 0x17A JUMP JUMPDEST PUSH1 0x40 MLOAD PUSH2 0xB3 SWAP3 SWAP2 SWAP1 PUSH2 0x3E2 JUMP JUMPDEST PUSH1 0x40 MLOAD DUP1 SWAP2 SUB SWAP1 RETURN JUMPDEST PUSH2 0xC4 PUSH2 0x18E JUMP JUMPDEST PUSH1 0x40 MLOAD PUSH2 0xD2 SWAP3 SWAP2 SWAP1 PUSH2 0x479 JUMP JUMPDEST PUSH1 0x40 MLOAD DUP1 SWAP2 SUB SWAP1 RETURN JUMPDEST PUSH2 0xF5 PUSH1 0x4 DUP1 CALLDATASIZE SUB DUP2 ADD SWAP1 PUSH2 0xF0 SWAP2 SWAP1 PUSH2 0x4E2 JUMP JUMPDEST PUSH2 0x225 JUMP JUMPDEST PUSH1 0x40 MLOAD PUSH2 0x103 SWAP3 SWAP2 SWAP1 PUSH2 0x479 JUMP JUMPDEST PUSH1 0x40 MLOAD DUP1 SWAP2 SUB SWAP1 RETURN JUMPDEST PUSH2 0x126 PUSH1 0x4 DUP1 CALLDATASIZE SUB DUP2 ADD SWAP1 PUSH2 0x121 SWAP2 SWAP1 PUSH2 0x639 JUMP JUMPDEST PUSH2 0x2DA JUMP JUMPDEST STOP JUMPDEST PUSH2 0x142 PUSH1 0x4 DUP1 CALLDATASIZE SUB DUP2 ADD SWAP1 PUSH2 0x13D SWAP2 SWAP1 PUSH2 0x4E2 JUMP JUMPDEST PUSH2 0x363 JUMP JUMPDEST STOP JUMPDEST PUSH2 0x15E PUSH1 0x4 DUP1 CALLDATASIZE SUB DUP2 ADD SWAP1 PUSH2 0x159 SWAP2 SWAP1 PUSH2 0x693 JUMP JUMPDEST PUSH2 0x384 JUMP JUMPDEST PUSH1 0x40 MLOAD PUSH2 0x16B SWAP2 SWAP1 PUSH2 0x3C9 JUMP JUMPDEST PUSH1 0x40 MLOAD DUP1 SWAP2 SUB SWAP1 RETURN JUMPDEST PUSH1 0x1 SLOAD DUP2 JUMP JUMPDEST PUSH0 DUP1 PUSH0 PUSH1 0x45 SWAP1 POP PUSH1 0x1 SLOAD DUP2 SWAP3 POP SWAP3 POP POP SWAP1 SWAP2 JUMP JUMPDEST PUSH1 0x4 DUP1 PUSH0 ADD SLOAD SWAP1 DUP1 PUSH1 0x1 ADD DUP1 SLOAD PUSH2 0x1A4 SWAP1 PUSH2 0x707 JUMP JUMPDEST DUP1 PUSH1 0x1F ADD PUSH1 0x20 DUP1 SWAP2 DIV MUL PUSH1 0x20 ADD PUSH1 0x40 MLOAD SWAP1 DUP2 ADD PUSH1 0x40 MSTORE DUP1 SWAP3 SWAP2 SWAP1 DUP2 DUP2 MSTORE PUSH1 0x20 ADD DUP3 DUP1 SLOAD PUSH2 0x1D0 SWAP1 PUSH2 0x707 JUMP JUMPDEST DUP1 ISZERO PUSH2 0x21B JUMPI DUP1 PUSH1 0x1F LT PUSH2 0x1F2 JUMPI PUSH2 0x100 DUP1 DUP4 SLOAD DIV MUL DUP4 MSTORE SWAP2 PUSH1 0x20 ADD SWAP2 PUSH2 0x21B JUMP JUMPDEST DUP3 ADD SWAP2 SWAP1 PUSH0 MSTORE PUSH1 0x20 PUSH0 KECCAK256 SWAP1 JUMPDEST DUP2 SLOAD DUP2 MSTORE SWAP1 PUSH1 0x1 ADD SWAP1 PUSH1 0x20 ADD DUP1 DUP4 GT PUSH2 0x1FE JUMPI DUP3 SWAP1 SUB PUSH1 0x1F AND DUP3 ADD SWAP2 JUMPDEST POP POP POP POP POP SWAP1 POP DUP3 JUMP JUMPDEST PUSH1 0x7 DUP2 DUP2 SLOAD DUP2 LT PUSH2 0x234 JUMPI PUSH0 DUP1 REVERT JUMPDEST SWAP1 PUSH0 MSTORE PUSH1 0x20 PUSH0 KECCAK256 SWAP1 PUSH1 0x2 MUL ADD PUSH0 SWAP2 POP SWAP1 POP DUP1 PUSH0 ADD SLOAD SWAP1 DUP1 PUSH1 0x1 ADD DUP1 SLOAD PUSH2 0x259 SWAP1 PUSH2 0x707 JUMP JUMPDEST DUP1 PUSH1 0x1F ADD PUSH1 0x20 DUP1 SWAP2 DIV MUL PUSH1 0x20 ADD PUSH1 0x40 MLOAD SWAP1 DUP2 ADD PUSH1 0x40 MSTORE DUP1 SWAP3 SWAP2 SWAP1 DUP2 DUP2 MSTORE PUSH1 0x20 ADD DUP3 DUP1 SLOAD PUSH2 0x285 SWAP1 PUSH2 0x707 JUMP JUMPDEST DUP1 ISZERO PUSH2 0x2D0 JUMPI DUP1 PUSH1 0x1F LT PUSH2 0x2A7 JUMPI PUSH2 0x100 DUP1 DUP4 SLOAD DIV MUL DUP4 MSTORE SWAP2 PUSH1 0x20 ADD SWAP2 PUSH2 0x2D0 JUMP JUMPDEST DUP3 ADD SWAP2 SWAP1 PUSH0 MSTORE PUSH1 0x20 PUSH0 KECCAK256 SWAP1 JUMPDEST DUP2 SLOAD DUP2 MSTORE SWAP1 PUSH1 0x1 ADD SWAP1 PUSH1 0x20 ADD DUP1 DUP4 GT PUSH2 0x2B3 JUMPI DUP3 SWAP1 SUB PUSH1 0x1F AND DUP3 ADD SWAP2 JUMPDEST POP POP POP POP POP SWAP1 POP DUP3 JUMP JUMPDEST PUSH0 PUSH1 0x40 MLOAD DUP1 PUSH1 0x40 ADD PUSH1 0x40 MSTORE DUP1 DUP4 DUP2 MSTORE PUSH1 0x20 ADD DUP5 DUP2 MSTORE POP SWAP1 POP DUP2 PUSH1 0x6 DUP5 PUSH1 0x40 MLOAD PUSH2 0x303 SWAP2 SWAP1 PUSH2 0x771 JUMP JUMPDEST SWAP1 DUP2 MSTORE PUSH1 0x20 ADD PUSH1 0x40 MLOAD DUP1 SWAP2 SUB SWAP1 KECCAK256 DUP2 SWAP1 SSTORE POP PUSH1 0x7 DUP2 SWAP1 DUP1 PUSH1 0x1 DUP2 SLOAD ADD DUP1 DUP3 SSTORE DUP1 SWAP2 POP POP PUSH1 0x1 SWAP1 SUB SWAP1 PUSH0 MSTORE PUSH1 0x20 PUSH0 KECCAK256 SWAP1 PUSH1 0x2 MUL ADD PUSH0 SWAP1 SWAP2 SWAP1 SWAP2 SWAP1 SWAP2 POP PUSH0 DUP3 ADD MLOAD DUP2 PUSH0 ADD SSTORE PUSH1 0x20 DUP3 ADD MLOAD DUP2 PUSH1 0x1 ADD SWAP1 DUP2 PUSH2 0x35B SWAP2 SWAP1 PUSH2 0x924 JUMP JUMPDEST POP POP POP POP POP POP JUMP JUMPDEST DUP1 PUSH1 0x1 DUP2 SWAP1 SSTORE POP PUSH1 0x1 PUSH0 DUP2 SLOAD DUP1 SWAP3 SWAP2 SWAP1 PUSH2 0x37C SWAP1 PUSH2 0xA20 JUMP JUMPDEST SWAP2 SWAP1 POP SSTORE POP POP JUMP JUMPDEST PUSH1 0x6 DUP2 DUP1 MLOAD PUSH1 0x20 DUP2 ADD DUP3 ADD DUP1 MLOAD DUP5 DUP3 MSTORE PUSH1 0x20 DUP4 ADD PUSH1 0x20 DUP6 ADD KECCAK256 DUP2 DUP4 MSTORE DUP1 SWAP6 POP POP POP POP POP POP PUSH0 SWAP2 POP SWAP1 POP SLOAD DUP2 JUMP JUMPDEST PUSH0 DUP2 SWAP1 POP SWAP2 SWAP1 POP JUMP JUMPDEST PUSH2 0x3C3 DUP2 PUSH2 0x3B1 JUMP JUMPDEST DUP3 MSTORE POP POP JUMP JUMPDEST PUSH0 PUSH1 0x20 DUP3 ADD SWAP1 POP PUSH2 0x3DC PUSH0 DUP4 ADD DUP5 PUSH2 0x3BA JUMP JUMPDEST SWAP3 SWAP2 POP POP JUMP JUMPDEST PUSH0 PUSH1 0x40 DUP3 ADD SWAP1 POP PUSH2 0x3F5 PUSH0 DUP4 ADD DUP6 PUSH2 0x3BA JUMP JUMPDEST PUSH2 0x402 PUSH1 0x20 DUP4 ADD DUP5 PUSH2 0x3BA JUMP JUMPDEST SWAP4 SWAP3 POP POP POP JUMP JUMPDEST PUSH0 DUP2 MLOAD SWAP1 POP SWAP2 SWAP1 POP JUMP JUMPDEST PUSH0 DUP3 DUP3 MSTORE PUSH1 0x20 DUP3 ADD SWAP1 POP SWAP3 SWAP2 POP POP JUMP JUMPDEST DUP3 DUP2 DUP4 MCOPY PUSH0 DUP4 DUP4 ADD MSTORE POP POP POP JUMP JUMPDEST PUSH0 PUSH1 0x1F NOT PUSH1 0x1F DUP4 ADD AND SWAP1 POP SWAP2 SWAP1 POP JUMP JUMPDEST PUSH0 PUSH2 0x44B DUP3 PUSH2 0x409 JUMP JUMPDEST PUSH2 0x455 DUP2 DUP6 PUSH2 0x413 JUMP JUMPDEST SWAP4 POP PUSH2 0x465 DUP2 DUP6 PUSH1 0x20 DUP7 ADD PUSH2 0x423 JUMP JUMPDEST PUSH2 0x46E DUP2 PUSH2 0x431 JUMP JUMPDEST DUP5 ADD SWAP2 POP POP SWAP3 SWAP2 POP POP JUMP JUMPDEST PUSH0 PUSH1 0x40 DUP3 ADD SWAP1 POP PUSH2 0x48C PUSH0 DUP4 ADD DUP6 PUSH2 0x3BA JUMP JUMPDEST DUP2 DUP2 SUB PUSH1 0x20 DUP4 ADD MSTORE PUSH2 0x49E DUP2 DUP5 PUSH2 0x441 JUMP JUMPDEST SWAP1 POP SWAP4 SWAP3 POP POP POP JUMP JUMPDEST PUSH0 PUSH1 0x40 MLOAD SWAP1 POP SWAP1 JUMP JUMPDEST PUSH0 DUP1 REVERT JUMPDEST PUSH0 DUP1 REVERT JUMPDEST PUSH2 0x4C1 DUP2 PUSH2 0x3B1 JUMP JUMPDEST DUP2 EQ PUSH2 0x4CB JUMPI PUSH0 DUP1 REVERT JUMPDEST POP JUMP JUMPDEST PUSH0 DUP2 CALLDATALOAD SWAP1 POP PUSH2 0x4DC DUP2 PUSH2 0x4B8 JUMP JUMPDEST SWAP3 SWAP2 POP POP JUMP JUMPDEST PUSH0 PUSH1 0x20 DUP3 DUP5 SUB SLT ISZERO PUSH2 0x4F7 JUMPI PUSH2 0x4F6 PUSH2 0x4B0 JUMP JUMPDEST JUMPDEST PUSH0 PUSH2 0x504 DUP5 DUP3 DUP6 ADD PUSH2 0x4CE JUMP JUMPDEST SWAP2 POP POP SWAP3 SWAP2 POP POP JUMP JUMPDEST PUSH0 DUP1 REVERT JUMPDEST PUSH0 DUP1 REVERT JUMPDEST PUSH32 0x4E487B7100000000000000000000000000000000000000000000000000000000 PUSH0 MSTORE PUSH1 0x41 PUSH1 0x4 MSTORE PUSH1 0x24 PUSH0 REVERT JUMPDEST PUSH2 0x54B DUP3 PUSH2 0x431 JUMP JUMPDEST DUP2 ADD DUP2 DUP2 LT PUSH8 0xFFFFFFFFFFFFFFFF DUP3 GT OR ISZERO PUSH2 0x56A JUMPI PUSH2 0x569 PUSH2 0x515 JUMP JUMPDEST JUMPDEST DUP1 PUSH1 0x40 MSTORE POP POP POP JUMP JUMPDEST PUSH0 PUSH2 0x57C PUSH2 0x4A7 JUMP JUMPDEST SWAP1 POP PUSH2 0x588 DUP3 DUP3 PUSH2 0x542 JUMP JUMPDEST SWAP2 SWAP1 POP JUMP JUMPDEST PUSH0 PUSH8 0xFFFFFFFFFFFFFFFF DUP3 GT ISZERO PUSH2 0x5A7 JUMPI PUSH2 0x5A6 PUSH2 0x515 JUMP JUMPDEST JUMPDEST PUSH2 0x5B0 DUP3 PUSH2 0x431 JUMP JUMPDEST SWAP1 POP PUSH1 0x20 DUP2 ADD SWAP1 POP SWAP2 SWAP1 POP JUMP JUMPDEST DUP3 DUP2 DUP4 CALLDATACOPY PUSH0 DUP4 DUP4 ADD MSTORE POP POP POP JUMP JUMPDEST PUSH0 PUSH2 0x5DD PUSH2 0x5D8 DUP5 PUSH2 0x58D JUMP JUMPDEST PUSH2 0x573 JUMP JUMPDEST SWAP1 POP DUP3 DUP2 MSTORE PUSH1 0x20 DUP2 ADD DUP5 DUP5 DUP5 ADD GT ISZERO PUSH2 0x5F9 JUMPI PUSH2 0x5F8 PUSH2 0x511 JUMP JUMPDEST JUMPDEST PUSH2 0x604 DUP5 DUP3 DUP6 PUSH2 0x5BD JUMP JUMPDEST POP SWAP4 SWAP3 POP POP POP JUMP JUMPDEST PUSH0 DUP3 PUSH1 0x1F DUP4 ADD SLT PUSH2 0x620 JUMPI PUSH2 0x61F PUSH2 0x50D JUMP JUMPDEST JUMPDEST DUP2 CALLDATALOAD PUSH2 0x630 DUP5 DUP3 PUSH1 0x20 DUP7 ADD PUSH2 0x5CB JUMP JUMPDEST SWAP2 POP POP SWAP3 SWAP2 POP POP JUMP JUMPDEST PUSH0 DUP1 PUSH1 0x40 DUP4 DUP6 SUB SLT ISZERO PUSH2 0x64F JUMPI PUSH2 0x64E PUSH2 0x4B0 JUMP JUMPDEST JUMPDEST PUSH0 DUP4 ADD CALLDATALOAD PUSH8 0xFFFFFFFFFFFFFFFF DUP2 GT ISZERO PUSH2 0x66C JUMPI PUSH2 0x66B PUSH2 0x4B4 JUMP JUMPDEST JUMPDEST PUSH2 0x678 DUP6 DUP3 DUP7 ADD PUSH2 0x60C JUMP JUMPDEST SWAP3 POP POP PUSH1 0x20 PUSH2 0x689 DUP6 DUP3 DUP7 ADD PUSH2 0x4CE JUMP JUMPDEST SWAP2 POP POP SWAP3 POP SWAP3 SWAP1 POP JUMP JUMPDEST PUSH0 PUSH1 0x20 DUP3 DUP5 SUB SLT ISZERO PUSH2 0x6A8 JUMPI PUSH2 0x6A7 PUSH2 0x4B0 JUMP JUMPDEST JUMPDEST PUSH0 DUP3 ADD CALLDATALOAD PUSH8 0xFFFFFFFFFFFFFFFF DUP2 GT ISZERO PUSH2 0x6C5 JUMPI PUSH2 0x6C4 PUSH2 0x4B4 JUMP JUMPDEST JUMPDEST PUSH2 0x6D1 DUP5 DUP3 DUP6 ADD PUSH2 0x60C JUMP JUMPDEST SWAP2 POP POP SWAP3 SWAP2 POP POP JUMP JUMPDEST PUSH32 0x4E487B7100000000000000000000000000000000000000000000000000000000 PUSH0 MSTORE PUSH1 0x22 PUSH1 0x4 MSTORE PUSH1 0x24 PUSH0 REVERT JUMPDEST PUSH0 PUSH1 0x2 DUP3 DIV SWAP1 POP PUSH1 0x1 DUP3 AND DUP1 PUSH2 0x71E JUMPI PUSH1 0x7F DUP3 AND SWAP2 POP JUMPDEST PUSH1 0x20 DUP3 LT DUP2 SUB PUSH2 0x731 JUMPI PUSH2 0x730 PUSH2 0x6DA JUMP JUMPDEST JUMPDEST POP SWAP2 SWAP1 POP JUMP JUMPDEST PUSH0 DUP2 SWAP1 POP SWAP3 SWAP2 POP POP JUMP JUMPDEST PUSH0 PUSH2 0x74B DUP3 PUSH2 0x409 JUMP JUMPDEST PUSH2 0x755 DUP2 DUP6 PUSH2 0x737 JUMP JUMPDEST SWAP4 POP PUSH2 0x765 DUP2 DUP6 PUSH1 0x20 DUP7 ADD PUSH2 0x423 JUMP JUMPDEST DUP1 DUP5 ADD SWAP2 POP POP SWAP3 SWAP2 POP POP JUMP JUMPDEST PUSH0 PUSH2 0x77C DUP3 DUP5 PUSH2 0x741 JUMP JUMPDEST SWAP2 POP DUP2 SWAP1 POP SWAP3 SWAP2 POP POP JUMP JUMPDEST PUSH0 DUP2 SWAP1 POP DUP2 PUSH0 MSTORE PUSH1 0x20 PUSH0 KECCAK256 SWAP1 POP SWAP2 SWAP1 POP JUMP JUMPDEST PUSH0 PUSH1 0x20 PUSH1 0x1F DUP4 ADD DIV SWAP1 POP SWAP2 SWAP1 POP JUMP JUMPDEST PUSH0 DUP3 DUP3 SHL SWAP1 POP SWAP3 SWAP2 POP POP JUMP JUMPDEST PUSH0 PUSH1 0x8 DUP4 MUL PUSH2 0x7E3 PUSH32 0xFFFFFFFFFFFFFFFFFFFFFFFFFFFFFFFFFFFFFFFFFFFFFFFFFFFFFFFFFFFFFFFF DUP3 PUSH2 0x7A8 JUMP JUMPDEST PUSH2 0x7ED DUP7 DUP4 PUSH2 0x7A8 JUMP JUMPDEST SWAP6 POP DUP1 NOT DUP5 AND SWAP4 POP DUP1 DUP7 AND DUP5 OR SWAP3 POP POP POP SWAP4 SWAP3 POP POP POP JUMP JUMPDEST PUSH0 DUP2 SWAP1 POP SWAP2 SWAP1 POP JUMP JUMPDEST PUSH0 PUSH2 0x828 PUSH2 0x823 PUSH2 0x81E DUP5 PUSH2 0x3B1 JUMP JUMPDEST PUSH2 0x805 JUMP JUMPDEST PUSH2 0x3B1 JUMP JUMPDEST SWAP1 POP SWAP2 SWAP1 POP JUMP JUMPDEST PUSH0 DUP2 SWAP1 POP SWAP2 SWAP1 POP JUMP JUMPDEST PUSH2 0x841 DUP4 PUSH2 0x80E JUMP JUMPDEST PUSH2 0x855 PUSH2 0x84D DUP3 PUSH2 0x82F JUMP JUMPDEST DUP5 DUP5 SLOAD PUSH2 0x7B4 JUMP JUMPDEST DUP3 SSTORE POP POP POP POP JUMP JUMPDEST PUSH0 SWAP1 JUMP JUMPDEST PUSH2 0x869 PUSH2 0x85D JUMP JUMPDEST PUSH2 0x874 DUP2 DUP5 DUP5 PUSH2 0x838 JUMP JUMPDEST POP POP POP JUMP JUMPDEST JUMPDEST DUP2 DUP2 LT ISZERO PUSH2 0x897 JUMPI PUSH2 0x88C PUSH0 DUP3 PUSH2 0x861 JUMP JUMPDEST PUSH1 0x1 DUP2 ADD SWAP1 POP PUSH2 0x87A JUMP JUMPDEST POP POP JUMP JUMPDEST PUSH1 0x1F DUP3 GT ISZERO PUSH2 0x8DC JUMPI PUSH2 0x8AD DUP2 PUSH2 0x787 JUMP JUMPDEST PUSH2 0x8B6 DUP5 PUSH2 0x799 JUMP JUMPDEST DUP2 ADD PUSH1 0x20 DUP6 LT ISZERO PUSH2 0x8C5 JUMPI DUP2 SWAP1 POP JUMPDEST PUSH2 0x8D9 PUSH2 0x8D1 DUP6 PUSH2 0x799 JUMP JUMPDEST DUP4 ADD DUP3 PUSH2 0x879 JUMP JUMPDEST POP POP JUMPDEST POP POP POP JUMP JUMPDEST PUSH0 DUP3 DUP3 SHR SWAP1 POP SWAP3 SWAP2 POP POP JUMP JUMPDEST PUSH0 PUSH2 0x8FC PUSH0 NOT DUP5 PUSH1 0x8 MUL PUSH2 0x8E1 JUMP JUMPDEST NOT DUP1 DUP4 AND SWAP2 POP POP SWAP3 SWAP2 POP POP JUMP JUMPDEST PUSH0 PUSH2 0x914 DUP4 DUP4 PUSH2 0x8ED JUMP JUMPDEST SWAP2 POP DUP3 PUSH1 0x2 MUL DUP3 OR SWAP1 POP SWAP3 SWAP2 POP POP JUMP JUMPDEST PUSH2 0x92D DUP3 PUSH2 0x409 JUMP JUMPDEST PUSH8 0xFFFFFFFFFFFFFFFF DUP2 GT ISZERO PUSH2 0x946 JUMPI PUSH2 0x945 PUSH2 0x515 JUMP JUMPDEST JUMPDEST PUSH2 0x950 DUP3 SLOAD PUSH2 0x707 JUMP JUMPDEST PUSH2 0x95B DUP3 DUP3 DUP6 PUSH2 0x89B JUMP JUMPDEST PUSH0 PUSH1 0x20 SWAP1 POP PUSH1 0x1F DUP4 GT PUSH1 0x1 DUP2 EQ PUSH2 0x98C JUMPI PUSH0 DUP5 ISZERO PUSH2 0x97A JUMPI DUP3 DUP8 ADD MLOAD SWAP1 POP JUMPDEST PUSH2 0x984 DUP6 DUP3 PUSH2 0x909 JUMP JUMPDEST DUP7 SSTORE POP PUSH2 0x9EB JUMP JUMPDEST PUSH1 0x1F NOT DUP5 AND PUSH2 0x99A DUP7 PUSH2 0x787 JUMP JUMPDEST PUSH0 JUMPDEST DUP3 DUP2 LT ISZERO PUSH2 0x9C1 JUMPI DUP5 DUP10 ADD MLOAD DUP3 SSTORE PUSH1 0x1 DUP3 ADD SWAP2 POP PUSH1 0x20 DUP6 ADD SWAP5 POP PUSH1 0x20 DUP2 ADD SWAP1 POP PUSH2 0x99C JUMP JUMPDEST DUP7 DUP4 LT ISZERO PUSH2 0x9DE JUMPI DUP5 DUP10 ADD MLOAD PUSH2 0x9DA PUSH1 0x1F DUP10 AND DUP3 PUSH2 0x8ED JUMP JUMPDEST DUP4 SSTORE POP JUMPDEST PUSH1 0x1 PUSH1 0x2 DUP9 MUL ADD DUP9 SSTORE POP POP POP JUMPDEST POP POP POP POP POP POP JUMP JUMPDEST PUSH32 0x4E487B7100000000000000000000000000000000000000000000000000000000 PUSH0 MSTORE PUSH1 0x11 PUSH1 0x4 MSTORE PUSH1 0x24 PUSH0 REVERT JUMPDEST PUSH0 PUSH2 0xA2A DUP3 PUSH2 0x3B1 JUMP JUMPDEST SWAP2 POP PUSH32 0xFFFFFFFFFFFFFFFFFFFFFFFFFFFFFFFFFFFFFFFFFFFFFFFFFFFFFFFFFFFFFFFF DUP3 SUB PUSH2 0xA5C JUMPI PUSH2 0xA5B PUSH2 0x9F3 JUMP JUMPDEST JUMPDEST PUSH1 0x1 DUP3 ADD SWAP1 POP SWAP2 SWAP1 POP JUMP INVALID LOG2 PUSH5 0x6970667358 0x22 SLT KECCAK256 SWAP10 0xD2 SWAP1 0xDB STATICCALL DUP10 PUSH7 0xD742652F2C4EC6 DUP8 PUSH24 0x770E9C2AB6E0A022B81A411F39BF0E1C64736F6C63430008 BYTE STOP CALLER "
				},
				"gasEstimates": {
					"creation": {
						"codeDepositCost": "543400",
						"executionCost": "infinite",
						"totalCost": "infinite"
					},
					"external": {
						"addppl(string,uint256)": "infinite",
						"arr(uint256)": "infinite",
						"favnum()": "2426",
						"nametofavnum(string)": "infinite",
						"person1()": "infinite",
						"ret()": "infinite",
						"sore(uint256)": "infinite"
					}
				},
				"methodIdentifiers": {
					"addppl(string,uint256)": "7bd5989e",
					"arr(uint256)": "71e5ee5f",
					"favnum()": "19908de0",
					"nametofavnum(string)": "c9de10ff",
					"person1()": "46cb59c2",
					"ret()": "1b08d96f",
					"sore(uint256)": "bd821e5b"
				}
			},
			"storageLayout": {
				"storage": [
					{
						"astId": 4,
						"contract": "goofy.sol:goof",
						"label": "num",
						"offset": 0,
						"slot": "0",
						"type": "t_bool"
					},
					{
						"astId": 6,
						"contract": "goofy.sol:goof",
						"label": "favnum",
						"offset": 0,
						"slot": "1",
						"type": "t_uint256"
					},
					{
						"astId": 9,
						"contract": "goofy.sol:goof",
						"label": "myadd",
						"offset": 0,
						"slot": "2",
						"type": "t_address"
					},
					{
						"astId": 12,
						"contract": "goofy.sol:goof",
						"label": "t",
						"offset": 0,
						"slot": "3",
						"type": "t_bytes32"
					},
					{
						"astId": 19,
						"contract": "goofy.sol:goof",
						"label": "person1",
						"offset": 0,
						"slot": "4",
						"type": "t_struct(ppl)28_storage"
					},
					{
						"astId": 23,
						"contract": "goofy.sol:goof",
						"label": "nametofavnum",
						"offset": 0,
						"slot": "6",
						"type": "t_mapping(t_string_memory_ptr,t_uint256)"
					},
					{
						"astId": 32,
						"contract": "goofy.sol:goof",
						"label": "arr",
						"offset": 0,
						"slot": "7",
						"type": "t_array(t_struct(ppl)28_storage)dyn_storage"
					}
				],
				"types": {
					"t_address": {
						"encoding": "inplace",
						"label": "address",
						"numberOfBytes": "20"
					},
					"t_array(t_struct(ppl)28_storage)dyn_storage": {
						"base": "t_struct(ppl)28_storage",
						"encoding": "dynamic_array",
						"label": "struct goof.ppl[]",
						"numberOfBytes": "32"
					},
					"t_bool": {
						"encoding": "inplace",
						"label": "bool",
						"numberOfBytes": "1"
					},
					"t_bytes32": {
						"encoding": "inplace",
						"label": "bytes32",
						"numberOfBytes": "32"
					},
					"t_mapping(t_string_memory_ptr,t_uint256)": {
						"encoding": "mapping",
						"key": "t_string_memory_ptr",
						"label": "mapping(string => uint256)",
						"numberOfBytes": "32",
						"value": "t_uint256"
					},
					"t_string_memory_ptr": {
						"encoding": "bytes",
						"label": "string",
						"numberOfBytes": "32"
					},
					"t_string_storage": {
						"encoding": "bytes",
						"label": "string",
						"numberOfBytes": "32"
					},
					"t_struct(ppl)28_storage": {
						"encoding": "inplace",
						"label": "struct goof.ppl",
						"members": [
							{
								"astId": 25,
								"contract": "goofy.sol:goof",
								"label": "favnum",
								"offset": 0,
								"slot": "0",
								"type": "t_uint256"
							},
							{
								"astId": 27,
								"contract": "goofy.sol:goof",
								"label": "name",
								"offset": 0,
								"slot": "1",
								"type": "t_string_storage"
							}
						],
						"numberOfBytes": "64"
					},
					"t_uint256": {
						"encoding": "inplace",
						"label": "uint256",
						"numberOfBytes": "32"
					}
				}
			},
			"userdoc": {
				"kind": "user",
				"methods": {},
				"version": 1
			}
		}
	}
}