{
	"goofy.sol": {
		"goof": {
			"abi": [
				{
					"inputs": [],
					"name": "favnum",
					"outputs": [
						{
							"internalType": "uint256",
							"name": "",
							"type": "uint256"
						}
					],
					"stateMutability": "view",
					"type": "function"
				},
				{
					"inputs": [],
					"name": "ret",
					"outputs": [
						{
							"internalType": "uint256",
							"name": "",
							"type": "uint256"
						},
						{
							"internalType": "uint256",
							"name": "",
							"type": "uint256"
						}
					],
					"stateMutability": "view",
					"type": "function"
				},
				{
					"inputs": [
						{
							"internalType": "uint256",
							"name": "_num",
							"type": "uint256"
						}
					],
					"name": "sore",
					"outputs": [],
					"stateMutability": "nonpayable",
					"type": "function"
				}
			],
			"devdoc": {
				"kind": "dev",
				"methods": {},
				"version": 1
			},
			"evm": {
				"assembly": "    /* \"goofy.sol\":182:1137  contract goof {... */\n  mstore(0x40, 0x80)\n    /* \"goofy.sol\":213:217  true */\n  0x01\n    /* \"goofy.sol\":203:217  bool num =true */\n  0x00\n  dup1\n  0x0100\n  exp\n  dup2\n  sload\n  dup2\n  0xff\n  mul\n  not\n  and\n  swap1\n  dup4\n  iszero\n  iszero\n  mul\n  or\n  swap1\n  sstore\n  pop\n    /* \"goofy.sol\":485:527  0x6880607d4890Dd9D1b9B90e66E2608D7de658EE0 */\n  0x6880607d4890dd9d1b9b90e66e2608d7de658ee0\n    /* \"goofy.sol\":469:527  address myadd = 0x6880607d4890Dd9D1b9B90e66E2608D7de658EE0 */\n  0x02\n  exp(0x0100, 0x00)\n  dup2\n  sload\n  dup2\n  0xffffffffffffffffffffffffffffffffffffffff\n  mul\n  not\n  and\n  swap1\n  dup4\n  0xffffffffffffffffffffffffffffffffffffffff\n  and\n  mul\n  or\n  swap1\n  sstore\n  pop\n    /* \"goofy.sol\":552:570  bytes32 t = \"text\" */\n  sstore(0x03, 0x7465787400000000000000000000000000000000000000000000000000000000)\n    /* \"goofy.sol\":182:1137  contract goof {... */\n  callvalue\n  dup1\n  iszero\n  tag_1\n  jumpi\n  0x00\n  dup1\n  revert\ntag_1:\n  pop\n  dataSize(sub_0)\n  dup1\n  dataOffset(sub_0)\n  0x00\n  codecopy\n  0x00\n  return\nstop\n\nsub_0: assembly {\n        /* \"goofy.sol\":182:1137  contract goof {... */\n      mstore(0x40, 0x80)\n      callvalue\n      dup1\n      iszero\n      tag_1\n      jumpi\n      0x00\n      dup1\n      revert\n    tag_1:\n      pop\n      jumpi(tag_2, lt(calldatasize, 0x04))\n      shr(0xe0, calldataload(0x00))\n      dup1\n      0x19908de0\n      eq\n      tag_3\n      jumpi\n      dup1\n      0x1b08d96f\n      eq\n      tag_4\n      jumpi\n      dup1\n      0xbd821e5b\n      eq\n      tag_5\n      jumpi\n    tag_2:\n      0x00\n      dup1\n      revert\n        /* \"goofy.sol\":307:328  uint256 public favnum */\n    tag_3:\n      tag_6\n      tag_7\n      jump\t// in\n    tag_6:\n      mload(0x40)\n      tag_8\n      swap2\n      swap1\n      tag_9\n      jump\t// in\n    tag_8:\n      mload(0x40)\n      dup1\n      swap2\n      sub\n      swap1\n      return\n        /* \"goofy.sol\":897:1134  function ret () public view returns (uint256 , uint256) {... */\n    tag_4:\n      tag_10\n      tag_11\n      jump\t// in\n    tag_10:\n      mload(0x40)\n      tag_12\n      swap3\n      swap2\n      swap1\n      tag_13\n      jump\t// in\n    tag_12:\n      mload(0x40)\n      dup1\n      swap2\n      sub\n      swap1\n      return\n        /* \"goofy.sol\":802:889  function sore(uint256 _num) public {... */\n    tag_5:\n      tag_14\n      0x04\n      dup1\n      calldatasize\n      sub\n      dup2\n      add\n      swap1\n      tag_15\n      swap2\n      swap1\n      tag_16\n      jump\t// in\n    tag_15:\n      tag_17\n      jump\t// in\n    tag_14:\n      stop\n        /* \"goofy.sol\":307:328  uint256 public favnum */\n    tag_7:\n      sload(0x01)\n      dup2\n      jump\t// out\n        /* \"goofy.sol\":897:1134  function ret () public view returns (uint256 , uint256) {... */\n    tag_11:\n        /* \"goofy.sol\":934:941  uint256 */\n      0x00\n        /* \"goofy.sol\":944:951  uint256 */\n      dup1\n        /* \"goofy.sol\":964:976  uint256 numm */\n      0x00\n        /* \"goofy.sol\":979:982  877 */\n      0x036d\n        /* \"goofy.sol\":964:982  uint256 numm = 877 */\n      swap1\n      pop\n        /* \"goofy.sol\":1114:1120  favnum */\n      sload(0x01)\n        /* \"goofy.sol\":1121:1125  numm */\n      dup2\n        /* \"goofy.sol\":1106:1126  return (favnum,numm) */\n      swap3\n      pop\n      swap3\n      pop\n      pop\n        /* \"goofy.sol\":897:1134  function ret () public view returns (uint256 , uint256) {... */\n      swap1\n      swap2\n      jump\t// out\n        /* \"goofy.sol\":802:889  function sore(uint256 _num) public {... */\n    tag_17:\n        /* \"goofy.sol\":857:861  _num */\n      dup1\n        /* \"goofy.sol\":848:854  favnum */\n      0x01\n        /* \"goofy.sol\":848:861  favnum = _num */\n      dup2\n      swap1\n      sstore\n      pop\n        /* \"goofy.sol\":872:878  favnum */\n      0x01\n      0x00\n        /* \"goofy.sol\":872:881  favnum ++ */\n      dup2\n      sload\n      dup1\n      swap3\n      swap2\n      swap1\n      tag_20\n      swap1\n      tag_21\n      jump\t// in\n    tag_20:\n      swap2\n      swap1\n      pop\n      sstore\n      pop\n        /* \"goofy.sol\":802:889  function sore(uint256 _num) public {... */\n      pop\n      jump\t// out\n        /* \"#utility.yul\":7:84   */\n    tag_22:\n        /* \"#utility.yul\":44:51   */\n      0x00\n        /* \"#utility.yul\":73:78   */\n      dup2\n        /* \"#utility.yul\":62:78   */\n      swap1\n      pop\n        /* \"#utility.yul\":7:84   */\n      swap2\n      swap1\n      pop\n      jump\t// out\n        /* \"#utility.yul\":90:208   */\n    tag_23:\n        /* \"#utility.yul\":177:201   */\n      tag_33\n        /* \"#utility.yul\":195:200   */\n      dup2\n        /* \"#utility.yul\":177:201   */\n      tag_22\n      jump\t// in\n    tag_33:\n        /* \"#utility.yul\":172:175   */\n      dup3\n        /* \"#utility.yul\":165:202   */\n      mstore\n        /* \"#utility.yul\":90:208   */\n      pop\n      pop\n      jump\t// out\n        /* \"#utility.yul\":214:436   */\n    tag_9:\n        /* \"#utility.yul\":307:311   */\n      0x00\n        /* \"#utility.yul\":345:347   */\n      0x20\n        /* \"#utility.yul\":334:343   */\n      dup3\n        /* \"#utility.yul\":330:348   */\n      add\n        /* \"#utility.yul\":322:348   */\n      swap1\n      pop\n        /* \"#utility.yul\":358:429   */\n      tag_35\n        /* \"#utility.yul\":426:427   */\n      0x00\n        /* \"#utility.yul\":415:424   */\n      dup4\n        /* \"#utility.yul\":411:428   */\n      add\n        /* \"#utility.yul\":402:408   */\n      dup5\n        /* \"#utility.yul\":358:429   */\n      tag_23\n      jump\t// in\n    tag_35:\n        /* \"#utility.yul\":214:436   */\n      swap3\n      swap2\n      pop\n      pop\n      jump\t// out\n        /* \"#utility.yul\":442:774   */\n    tag_13:\n        /* \"#utility.yul\":563:567   */\n      0x00\n        /* \"#utility.yul\":601:603   */\n      0x40\n        /* \"#utility.yul\":590:599   */\n      dup3\n        /* \"#utility.yul\":586:604   */\n      add\n        /* \"#utility.yul\":578:604   */\n      swap1\n      pop\n        /* \"#utility.yul\":614:685   */\n      tag_37\n        /* \"#utility.yul\":682:683   */\n      0x00\n        /* \"#utility.yul\":671:680   */\n      dup4\n        /* \"#utility.yul\":667:684   */\n      add\n        /* \"#utility.yul\":658:664   */\n      dup6\n        /* \"#utility.yul\":614:685   */\n      tag_23\n      jump\t// in\n    tag_37:\n        /* \"#utility.yul\":695:767   */\n      tag_38\n        /* \"#utility.yul\":763:765   */\n      0x20\n        /* \"#utility.yul\":752:761   */\n      dup4\n        /* \"#utility.yul\":748:766   */\n      add\n        /* \"#utility.yul\":739:745   */\n      dup5\n        /* \"#utility.yul\":695:767   */\n      tag_23\n      jump\t// in\n    tag_38:\n        /* \"#utility.yul\":442:774   */\n      swap4\n      swap3\n      pop\n      pop\n      pop\n      jump\t// out\n        /* \"#utility.yul\":861:978   */\n    tag_25:\n        /* \"#utility.yul\":970:971   */\n      0x00\n        /* \"#utility.yul\":967:968   */\n      dup1\n        /* \"#utility.yul\":960:972   */\n      revert\n        /* \"#utility.yul\":1107:1229   */\n    tag_27:\n        /* \"#utility.yul\":1180:1204   */\n      tag_43\n        /* \"#utility.yul\":1198:1203   */\n      dup2\n        /* \"#utility.yul\":1180:1204   */\n      tag_22\n      jump\t// in\n    tag_43:\n        /* \"#utility.yul\":1173:1178   */\n      dup2\n        /* \"#utility.yul\":1170:1205   */\n      eq\n        /* \"#utility.yul\":1160:1223   */\n      tag_44\n      jumpi\n        /* \"#utility.yul\":1219:1220   */\n      0x00\n        /* \"#utility.yul\":1216:1217   */\n      dup1\n        /* \"#utility.yul\":1209:1221   */\n      revert\n        /* \"#utility.yul\":1160:1223   */\n    tag_44:\n        /* \"#utility.yul\":1107:1229   */\n      pop\n      jump\t// out\n        /* \"#utility.yul\":1235:1374   */\n    tag_28:\n        /* \"#utility.yul\":1281:1286   */\n      0x00\n        /* \"#utility.yul\":1319:1325   */\n      dup2\n        /* \"#utility.yul\":1306:1326   */\n      calldataload\n        /* \"#utility.yul\":1297:1326   */\n      swap1\n      pop\n        /* \"#utility.yul\":1335:1368   */\n      tag_46\n        /* \"#utility.yul\":1362:1367   */\n      dup2\n        /* \"#utility.yul\":1335:1368   */\n      tag_27\n      jump\t// in\n    tag_46:\n        /* \"#utility.yul\":1235:1374   */\n      swap3\n      swap2\n      pop\n      pop\n      jump\t// out\n        /* \"#utility.yul\":1380:1709   */\n    tag_16:\n        /* \"#utility.yul\":1439:1445   */\n      0x00\n        /* \"#utility.yul\":1488:1490   */\n      0x20\n        /* \"#utility.yul\":1476:1485   */\n      dup3\n        /* \"#utility.yul\":1467:1474   */\n      dup5\n        /* \"#utility.yul\":1463:1486   */\n      sub\n        /* \"#utility.yul\":1459:1491   */\n      slt\n        /* \"#utility.yul\":1456:1575   */\n      iszero\n      tag_48\n      jumpi\n        /* \"#utility.yul\":1494:1573   */\n      tag_49\n      tag_25\n      jump\t// in\n    tag_49:\n        /* \"#utility.yul\":1456:1575   */\n    tag_48:\n        /* \"#utility.yul\":1614:1615   */\n      0x00\n        /* \"#utility.yul\":1639:1692   */\n      tag_50\n        /* \"#utility.yul\":1684:1691   */\n      dup5\n        /* \"#utility.yul\":1675:1681   */\n      dup3\n        /* \"#utility.yul\":1664:1673   */\n      dup6\n        /* \"#utility.yul\":1660:1682   */\n      add\n        /* \"#utility.yul\":1639:1692   */\n      tag_28\n      jump\t// in\n    tag_50:\n        /* \"#utility.yul\":1629:1692   */\n      swap2\n      pop\n        /* \"#utility.yul\":1585:1702   */\n      pop\n        /* \"#utility.yul\":1380:1709   */\n      swap3\n      swap2\n      pop\n      pop\n      jump\t// out\n        /* \"#utility.yul\":1715:1895   */\n    tag_29:\n        /* \"#utility.yul\":1763:1840   */\n      0x4e487b7100000000000000000000000000000000000000000000000000000000\n        /* \"#utility.yul\":1760:1761   */\n      0x00\n        /* \"#utility.yul\":1753:1841   */\n      mstore\n        /* \"#utility.yul\":1860:1864   */\n      0x11\n        /* \"#utility.yul\":1857:1858   */\n      0x04\n        /* \"#utility.yul\":1850:1865   */\n      mstore\n        /* \"#utility.yul\":1884:1888   */\n      0x24\n        /* \"#utility.yul\":1881:1882   */\n      0x00\n        /* \"#utility.yul\":1874:1889   */\n      revert\n        /* \"#utility.yul\":1901:2134   */\n    tag_21:\n        /* \"#utility.yul\":1940:1943   */\n      0x00\n        /* \"#utility.yul\":1963:1987   */\n      tag_53\n        /* \"#utility.yul\":1981:1986   */\n      dup3\n        /* \"#utility.yul\":1963:1987   */\n      tag_22\n      jump\t// in\n    tag_53:\n        /* \"#utility.yul\":1954:1987   */\n      swap2\n      pop\n        /* \"#utility.yul\":2009:2075   */\n      0xffffffffffffffffffffffffffffffffffffffffffffffffffffffffffffffff\n        /* \"#utility.yul\":2002:2007   */\n      dup3\n        /* \"#utility.yul\":1999:2076   */\n      sub\n        /* \"#utility.yul\":1996:2099   */\n      tag_54\n      jumpi\n        /* \"#utility.yul\":2079:2097   */\n      tag_55\n      tag_29\n      jump\t// in\n    tag_55:\n        /* \"#utility.yul\":1996:2099   */\n    tag_54:\n        /* \"#utility.yul\":2126:2127   */\n      0x01\n        /* \"#utility.yul\":2119:2124   */\n      dup3\n        /* \"#utility.yul\":2115:2128   */\n      add\n        /* \"#utility.yul\":2108:2128   */\n      swap1\n      pop\n        /* \"#utility.yul\":1901:2134   */\n      swap2\n      swap1\n      pop\n      jump\t// out\n\n    auxdata: 0xa26469706673582212204f12495ca146132d88e4c50df9f046701bfa3357084056b4fbb8a2a1fd5bd46464736f6c634300081a0033\n}\n",
				"bytecode": {
					"linkReferences": {},
					"object": "608060405260015f806101000a81548160ff021916908315150217905550736880607d4890dd9d1b9b90e66e2608d7de658ee060025f6101000a81548173ffffffffffffffffffffffffffffffffffffffff021916908373ffffffffffffffffffffffffffffffffffffffff1602179055507f7465787400000000000000000000000000000000000000000000000000000000600355348015609f575f80fd5b50610233806100ad5f395ff3fe608060405234801561000f575f80fd5b506004361061003f575f3560e01c806319908de0146100435780631b08d96f14610061578063bd821e5b14610080575b5f80fd5b61004b61009c565b60405161005891906100f0565b60405180910390f35b6100696100a2565b604051610077929190610109565b60405180910390f35b61009a6004803603810190610095919061015e565b6100b7565b005b60015481565b5f805f61036d90506001548192509250509091565b8060018190555060015f8154809291906100d0906101b6565b919050555050565b5f819050919050565b6100ea816100d8565b82525050565b5f6020820190506101035f8301846100e1565b92915050565b5f60408201905061011c5f8301856100e1565b61012960208301846100e1565b9392505050565b5f80fd5b61013d816100d8565b8114610147575f80fd5b50565b5f8135905061015881610134565b92915050565b5f6020828403121561017357610172610130565b5b5f6101808482850161014a565b91505092915050565b7f4e487b71000000000000000000000000000000000000000000000000000000005f52601160045260245ffd5b5f6101c0826100d8565b91507fffffffffffffffffffffffffffffffffffffffffffffffffffffffffffffffff82036101f2576101f1610189565b5b60018201905091905056fea26469706673582212204f12495ca146132d88e4c50df9f046701bfa3357084056b4fbb8a2a1fd5bd46464736f6c634300081a0033",
					"opcodes": "PUSH1 0x80 PUSH1 0x40 MSTORE PUSH1 0x1 PUSH0 DUP1 PUSH2 0x100 EXP DUP2 SLOAD DUP2 PUSH1 0xFF MUL NOT AND SWAP1 DUP4 ISZERO ISZERO MUL OR SWAP1 SSTORE POP PUSH20 0x6880607D4890DD9D1B9B90E66E2608D7DE658EE0 PUSH1 0x2 PUSH0 PUSH2 0x100 EXP DUP2 SLOAD DUP2 PUSH20 0xFFFFFFFFFFFFFFFFFFFFFFFFFFFFFFFFFFFFFFFF MUL NOT AND SWAP1 DUP4 PUSH20 0xFFFFFFFFFFFFFFFFFFFFFFFFFFFFFFFFFFFFFFFF AND MUL OR SWAP1 SSTORE POP PUSH32 0x7465787400000000000000000000000000000000000000000000000000000000 PUSH1 0x3 SSTORE CALLVALUE DUP1 ISZERO PUSH1 0x9F JUMPI PUSH0 DUP1 REVERT JUMPDEST POP PUSH2 0x233 DUP1 PUSH2 0xAD PUSH0 CODECOPY PUSH0 RETURN INVALID PUSH1 0x80 PUSH1 0x40 MSTORE CALLVALUE DUP1 ISZERO PUSH2 0xF JUMPI PUSH0 DUP1 REVERT JUMPDEST POP PUSH1 0x4 CALLDATASIZE LT PUSH2 0x3F JUMPI PUSH0 CALLDATALOAD PUSH1 0xE0 SHR DUP1 PUSH4 0x19908DE0 EQ PUSH2 0x43 JUMPI DUP1 PUSH4 0x1B08D96F EQ PUSH2 0x61 JUMPI DUP1 PUSH4 0xBD821E5B EQ PUSH2 0x80 JUMPI JUMPDEST PUSH0 DUP1 REVERT JUMPDEST PUSH2 0x4B PUSH2 0x9C JUMP JUMPDEST PUSH1 0x40 MLOAD PUSH2 0x58 SWAP2 SWAP1 PUSH2 0xF0 JUMP JUMPDEST PUSH1 0x40 MLOAD DUP1 SWAP2 SUB SWAP1 RETURN JUMPDEST PUSH2 0x69 PUSH2 0xA2 JUMP JUMPDEST PUSH1 0x40 MLOAD PUSH2 0x77 SWAP3 SWAP2 SWAP1 PUSH2 0x109 JUMP JUMPDEST PUSH1 0x40 MLOAD DUP1 SWAP2 SUB SWAP1 RETURN JUMPDEST PUSH2 0x9A PUSH1 0x4 DUP1 CALLDATASIZE SUB DUP2 ADD SWAP1 PUSH2 0x95 SWAP2 SWAP1 PUSH2 0x15E JUMP JUMPDEST PUSH2 0xB7 JUMP JUMPDEST STOP JUMPDEST PUSH1 0x1 SLOAD DUP2 JUMP JUMPDEST PUSH0 DUP1 PUSH0 PUSH2 0x36D SWAP1 POP PUSH1 0x1 SLOAD DUP2 SWAP3 POP SWAP3 POP POP SWAP1 SWAP2 JUMP JUMPDEST DUP1 PUSH1 0x1 DUP2 SWAP1 SSTORE POP PUSH1 0x1 PUSH0 DUP2 SLOAD DUP1 SWAP3 SWAP2 SWAP1 PUSH2 0xD0 SWAP1 PUSH2 0x1B6 JUMP JUMPDEST SWAP2 SWAP1 POP SSTORE POP POP JUMP JUMPDEST PUSH0 DUP2 SWAP1 POP SWAP2 SWAP1 POP JUMP JUMPDEST PUSH2 0xEA DUP2 PUSH2 0xD8 JUMP JUMPDEST DUP3 MSTORE POP POP JUMP JUMPDEST PUSH0 PUSH1 0x20 DUP3 ADD SWAP1 POP PUSH2 0x103 PUSH0 DUP4 ADD DUP5 PUSH2 0xE1 JUMP JUMPDEST SWAP3 SWAP2 POP POP JUMP JUMPDEST PUSH0 PUSH1 0x40 DUP3 ADD SWAP1 POP PUSH2 0x11C PUSH0 DUP4 ADD DUP6 PUSH2 0xE1 JUMP JUMPDEST PUSH2 0x129 PUSH1 0x20 DUP4 ADD DUP5 PUSH2 0xE1 JUMP JUMPDEST SWAP4 SWAP3 POP POP POP JUMP JUMPDEST PUSH0 DUP1 REVERT JUMPDEST PUSH2 0x13D DUP2 PUSH2 0xD8 JUMP JUMPDEST DUP2 EQ PUSH2 0x147 JUMPI PUSH0 DUP1 REVERT JUMPDEST POP JUMP JUMPDEST PUSH0 DUP2 CALLDATALOAD SWAP1 POP PUSH2 0x158 DUP2 PUSH2 0x134 JUMP JUMPDEST SWAP3 SWAP2 POP POP JUMP JUMPDEST PUSH0 PUSH1 0x20 DUP3 DUP5 SUB SLT ISZERO PUSH2 0x173 JUMPI PUSH2 0x172 PUSH2 0x130 JUMP JUMPDEST JUMPDEST PUSH0 PUSH2 0x180 DUP5 DUP3 DUP6 ADD PUSH2 0x14A JUMP JUMPDEST SWAP2 POP POP SWAP3 SWAP2 POP POP JUMP JUMPDEST PUSH32 0x4E487B7100000000000000000000000000000000000000000000000000000000 PUSH0 MSTORE PUSH1 0x11 PUSH1 0x4 MSTORE PUSH1 0x24 PUSH0 REVERT JUMPDEST PUSH0 PUSH2 0x1C0 DUP3 PUSH2 0xD8 JUMP JUMPDEST SWAP2 POP PUSH32 0xFFFFFFFFFFFFFFFFFFFFFFFFFFFFFFFFFFFFFFFFFFFFFFFFFFFFFFFFFFFFFFFF DUP3 SUB PUSH2 0x1F2 JUMPI PUSH2 0x1F1 PUSH2 0x189 JUMP JUMPDEST JUMPDEST PUSH1 0x1 DUP3 ADD SWAP1 POP SWAP2 SWAP1 POP JUMP INVALID LOG2 PUSH5 0x6970667358 0x22 SLT KECCAK256 0x4F SLT BLOBHASH TLOAD LOG1 CHAINID SGT 0x2D DUP9 0xE4 0xC5 0xD 0xF9 CREATE CHAINID PUSH17 0x1BFA3357084056B4FBB8A2A1FD5BD46464 PUSH20 0x6F6C634300081A00330000000000000000000000 "
				},
				"gasEstimates": {
					"creation": {
						"codeDepositCost": "112600",
						"executionCost": "70795",
						"totalCost": "183395"
					},
					"external": {
						"favnum()": "2403",
						"ret()": "infinite",
						"sore(uint256)": "infinite"
					}
				},
				"methodIdentifiers": {
					"favnum()": "19908de0",
					"ret()": "1b08d96f",
					"sore(uint256)": "bd821e5b"
				}
			},
			"storageLayout": {
				"storage": [
					{
						"astId": 4,
						"contract": "goofy.sol:goof",
						"label": "num",
						"offset": 0,
						"slot": "0",
						"type": "t_bool"
					},
					{
						"astId": 6,
						"contract": "goofy.sol:goof",
						"label": "favnum",
						"offset": 0,
						"slot": "1",
						"type": "t_uint256"
					},
					{
						"astId": 9,
						"contract": "goofy.sol:goof",
						"label": "myadd",
						"offset": 0,
						"slot": "2",
						"type": "t_address"
					},
					{
						"astId": 12,
						"contract": "goofy.sol:goof",
						"label": "t",
						"offset": 0,
						"slot": "3",
						"type": "t_bytes32"
					}
				],
				"types": {
					"t_address": {
						"encoding": "inplace",
						"label": "address",
						"numberOfBytes": "20"
					},
					"t_bool": {
						"encoding": "inplace",
						"label": "bool",
						"numberOfBytes": "1"
					},
					"t_bytes32": {
						"encoding": "inplace",
						"label": "bytes32",
						"numberOfBytes": "32"
					},
					"t_uint256": {
						"encoding": "inplace",
						"label": "uint256",
						"numberOfBytes": "32"
					}
				}
			},
			"userdoc": {
				"kind": "user",
				"methods": {},
				"version": 1
			}
		}
	}
}