{
	"Funding/send.sol": {
		"fundme": {
			"abi": [
				{
					"inputs": [],
					"name": "fund",
					"outputs": [],
					"stateMutability": "payable",
					"type": "function"
				},
				{
					"inputs": [
						{
							"internalType": "uint256",
							"name": "ethAmount",
							"type": "uint256"
						}
					],
					"name": "getconversionrate",
					"outputs": [
						{
							"internalType": "uint256",
							"name": "",
							"type": "uint256"
						}
					],
					"stateMutability": "view",
					"type": "function"
				},
				{
					"inputs": [],
					"name": "getprice",
					"outputs": [
						{
							"internalType": "uint256",
							"name": "",
							"type": "uint256"
						}
					],
					"stateMutability": "view",
					"type": "function"
				}
			],
			"devdoc": {
				"kind": "dev",
				"methods": {},
				"version": 1
			},
			"evm": {
				"assembly": "    /* \"Funding/send.sol\":174:851  contract fundme{... */\n  mstore(0x40, 0x80)\n    /* \"Funding/send.sol\":210:219  50 * 1e18 */\n  0x02b5e3af16b1880000\n    /* \"Funding/send.sol\":196:219  uint256 usd = 50 * 1e18 */\n  0x00\n  sstore\n    /* \"Funding/send.sol\":174:851  contract fundme{... */\n  callvalue\n  dup1\n  iszero\n  tag_1\n  jumpi\n  0x00\n  dup1\n  revert\ntag_1:\n  pop\n  dataSize(sub_0)\n  dup1\n  dataOffset(sub_0)\n  0x00\n  codecopy\n  0x00\n  return\nstop\n\nsub_0: assembly {\n        /* \"Funding/send.sol\":174:851  contract fundme{... */\n      mstore(0x40, 0x80)\n      jumpi(tag_1, lt(calldatasize, 0x04))\n      shr(0xe0, calldataload(0x00))\n      dup1\n      0x0fcb5984\n      eq\n      tag_2\n      jumpi\n      dup1\n      0x262f564b\n      eq\n      tag_3\n      jumpi\n      dup1\n      0xb60d4288\n      eq\n      tag_4\n      jumpi\n    tag_1:\n      0x00\n      dup1\n      revert\n        /* \"Funding/send.sol\":363:628  function getprice() public view returns (uint256) { ... */\n    tag_2:\n      callvalue\n      dup1\n      iszero\n      tag_5\n      jumpi\n      0x00\n      dup1\n      revert\n    tag_5:\n      pop\n      tag_6\n      tag_7\n      jump\t// in\n    tag_6:\n      mload(0x40)\n      tag_8\n      swap2\n      swap1\n      tag_9\n      jump\t// in\n    tag_8:\n      mload(0x40)\n      dup1\n      swap2\n      sub\n      swap1\n      return\n        /* \"Funding/send.sol\":640:848  function getconversionrate(uint256 ethAmount) public view returns (uint256){... */\n    tag_3:\n      callvalue\n      dup1\n      iszero\n      tag_10\n      jumpi\n      0x00\n      dup1\n      revert\n    tag_10:\n      pop\n      tag_11\n      0x04\n      dup1\n      calldatasize\n      sub\n      dup2\n      add\n      swap1\n      tag_12\n      swap2\n      swap1\n      tag_13\n      jump\t// in\n    tag_12:\n      tag_14\n      jump\t// in\n    tag_11:\n      mload(0x40)\n      tag_15\n      swap2\n      swap1\n      tag_9\n      jump\t// in\n    tag_15:\n      mload(0x40)\n      dup1\n      swap2\n      sub\n      swap1\n      return\n        /* \"Funding/send.sol\":227:357  function fund() public payable  {... */\n    tag_4:\n      tag_16\n      tag_17\n      jump\t// in\n    tag_16:\n      stop\n        /* \"Funding/send.sol\":363:628  function getprice() public view returns (uint256) { ... */\n    tag_7:\n        /* \"Funding/send.sol\":404:411  uint256 */\n      0x00\n        /* \"Funding/send.sol\":425:456  AggregatorV3Interface pricefeed */\n      dup1\n        /* \"Funding/send.sol\":481:523  0x1b44F3514812d835EB1BDB0acB33d3fA3351Ee43 */\n      0x1b44f3514812d835eb1bdb0acb33d3fa3351ee43\n        /* \"Funding/send.sol\":425:524  AggregatorV3Interface pricefeed = AggregatorV3Interface(0x1b44F3514812d835EB1BDB0acB33d3fA3351Ee43) */\n      swap1\n      pop\n        /* \"Funding/send.sol\":538:548  int answer */\n      0x00\n        /* \"Funding/send.sol\":553:562  pricefeed */\n      dup2\n        /* \"Funding/send.sol\":553:578  pricefeed.latestRoundData */\n      0xffffffffffffffffffffffffffffffffffffffff\n      and\n      0xfeaf968c\n        /* \"Funding/send.sol\":553:580  pricefeed.latestRoundData() */\n      mload(0x40)\n      dup2\n      0xffffffff\n      and\n      0xe0\n      shl\n      dup2\n      mstore\n      0x04\n      add\n      0xa0\n      mload(0x40)\n      dup1\n      dup4\n      sub\n      dup2\n      dup7\n      gas\n      staticcall\n      iszero\n      dup1\n      iszero\n      tag_20\n      jumpi\n      returndatasize\n      0x00\n      dup1\n      returndatacopy\n      revert(0x00, returndatasize)\n    tag_20:\n      pop\n      pop\n      pop\n      pop\n      mload(0x40)\n      returndatasize\n      not(0x1f)\n      0x1f\n      dup3\n      add\n      and\n      dup3\n      add\n      dup1\n      0x40\n      mstore\n      pop\n      dup2\n      add\n      swap1\n      tag_21\n      swap2\n      swap1\n      tag_22\n      jump\t// in\n    tag_21:\n        /* \"Funding/send.sol\":536:580  (,int answer,,,)=pricefeed.latestRoundData() */\n      pop\n      pop\n      pop\n      swap2\n      pop\n      pop\n        /* \"Funding/send.sol\":615:619  1e18 */\n      0x0de0b6b3a7640000\n        /* \"Funding/send.sol\":606:612  answer */\n      dup2\n        /* \"Funding/send.sol\":606:619  answer * 1e18 */\n      tag_23\n      swap2\n      swap1\n      tag_24\n      jump\t// in\n    tag_23:\n        /* \"Funding/send.sol\":591:620  return uint256(answer * 1e18) */\n      swap3\n      pop\n      pop\n      pop\n        /* \"Funding/send.sol\":363:628  function getprice() public view returns (uint256) { ... */\n      swap1\n      jump\t// out\n        /* \"Funding/send.sol\":640:848  function getconversionrate(uint256 ethAmount) public view returns (uint256){... */\n    tag_14:\n        /* \"Funding/send.sol\":707:714  uint256 */\n      0x00\n        /* \"Funding/send.sol\":726:742  uint256 ethPrice */\n      dup1\n        /* \"Funding/send.sol\":745:755  getprice() */\n      tag_26\n        /* \"Funding/send.sol\":745:753  getprice */\n      tag_7\n        /* \"Funding/send.sol\":745:755  getprice() */\n      jump\t// in\n    tag_26:\n        /* \"Funding/send.sol\":726:755  uint256 ethPrice = getprice() */\n      swap1\n      pop\n        /* \"Funding/send.sol\":766:782  uint256 ethinusd */\n      0x00\n        /* \"Funding/send.sol\":808:812  1e18 */\n      0x0de0b6b3a7640000\n        /* \"Funding/send.sol\":796:804  ethPrice */\n      dup3\n        /* \"Funding/send.sol\":786:795  ethAmount */\n      dup6\n        /* \"Funding/send.sol\":786:804  ethAmount*ethPrice */\n      tag_27\n      swap2\n      swap1\n      tag_28\n      jump\t// in\n    tag_27:\n        /* \"Funding/send.sol\":785:812  (ethAmount*ethPrice) / 1e18 */\n      tag_29\n      swap2\n      swap1\n      tag_30\n      jump\t// in\n    tag_29:\n        /* \"Funding/send.sol\":766:812  uint256 ethinusd = (ethAmount*ethPrice) / 1e18 */\n      swap1\n      pop\n        /* \"Funding/send.sol\":831:839  ethinusd */\n      dup1\n        /* \"Funding/send.sol\":823:840  return (ethinusd) */\n      swap3\n      pop\n      pop\n      pop\n        /* \"Funding/send.sol\":640:848  function getconversionrate(uint256 ethAmount) public view returns (uint256){... */\n      swap2\n      swap1\n      pop\n      jump\t// out\n        /* \"Funding/send.sol\":227:357  function fund() public payable  {... */\n    tag_17:\n        /* \"Funding/send.sol\":310:313  usd */\n      sload(0x00)\n        /* \"Funding/send.sol\":278:306  getconversionrate(msg.value) */\n      tag_32\n        /* \"Funding/send.sol\":296:305  msg.value */\n      callvalue\n        /* \"Funding/send.sol\":278:295  getconversionrate */\n      tag_14\n        /* \"Funding/send.sol\":278:306  getconversionrate(msg.value) */\n      jump\t// in\n    tag_32:\n        /* \"Funding/send.sol\":278:313  getconversionrate(msg.value) >= usd */\n      lt\n      iszero\n        /* \"Funding/send.sol\":270:338  require(getconversionrate(msg.value) >= usd , \"womp womp you broke\") */\n      tag_33\n      jumpi\n      mload(0x40)\n      0x08c379a000000000000000000000000000000000000000000000000000000000\n      dup2\n      mstore\n      0x04\n      add\n      tag_34\n      swap1\n      tag_35\n      jump\t// in\n    tag_34:\n      mload(0x40)\n      dup1\n      swap2\n      sub\n      swap1\n      revert\n    tag_33:\n        /* \"Funding/send.sol\":227:357  function fund() public payable  {... */\n      jump\t// out\n        /* \"#utility.yul\":7:84   */\n    tag_36:\n        /* \"#utility.yul\":44:51   */\n      0x00\n        /* \"#utility.yul\":73:78   */\n      dup2\n        /* \"#utility.yul\":62:78   */\n      swap1\n      pop\n        /* \"#utility.yul\":7:84   */\n      swap2\n      swap1\n      pop\n      jump\t// out\n        /* \"#utility.yul\":90:208   */\n    tag_37:\n        /* \"#utility.yul\":177:201   */\n      tag_58\n        /* \"#utility.yul\":195:200   */\n      dup2\n        /* \"#utility.yul\":177:201   */\n      tag_36\n      jump\t// in\n    tag_58:\n        /* \"#utility.yul\":172:175   */\n      dup3\n        /* \"#utility.yul\":165:202   */\n      mstore\n        /* \"#utility.yul\":90:208   */\n      pop\n      pop\n      jump\t// out\n        /* \"#utility.yul\":214:436   */\n    tag_9:\n        /* \"#utility.yul\":307:311   */\n      0x00\n        /* \"#utility.yul\":345:347   */\n      0x20\n        /* \"#utility.yul\":334:343   */\n      dup3\n        /* \"#utility.yul\":330:348   */\n      add\n        /* \"#utility.yul\":322:348   */\n      swap1\n      pop\n        /* \"#utility.yul\":358:429   */\n      tag_60\n        /* \"#utility.yul\":426:427   */\n      0x00\n        /* \"#utility.yul\":415:424   */\n      dup4\n        /* \"#utility.yul\":411:428   */\n      add\n        /* \"#utility.yul\":402:408   */\n      dup5\n        /* \"#utility.yul\":358:429   */\n      tag_37\n      jump\t// in\n    tag_60:\n        /* \"#utility.yul\":214:436   */\n      swap3\n      swap2\n      pop\n      pop\n      jump\t// out\n        /* \"#utility.yul\":523:640   */\n    tag_39:\n        /* \"#utility.yul\":632:633   */\n      0x00\n        /* \"#utility.yul\":629:630   */\n      dup1\n        /* \"#utility.yul\":622:634   */\n      revert\n        /* \"#utility.yul\":769:891   */\n    tag_41:\n        /* \"#utility.yul\":842:866   */\n      tag_65\n        /* \"#utility.yul\":860:865   */\n      dup2\n        /* \"#utility.yul\":842:866   */\n      tag_36\n      jump\t// in\n    tag_65:\n        /* \"#utility.yul\":835:840   */\n      dup2\n        /* \"#utility.yul\":832:867   */\n      eq\n        /* \"#utility.yul\":822:885   */\n      tag_66\n      jumpi\n        /* \"#utility.yul\":881:882   */\n      0x00\n        /* \"#utility.yul\":878:879   */\n      dup1\n        /* \"#utility.yul\":871:883   */\n      revert\n        /* \"#utility.yul\":822:885   */\n    tag_66:\n        /* \"#utility.yul\":769:891   */\n      pop\n      jump\t// out\n        /* \"#utility.yul\":897:1036   */\n    tag_42:\n        /* \"#utility.yul\":943:948   */\n      0x00\n        /* \"#utility.yul\":981:987   */\n      dup2\n        /* \"#utility.yul\":968:988   */\n      calldataload\n        /* \"#utility.yul\":959:988   */\n      swap1\n      pop\n        /* \"#utility.yul\":997:1030   */\n      tag_68\n        /* \"#utility.yul\":1024:1029   */\n      dup2\n        /* \"#utility.yul\":997:1030   */\n      tag_41\n      jump\t// in\n    tag_68:\n        /* \"#utility.yul\":897:1036   */\n      swap3\n      swap2\n      pop\n      pop\n      jump\t// out\n        /* \"#utility.yul\":1042:1371   */\n    tag_13:\n        /* \"#utility.yul\":1101:1107   */\n      0x00\n        /* \"#utility.yul\":1150:1152   */\n      0x20\n        /* \"#utility.yul\":1138:1147   */\n      dup3\n        /* \"#utility.yul\":1129:1136   */\n      dup5\n        /* \"#utility.yul\":1125:1148   */\n      sub\n        /* \"#utility.yul\":1121:1153   */\n      slt\n        /* \"#utility.yul\":1118:1237   */\n      iszero\n      tag_70\n      jumpi\n        /* \"#utility.yul\":1156:1235   */\n      tag_71\n      tag_39\n      jump\t// in\n    tag_71:\n        /* \"#utility.yul\":1118:1237   */\n    tag_70:\n        /* \"#utility.yul\":1276:1277   */\n      0x00\n        /* \"#utility.yul\":1301:1354   */\n      tag_72\n        /* \"#utility.yul\":1346:1353   */\n      dup5\n        /* \"#utility.yul\":1337:1343   */\n      dup3\n        /* \"#utility.yul\":1326:1335   */\n      dup6\n        /* \"#utility.yul\":1322:1344   */\n      add\n        /* \"#utility.yul\":1301:1354   */\n      tag_42\n      jump\t// in\n    tag_72:\n        /* \"#utility.yul\":1291:1354   */\n      swap2\n      pop\n        /* \"#utility.yul\":1247:1364   */\n      pop\n        /* \"#utility.yul\":1042:1371   */\n      swap3\n      swap2\n      pop\n      pop\n      jump\t// out\n        /* \"#utility.yul\":1377:1482   */\n    tag_43:\n        /* \"#utility.yul\":1413:1420   */\n      0x00\n        /* \"#utility.yul\":1453:1475   */\n      0xffffffffffffffffffff\n        /* \"#utility.yul\":1446:1451   */\n      dup3\n        /* \"#utility.yul\":1442:1476   */\n      and\n        /* \"#utility.yul\":1431:1476   */\n      swap1\n      pop\n        /* \"#utility.yul\":1377:1482   */\n      swap2\n      swap1\n      pop\n      jump\t// out\n        /* \"#utility.yul\":1488:1608   */\n    tag_44:\n        /* \"#utility.yul\":1560:1583   */\n      tag_75\n        /* \"#utility.yul\":1577:1582   */\n      dup2\n        /* \"#utility.yul\":1560:1583   */\n      tag_43\n      jump\t// in\n    tag_75:\n        /* \"#utility.yul\":1553:1558   */\n      dup2\n        /* \"#utility.yul\":1550:1584   */\n      eq\n        /* \"#utility.yul\":1540:1602   */\n      tag_76\n      jumpi\n        /* \"#utility.yul\":1598:1599   */\n      0x00\n        /* \"#utility.yul\":1595:1596   */\n      dup1\n        /* \"#utility.yul\":1588:1600   */\n      revert\n        /* \"#utility.yul\":1540:1602   */\n    tag_76:\n        /* \"#utility.yul\":1488:1608   */\n      pop\n      jump\t// out\n        /* \"#utility.yul\":1614:1755   */\n    tag_45:\n        /* \"#utility.yul\":1670:1675   */\n      0x00\n        /* \"#utility.yul\":1701:1707   */\n      dup2\n        /* \"#utility.yul\":1695:1708   */\n      mload\n        /* \"#utility.yul\":1686:1708   */\n      swap1\n      pop\n        /* \"#utility.yul\":1717:1749   */\n      tag_78\n        /* \"#utility.yul\":1743:1748   */\n      dup2\n        /* \"#utility.yul\":1717:1749   */\n      tag_44\n      jump\t// in\n    tag_78:\n        /* \"#utility.yul\":1614:1755   */\n      swap3\n      swap2\n      pop\n      pop\n      jump\t// out\n        /* \"#utility.yul\":1761:1837   */\n    tag_46:\n        /* \"#utility.yul\":1797:1804   */\n      0x00\n        /* \"#utility.yul\":1826:1831   */\n      dup2\n        /* \"#utility.yul\":1815:1831   */\n      swap1\n      pop\n        /* \"#utility.yul\":1761:1837   */\n      swap2\n      swap1\n      pop\n      jump\t// out\n        /* \"#utility.yul\":1843:1963   */\n    tag_47:\n        /* \"#utility.yul\":1915:1938   */\n      tag_81\n        /* \"#utility.yul\":1932:1937   */\n      dup2\n        /* \"#utility.yul\":1915:1938   */\n      tag_46\n      jump\t// in\n    tag_81:\n        /* \"#utility.yul\":1908:1913   */\n      dup2\n        /* \"#utility.yul\":1905:1939   */\n      eq\n        /* \"#utility.yul\":1895:1957   */\n      tag_82\n      jumpi\n        /* \"#utility.yul\":1953:1954   */\n      0x00\n        /* \"#utility.yul\":1950:1951   */\n      dup1\n        /* \"#utility.yul\":1943:1955   */\n      revert\n        /* \"#utility.yul\":1895:1957   */\n    tag_82:\n        /* \"#utility.yul\":1843:1963   */\n      pop\n      jump\t// out\n        /* \"#utility.yul\":1969:2110   */\n    tag_48:\n        /* \"#utility.yul\":2025:2030   */\n      0x00\n        /* \"#utility.yul\":2056:2062   */\n      dup2\n        /* \"#utility.yul\":2050:2063   */\n      mload\n        /* \"#utility.yul\":2041:2063   */\n      swap1\n      pop\n        /* \"#utility.yul\":2072:2104   */\n      tag_84\n        /* \"#utility.yul\":2098:2103   */\n      dup2\n        /* \"#utility.yul\":2072:2104   */\n      tag_47\n      jump\t// in\n    tag_84:\n        /* \"#utility.yul\":1969:2110   */\n      swap3\n      swap2\n      pop\n      pop\n      jump\t// out\n        /* \"#utility.yul\":2116:2259   */\n    tag_49:\n        /* \"#utility.yul\":2173:2178   */\n      0x00\n        /* \"#utility.yul\":2204:2210   */\n      dup2\n        /* \"#utility.yul\":2198:2211   */\n      mload\n        /* \"#utility.yul\":2189:2211   */\n      swap1\n      pop\n        /* \"#utility.yul\":2220:2253   */\n      tag_86\n        /* \"#utility.yul\":2247:2252   */\n      dup2\n        /* \"#utility.yul\":2220:2253   */\n      tag_41\n      jump\t// in\n    tag_86:\n        /* \"#utility.yul\":2116:2259   */\n      swap3\n      swap2\n      pop\n      pop\n      jump\t// out\n        /* \"#utility.yul\":2265:3236   */\n    tag_22:\n        /* \"#utility.yul\":2368:2374   */\n      0x00\n        /* \"#utility.yul\":2376:2382   */\n      dup1\n        /* \"#utility.yul\":2384:2390   */\n      0x00\n        /* \"#utility.yul\":2392:2398   */\n      dup1\n        /* \"#utility.yul\":2400:2406   */\n      0x00\n        /* \"#utility.yul\":2449:2452   */\n      0xa0\n        /* \"#utility.yul\":2437:2446   */\n      dup7\n        /* \"#utility.yul\":2428:2435   */\n      dup9\n        /* \"#utility.yul\":2424:2447   */\n      sub\n        /* \"#utility.yul\":2420:2453   */\n      slt\n        /* \"#utility.yul\":2417:2537   */\n      iszero\n      tag_88\n      jumpi\n        /* \"#utility.yul\":2456:2535   */\n      tag_89\n      tag_39\n      jump\t// in\n    tag_89:\n        /* \"#utility.yul\":2417:2537   */\n    tag_88:\n        /* \"#utility.yul\":2576:2577   */\n      0x00\n        /* \"#utility.yul\":2601:2664   */\n      tag_90\n        /* \"#utility.yul\":2656:2663   */\n      dup9\n        /* \"#utility.yul\":2647:2653   */\n      dup3\n        /* \"#utility.yul\":2636:2645   */\n      dup10\n        /* \"#utility.yul\":2632:2654   */\n      add\n        /* \"#utility.yul\":2601:2664   */\n      tag_45\n      jump\t// in\n    tag_90:\n        /* \"#utility.yul\":2591:2664   */\n      swap6\n      pop\n        /* \"#utility.yul\":2547:2674   */\n      pop\n        /* \"#utility.yul\":2713:2715   */\n      0x20\n        /* \"#utility.yul\":2739:2802   */\n      tag_91\n        /* \"#utility.yul\":2794:2801   */\n      dup9\n        /* \"#utility.yul\":2785:2791   */\n      dup3\n        /* \"#utility.yul\":2774:2783   */\n      dup10\n        /* \"#utility.yul\":2770:2792   */\n      add\n        /* \"#utility.yul\":2739:2802   */\n      tag_48\n      jump\t// in\n    tag_91:\n        /* \"#utility.yul\":2729:2802   */\n      swap5\n      pop\n        /* \"#utility.yul\":2684:2812   */\n      pop\n        /* \"#utility.yul\":2851:2853   */\n      0x40\n        /* \"#utility.yul\":2877:2941   */\n      tag_92\n        /* \"#utility.yul\":2933:2940   */\n      dup9\n        /* \"#utility.yul\":2924:2930   */\n      dup3\n        /* \"#utility.yul\":2913:2922   */\n      dup10\n        /* \"#utility.yul\":2909:2931   */\n      add\n        /* \"#utility.yul\":2877:2941   */\n      tag_49\n      jump\t// in\n    tag_92:\n        /* \"#utility.yul\":2867:2941   */\n      swap4\n      pop\n        /* \"#utility.yul\":2822:2951   */\n      pop\n        /* \"#utility.yul\":2990:2992   */\n      0x60\n        /* \"#utility.yul\":3016:3080   */\n      tag_93\n        /* \"#utility.yul\":3072:3079   */\n      dup9\n        /* \"#utility.yul\":3063:3069   */\n      dup3\n        /* \"#utility.yul\":3052:3061   */\n      dup10\n        /* \"#utility.yul\":3048:3070   */\n      add\n        /* \"#utility.yul\":3016:3080   */\n      tag_49\n      jump\t// in\n    tag_93:\n        /* \"#utility.yul\":3006:3080   */\n      swap3\n      pop\n        /* \"#utility.yul\":2961:3090   */\n      pop\n        /* \"#utility.yul\":3129:3132   */\n      0x80\n        /* \"#utility.yul\":3156:3219   */\n      tag_94\n        /* \"#utility.yul\":3211:3218   */\n      dup9\n        /* \"#utility.yul\":3202:3208   */\n      dup3\n        /* \"#utility.yul\":3191:3200   */\n      dup10\n        /* \"#utility.yul\":3187:3209   */\n      add\n        /* \"#utility.yul\":3156:3219   */\n      tag_45\n      jump\t// in\n    tag_94:\n        /* \"#utility.yul\":3146:3219   */\n      swap2\n      pop\n        /* \"#utility.yul\":3100:3229   */\n      pop\n        /* \"#utility.yul\":2265:3236   */\n      swap3\n      swap6\n      pop\n      swap3\n      swap6\n      swap1\n      swap4\n      pop\n      jump\t// out\n        /* \"#utility.yul\":3242:3422   */\n    tag_50:\n        /* \"#utility.yul\":3290:3367   */\n      0x4e487b7100000000000000000000000000000000000000000000000000000000\n        /* \"#utility.yul\":3287:3288   */\n      0x00\n        /* \"#utility.yul\":3280:3368   */\n      mstore\n        /* \"#utility.yul\":3387:3391   */\n      0x11\n        /* \"#utility.yul\":3384:3385   */\n      0x04\n        /* \"#utility.yul\":3377:3392   */\n      mstore\n        /* \"#utility.yul\":3411:3415   */\n      0x24\n        /* \"#utility.yul\":3408:3409   */\n      0x00\n        /* \"#utility.yul\":3401:3416   */\n      revert\n        /* \"#utility.yul\":3428:3984   */\n    tag_24:\n        /* \"#utility.yul\":3467:3474   */\n      0x00\n        /* \"#utility.yul\":3490:3509   */\n      tag_97\n        /* \"#utility.yul\":3507:3508   */\n      dup3\n        /* \"#utility.yul\":3490:3509   */\n      tag_46\n      jump\t// in\n    tag_97:\n        /* \"#utility.yul\":3485:3509   */\n      swap2\n      pop\n        /* \"#utility.yul\":3523:3542   */\n      tag_98\n        /* \"#utility.yul\":3540:3541   */\n      dup4\n        /* \"#utility.yul\":3523:3542   */\n      tag_46\n      jump\t// in\n    tag_98:\n        /* \"#utility.yul\":3518:3542   */\n      swap3\n      pop\n        /* \"#utility.yul\":3577:3578   */\n      dup3\n        /* \"#utility.yul\":3574:3575   */\n      dup3\n        /* \"#utility.yul\":3570:3579   */\n      mul\n        /* \"#utility.yul\":3599:3628   */\n      tag_99\n        /* \"#utility.yul\":3616:3627   */\n      dup2\n        /* \"#utility.yul\":3599:3628   */\n      tag_46\n      jump\t// in\n    tag_99:\n        /* \"#utility.yul\":3588:3628   */\n      swap2\n      pop\n        /* \"#utility.yul\":3686:3752   */\n      0x8000000000000000000000000000000000000000000000000000000000000000\n        /* \"#utility.yul\":3683:3684   */\n      dup5\n        /* \"#utility.yul\":3680:3753   */\n      eq\n        /* \"#utility.yul\":3676:3677   */\n      0x00\n        /* \"#utility.yul\":3673:3674   */\n      dup5\n        /* \"#utility.yul\":3669:3678   */\n      slt\n        /* \"#utility.yul\":3665:3754   */\n      and\n        /* \"#utility.yul\":3662:3777   */\n      iszero\n      tag_100\n      jumpi\n        /* \"#utility.yul\":3757:3775   */\n      tag_101\n      tag_50\n      jump\t// in\n    tag_101:\n        /* \"#utility.yul\":3662:3777   */\n    tag_100:\n        /* \"#utility.yul\":3927:3928   */\n      dup3\n        /* \"#utility.yul\":3918:3925   */\n      dup3\n        /* \"#utility.yul\":3913:3929   */\n      sdiv\n        /* \"#utility.yul\":3910:3911   */\n      dup5\n        /* \"#utility.yul\":3907:3930   */\n      eq\n        /* \"#utility.yul\":3887:3888   */\n      dup4\n        /* \"#utility.yul\":3880:3889   */\n      iszero\n        /* \"#utility.yul\":3860:3944   */\n      or\n        /* \"#utility.yul\":3837:3977   */\n      tag_102\n      jumpi\n        /* \"#utility.yul\":3957:3975   */\n      tag_103\n      tag_50\n      jump\t// in\n    tag_103:\n        /* \"#utility.yul\":3837:3977   */\n    tag_102:\n        /* \"#utility.yul\":3475:3984   */\n      pop\n        /* \"#utility.yul\":3428:3984   */\n      swap3\n      swap2\n      pop\n      pop\n      jump\t// out\n        /* \"#utility.yul\":3990:4400   */\n    tag_28:\n        /* \"#utility.yul\":4030:4037   */\n      0x00\n        /* \"#utility.yul\":4053:4073   */\n      tag_105\n        /* \"#utility.yul\":4071:4072   */\n      dup3\n        /* \"#utility.yul\":4053:4073   */\n      tag_36\n      jump\t// in\n    tag_105:\n        /* \"#utility.yul\":4048:4073   */\n      swap2\n      pop\n        /* \"#utility.yul\":4087:4107   */\n      tag_106\n        /* \"#utility.yul\":4105:4106   */\n      dup4\n        /* \"#utility.yul\":4087:4107   */\n      tag_36\n      jump\t// in\n    tag_106:\n        /* \"#utility.yul\":4082:4107   */\n      swap3\n      pop\n        /* \"#utility.yul\":4142:4143   */\n      dup3\n        /* \"#utility.yul\":4139:4140   */\n      dup3\n        /* \"#utility.yul\":4135:4144   */\n      mul\n        /* \"#utility.yul\":4164:4194   */\n      tag_107\n        /* \"#utility.yul\":4182:4193   */\n      dup2\n        /* \"#utility.yul\":4164:4194   */\n      tag_36\n      jump\t// in\n    tag_107:\n        /* \"#utility.yul\":4153:4194   */\n      swap2\n      pop\n        /* \"#utility.yul\":4343:4344   */\n      dup3\n        /* \"#utility.yul\":4334:4341   */\n      dup3\n        /* \"#utility.yul\":4330:4345   */\n      div\n        /* \"#utility.yul\":4327:4328   */\n      dup5\n        /* \"#utility.yul\":4324:4346   */\n      eq\n        /* \"#utility.yul\":4304:4305   */\n      dup4\n        /* \"#utility.yul\":4297:4306   */\n      iszero\n        /* \"#utility.yul\":4277:4360   */\n      or\n        /* \"#utility.yul\":4254:4393   */\n      tag_108\n      jumpi\n        /* \"#utility.yul\":4373:4391   */\n      tag_109\n      tag_50\n      jump\t// in\n    tag_109:\n        /* \"#utility.yul\":4254:4393   */\n    tag_108:\n        /* \"#utility.yul\":4038:4400   */\n      pop\n        /* \"#utility.yul\":3990:4400   */\n      swap3\n      swap2\n      pop\n      pop\n      jump\t// out\n        /* \"#utility.yul\":4406:4586   */\n    tag_51:\n        /* \"#utility.yul\":4454:4531   */\n      0x4e487b7100000000000000000000000000000000000000000000000000000000\n        /* \"#utility.yul\":4451:4452   */\n      0x00\n        /* \"#utility.yul\":4444:4532   */\n      mstore\n        /* \"#utility.yul\":4551:4555   */\n      0x12\n        /* \"#utility.yul\":4548:4549   */\n      0x04\n        /* \"#utility.yul\":4541:4556   */\n      mstore\n        /* \"#utility.yul\":4575:4579   */\n      0x24\n        /* \"#utility.yul\":4572:4573   */\n      0x00\n        /* \"#utility.yul\":4565:4580   */\n      revert\n        /* \"#utility.yul\":4592:4777   */\n    tag_30:\n        /* \"#utility.yul\":4632:4633   */\n      0x00\n        /* \"#utility.yul\":4649:4669   */\n      tag_112\n        /* \"#utility.yul\":4667:4668   */\n      dup3\n        /* \"#utility.yul\":4649:4669   */\n      tag_36\n      jump\t// in\n    tag_112:\n        /* \"#utility.yul\":4644:4669   */\n      swap2\n      pop\n        /* \"#utility.yul\":4683:4703   */\n      tag_113\n        /* \"#utility.yul\":4701:4702   */\n      dup4\n        /* \"#utility.yul\":4683:4703   */\n      tag_36\n      jump\t// in\n    tag_113:\n        /* \"#utility.yul\":4678:4703   */\n      swap3\n      pop\n        /* \"#utility.yul\":4722:4723   */\n      dup3\n        /* \"#utility.yul\":4712:4747   */\n      tag_114\n      jumpi\n        /* \"#utility.yul\":4727:4745   */\n      tag_115\n      tag_51\n      jump\t// in\n    tag_115:\n        /* \"#utility.yul\":4712:4747   */\n    tag_114:\n        /* \"#utility.yul\":4769:4770   */\n      dup3\n        /* \"#utility.yul\":4766:4767   */\n      dup3\n        /* \"#utility.yul\":4762:4771   */\n      div\n        /* \"#utility.yul\":4757:4771   */\n      swap1\n      pop\n        /* \"#utility.yul\":4592:4777   */\n      swap3\n      swap2\n      pop\n      pop\n      jump\t// out\n        /* \"#utility.yul\":4783:4952   */\n    tag_52:\n        /* \"#utility.yul\":4867:4878   */\n      0x00\n        /* \"#utility.yul\":4901:4907   */\n      dup3\n        /* \"#utility.yul\":4896:4899   */\n      dup3\n        /* \"#utility.yul\":4889:4908   */\n      mstore\n        /* \"#utility.yul\":4941:4945   */\n      0x20\n        /* \"#utility.yul\":4936:4939   */\n      dup3\n        /* \"#utility.yul\":4932:4946   */\n      add\n        /* \"#utility.yul\":4917:4946   */\n      swap1\n      pop\n        /* \"#utility.yul\":4783:4952   */\n      swap3\n      swap2\n      pop\n      pop\n      jump\t// out\n        /* \"#utility.yul\":4958:5127   */\n    tag_53:\n        /* \"#utility.yul\":5098:5119   */\n      0x776f6d7020776f6d7020796f752062726f6b6500000000000000000000000000\n        /* \"#utility.yul\":5094:5095   */\n      0x00\n        /* \"#utility.yul\":5086:5092   */\n      dup3\n        /* \"#utility.yul\":5082:5096   */\n      add\n        /* \"#utility.yul\":5075:5120   */\n      mstore\n        /* \"#utility.yul\":4958:5127   */\n      pop\n      jump\t// out\n        /* \"#utility.yul\":5133:5499   */\n    tag_54:\n        /* \"#utility.yul\":5275:5278   */\n      0x00\n        /* \"#utility.yul\":5296:5363   */\n      tag_119\n        /* \"#utility.yul\":5360:5362   */\n      0x13\n        /* \"#utility.yul\":5355:5358   */\n      dup4\n        /* \"#utility.yul\":5296:5363   */\n      tag_52\n      jump\t// in\n    tag_119:\n        /* \"#utility.yul\":5289:5363   */\n      swap2\n      pop\n        /* \"#utility.yul\":5372:5465   */\n      tag_120\n        /* \"#utility.yul\":5461:5464   */\n      dup3\n        /* \"#utility.yul\":5372:5465   */\n      tag_53\n      jump\t// in\n    tag_120:\n        /* \"#utility.yul\":5490:5492   */\n      0x20\n        /* \"#utility.yul\":5485:5488   */\n      dup3\n        /* \"#utility.yul\":5481:5493   */\n      add\n        /* \"#utility.yul\":5474:5493   */\n      swap1\n      pop\n        /* \"#utility.yul\":5133:5499   */\n      swap2\n      swap1\n      pop\n      jump\t// out\n        /* \"#utility.yul\":5505:5924   */\n    tag_35:\n        /* \"#utility.yul\":5671:5675   */\n      0x00\n        /* \"#utility.yul\":5709:5711   */\n      0x20\n        /* \"#utility.yul\":5698:5707   */\n      dup3\n        /* \"#utility.yul\":5694:5712   */\n      add\n        /* \"#utility.yul\":5686:5712   */\n      swap1\n      pop\n        /* \"#utility.yul\":5758:5767   */\n      dup2\n        /* \"#utility.yul\":5752:5756   */\n      dup2\n        /* \"#utility.yul\":5748:5768   */\n      sub\n        /* \"#utility.yul\":5744:5745   */\n      0x00\n        /* \"#utility.yul\":5733:5742   */\n      dup4\n        /* \"#utility.yul\":5729:5746   */\n      add\n        /* \"#utility.yul\":5722:5769   */\n      mstore\n        /* \"#utility.yul\":5786:5917   */\n      tag_122\n        /* \"#utility.yul\":5912:5916   */\n      dup2\n        /* \"#utility.yul\":5786:5917   */\n      tag_54\n      jump\t// in\n    tag_122:\n        /* \"#utility.yul\":5778:5917   */\n      swap1\n      pop\n        /* \"#utility.yul\":5505:5924   */\n      swap2\n      swap1\n      pop\n      jump\t// out\n\n    auxdata: 0xa2646970667358221220ad74558778725f04fd4776cf64f0e134181d9aae20e56ee0df715fecd4c19f9164736f6c634300081a0033\n}\n",
				"bytecode": {
					"linkReferences": {},
					"object": "60806040526802b5e3af16b18800005f55348015601a575f80fd5b5061054b806100285f395ff3fe608060405260043610610033575f3560e01c80630fcb598414610037578063262f564b14610061578063b60d42881461009d575b5f80fd5b348015610042575f80fd5b5061004b6100a7565b60405161005891906101ed565b60405180910390f35b34801561006c575f80fd5b5061008760048036038101906100829190610234565b61014f565b60405161009491906101ed565b60405180910390f35b6100a5610187565b005b5f80731b44f3514812d835eb1bdb0acb33d3fa3351ee4390505f8173ffffffffffffffffffffffffffffffffffffffff1663feaf968c6040518163ffffffff1660e01b815260040160a060405180830381865afa15801561010a573d5f803e3d5ffd5b505050506040513d601f19601f8201168201806040525081019061012e91906102e5565b505050915050670de0b6b3a7640000816101489190610389565b9250505090565b5f806101596100a7565b90505f670de0b6b3a7640000828561017191906103ff565b61017b919061046d565b90508092505050919050565b5f546101923461014f565b10156101d3576040517f08c379a00000000000000000000000000000000000000000000000000000000081526004016101ca906104f7565b60405180910390fd5b565b5f819050919050565b6101e7816101d5565b82525050565b5f6020820190506102005f8301846101de565b92915050565b5f80fd5b610213816101d5565b811461021d575f80fd5b50565b5f8135905061022e8161020a565b92915050565b5f6020828403121561024957610248610206565b5b5f61025684828501610220565b91505092915050565b5f69ffffffffffffffffffff82169050919050565b61027d8161025f565b8114610287575f80fd5b50565b5f8151905061029881610274565b92915050565b5f819050919050565b6102b08161029e565b81146102ba575f80fd5b50565b5f815190506102cb816102a7565b92915050565b5f815190506102df8161020a565b92915050565b5f805f805f60a086880312156102fe576102fd610206565b5b5f61030b8882890161028a565b955050602061031c888289016102bd565b945050604061032d888289016102d1565b935050606061033e888289016102d1565b925050608061034f8882890161028a565b9150509295509295909350565b7f4e487b71000000000000000000000000000000000000000000000000000000005f52601160045260245ffd5b5f6103938261029e565b915061039e8361029e565b92508282026103ac8161029e565b91507f800000000000000000000000000000000000000000000000000000000000000084145f841216156103e3576103e261035c565b5b82820584148315176103f8576103f761035c565b5b5092915050565b5f610409826101d5565b9150610414836101d5565b9250828202610422816101d5565b915082820484148315176104395761043861035c565b5b5092915050565b7f4e487b71000000000000000000000000000000000000000000000000000000005f52601260045260245ffd5b5f610477826101d5565b9150610482836101d5565b92508261049257610491610440565b5b828204905092915050565b5f82825260208201905092915050565b7f776f6d7020776f6d7020796f752062726f6b65000000000000000000000000005f82015250565b5f6104e160138361049d565b91506104ec826104ad565b602082019050919050565b5f6020820190508181035f83015261050e816104d5565b905091905056fea2646970667358221220ad74558778725f04fd4776cf64f0e134181d9aae20e56ee0df715fecd4c19f9164736f6c634300081a0033",
					"opcodes": "PUSH1 0x80 PUSH1 0x40 MSTORE PUSH9 0x2B5E3AF16B1880000 PUSH0 SSTORE CALLVALUE DUP1 ISZERO PUSH1 0x1A JUMPI PUSH0 DUP1 REVERT JUMPDEST POP PUSH2 0x54B DUP1 PUSH2 0x28 PUSH0 CODECOPY PUSH0 RETURN INVALID PUSH1 0x80 PUSH1 0x40 MSTORE PUSH1 0x4 CALLDATASIZE LT PUSH2 0x33 JUMPI PUSH0 CALLDATALOAD PUSH1 0xE0 SHR DUP1 PUSH4 0xFCB5984 EQ PUSH2 0x37 JUMPI DUP1 PUSH4 0x262F564B EQ PUSH2 0x61 JUMPI DUP1 PUSH4 0xB60D4288 EQ PUSH2 0x9D JUMPI JUMPDEST PUSH0 DUP1 REVERT JUMPDEST CALLVALUE DUP1 ISZERO PUSH2 0x42 JUMPI PUSH0 DUP1 REVERT JUMPDEST POP PUSH2 0x4B PUSH2 0xA7 JUMP JUMPDEST PUSH1 0x40 MLOAD PUSH2 0x58 SWAP2 SWAP1 PUSH2 0x1ED JUMP JUMPDEST PUSH1 0x40 MLOAD DUP1 SWAP2 SUB SWAP1 RETURN JUMPDEST CALLVALUE DUP1 ISZERO PUSH2 0x6C JUMPI PUSH0 DUP1 REVERT JUMPDEST POP PUSH2 0x87 PUSH1 0x4 DUP1 CALLDATASIZE SUB DUP2 ADD SWAP1 PUSH2 0x82 SWAP2 SWAP1 PUSH2 0x234 JUMP JUMPDEST PUSH2 0x14F JUMP JUMPDEST PUSH1 0x40 MLOAD PUSH2 0x94 SWAP2 SWAP1 PUSH2 0x1ED JUMP JUMPDEST PUSH1 0x40 MLOAD DUP1 SWAP2 SUB SWAP1 RETURN JUMPDEST PUSH2 0xA5 PUSH2 0x187 JUMP JUMPDEST STOP JUMPDEST PUSH0 DUP1 PUSH20 0x1B44F3514812D835EB1BDB0ACB33D3FA3351EE43 SWAP1 POP PUSH0 DUP2 PUSH20 0xFFFFFFFFFFFFFFFFFFFFFFFFFFFFFFFFFFFFFFFF AND PUSH4 0xFEAF968C PUSH1 0x40 MLOAD DUP2 PUSH4 0xFFFFFFFF AND PUSH1 0xE0 SHL DUP2 MSTORE PUSH1 0x4 ADD PUSH1 0xA0 PUSH1 0x40 MLOAD DUP1 DUP4 SUB DUP2 DUP7 GAS STATICCALL ISZERO DUP1 ISZERO PUSH2 0x10A JUMPI RETURNDATASIZE PUSH0 DUP1 RETURNDATACOPY RETURNDATASIZE PUSH0 REVERT JUMPDEST POP POP POP POP PUSH1 0x40 MLOAD RETURNDATASIZE PUSH1 0x1F NOT PUSH1 0x1F DUP3 ADD AND DUP3 ADD DUP1 PUSH1 0x40 MSTORE POP DUP2 ADD SWAP1 PUSH2 0x12E SWAP2 SWAP1 PUSH2 0x2E5 JUMP JUMPDEST POP POP POP SWAP2 POP POP PUSH8 0xDE0B6B3A7640000 DUP2 PUSH2 0x148 SWAP2 SWAP1 PUSH2 0x389 JUMP JUMPDEST SWAP3 POP POP POP SWAP1 JUMP JUMPDEST PUSH0 DUP1 PUSH2 0x159 PUSH2 0xA7 JUMP JUMPDEST SWAP1 POP PUSH0 PUSH8 0xDE0B6B3A7640000 DUP3 DUP6 PUSH2 0x171 SWAP2 SWAP1 PUSH2 0x3FF JUMP JUMPDEST PUSH2 0x17B SWAP2 SWAP1 PUSH2 0x46D JUMP JUMPDEST SWAP1 POP DUP1 SWAP3 POP POP POP SWAP2 SWAP1 POP JUMP JUMPDEST PUSH0 SLOAD PUSH2 0x192 CALLVALUE PUSH2 0x14F JUMP JUMPDEST LT ISZERO PUSH2 0x1D3 JUMPI PUSH1 0x40 MLOAD PUSH32 0x8C379A000000000000000000000000000000000000000000000000000000000 DUP2 MSTORE PUSH1 0x4 ADD PUSH2 0x1CA SWAP1 PUSH2 0x4F7 JUMP JUMPDEST PUSH1 0x40 MLOAD DUP1 SWAP2 SUB SWAP1 REVERT JUMPDEST JUMP JUMPDEST PUSH0 DUP2 SWAP1 POP SWAP2 SWAP1 POP JUMP JUMPDEST PUSH2 0x1E7 DUP2 PUSH2 0x1D5 JUMP JUMPDEST DUP3 MSTORE POP POP JUMP JUMPDEST PUSH0 PUSH1 0x20 DUP3 ADD SWAP1 POP PUSH2 0x200 PUSH0 DUP4 ADD DUP5 PUSH2 0x1DE JUMP JUMPDEST SWAP3 SWAP2 POP POP JUMP JUMPDEST PUSH0 DUP1 REVERT JUMPDEST PUSH2 0x213 DUP2 PUSH2 0x1D5 JUMP JUMPDEST DUP2 EQ PUSH2 0x21D JUMPI PUSH0 DUP1 REVERT JUMPDEST POP JUMP JUMPDEST PUSH0 DUP2 CALLDATALOAD SWAP1 POP PUSH2 0x22E DUP2 PUSH2 0x20A JUMP JUMPDEST SWAP3 SWAP2 POP POP JUMP JUMPDEST PUSH0 PUSH1 0x20 DUP3 DUP5 SUB SLT ISZERO PUSH2 0x249 JUMPI PUSH2 0x248 PUSH2 0x206 JUMP JUMPDEST JUMPDEST PUSH0 PUSH2 0x256 DUP5 DUP3 DUP6 ADD PUSH2 0x220 JUMP JUMPDEST SWAP2 POP POP SWAP3 SWAP2 POP POP JUMP JUMPDEST PUSH0 PUSH10 0xFFFFFFFFFFFFFFFFFFFF DUP3 AND SWAP1 POP SWAP2 SWAP1 POP JUMP JUMPDEST PUSH2 0x27D DUP2 PUSH2 0x25F JUMP JUMPDEST DUP2 EQ PUSH2 0x287 JUMPI PUSH0 DUP1 REVERT JUMPDEST POP JUMP JUMPDEST PUSH0 DUP2 MLOAD SWAP1 POP PUSH2 0x298 DUP2 PUSH2 0x274 JUMP JUMPDEST SWAP3 SWAP2 POP POP JUMP JUMPDEST PUSH0 DUP2 SWAP1 POP SWAP2 SWAP1 POP JUMP JUMPDEST PUSH2 0x2B0 DUP2 PUSH2 0x29E JUMP JUMPDEST DUP2 EQ PUSH2 0x2BA JUMPI PUSH0 DUP1 REVERT JUMPDEST POP JUMP JUMPDEST PUSH0 DUP2 MLOAD SWAP1 POP PUSH2 0x2CB DUP2 PUSH2 0x2A7 JUMP JUMPDEST SWAP3 SWAP2 POP POP JUMP JUMPDEST PUSH0 DUP2 MLOAD SWAP1 POP PUSH2 0x2DF DUP2 PUSH2 0x20A JUMP JUMPDEST SWAP3 SWAP2 POP POP JUMP JUMPDEST PUSH0 DUP1 PUSH0 DUP1 PUSH0 PUSH1 0xA0 DUP7 DUP9 SUB SLT ISZERO PUSH2 0x2FE JUMPI PUSH2 0x2FD PUSH2 0x206 JUMP JUMPDEST JUMPDEST PUSH0 PUSH2 0x30B DUP9 DUP3 DUP10 ADD PUSH2 0x28A JUMP JUMPDEST SWAP6 POP POP PUSH1 0x20 PUSH2 0x31C DUP9 DUP3 DUP10 ADD PUSH2 0x2BD JUMP JUMPDEST SWAP5 POP POP PUSH1 0x40 PUSH2 0x32D DUP9 DUP3 DUP10 ADD PUSH2 0x2D1 JUMP JUMPDEST SWAP4 POP POP PUSH1 0x60 PUSH2 0x33E DUP9 DUP3 DUP10 ADD PUSH2 0x2D1 JUMP JUMPDEST SWAP3 POP POP PUSH1 0x80 PUSH2 0x34F DUP9 DUP3 DUP10 ADD PUSH2 0x28A JUMP JUMPDEST SWAP2 POP POP SWAP3 SWAP6 POP SWAP3 SWAP6 SWAP1 SWAP4 POP JUMP JUMPDEST PUSH32 0x4E487B7100000000000000000000000000000000000000000000000000000000 PUSH0 MSTORE PUSH1 0x11 PUSH1 0x4 MSTORE PUSH1 0x24 PUSH0 REVERT JUMPDEST PUSH0 PUSH2 0x393 DUP3 PUSH2 0x29E JUMP JUMPDEST SWAP2 POP PUSH2 0x39E DUP4 PUSH2 0x29E JUMP JUMPDEST SWAP3 POP DUP3 DUP3 MUL PUSH2 0x3AC DUP2 PUSH2 0x29E JUMP JUMPDEST SWAP2 POP PUSH32 0x8000000000000000000000000000000000000000000000000000000000000000 DUP5 EQ PUSH0 DUP5 SLT AND ISZERO PUSH2 0x3E3 JUMPI PUSH2 0x3E2 PUSH2 0x35C JUMP JUMPDEST JUMPDEST DUP3 DUP3 SDIV DUP5 EQ DUP4 ISZERO OR PUSH2 0x3F8 JUMPI PUSH2 0x3F7 PUSH2 0x35C JUMP JUMPDEST JUMPDEST POP SWAP3 SWAP2 POP POP JUMP JUMPDEST PUSH0 PUSH2 0x409 DUP3 PUSH2 0x1D5 JUMP JUMPDEST SWAP2 POP PUSH2 0x414 DUP4 PUSH2 0x1D5 JUMP JUMPDEST SWAP3 POP DUP3 DUP3 MUL PUSH2 0x422 DUP2 PUSH2 0x1D5 JUMP JUMPDEST SWAP2 POP DUP3 DUP3 DIV DUP5 EQ DUP4 ISZERO OR PUSH2 0x439 JUMPI PUSH2 0x438 PUSH2 0x35C JUMP JUMPDEST JUMPDEST POP SWAP3 SWAP2 POP POP JUMP JUMPDEST PUSH32 0x4E487B7100000000000000000000000000000000000000000000000000000000 PUSH0 MSTORE PUSH1 0x12 PUSH1 0x4 MSTORE PUSH1 0x24 PUSH0 REVERT JUMPDEST PUSH0 PUSH2 0x477 DUP3 PUSH2 0x1D5 JUMP JUMPDEST SWAP2 POP PUSH2 0x482 DUP4 PUSH2 0x1D5 JUMP JUMPDEST SWAP3 POP DUP3 PUSH2 0x492 JUMPI PUSH2 0x491 PUSH2 0x440 JUMP JUMPDEST JUMPDEST DUP3 DUP3 DIV SWAP1 POP SWAP3 SWAP2 POP POP JUMP JUMPDEST PUSH0 DUP3 DUP3 MSTORE PUSH1 0x20 DUP3 ADD SWAP1 POP SWAP3 SWAP2 POP POP JUMP JUMPDEST PUSH32 0x776F6D7020776F6D7020796F752062726F6B6500000000000000000000000000 PUSH0 DUP3 ADD MSTORE POP JUMP JUMPDEST PUSH0 PUSH2 0x4E1 PUSH1 0x13 DUP4 PUSH2 0x49D JUMP JUMPDEST SWAP2 POP PUSH2 0x4EC DUP3 PUSH2 0x4AD JUMP JUMPDEST PUSH1 0x20 DUP3 ADD SWAP1 POP SWAP2 SWAP1 POP JUMP JUMPDEST PUSH0 PUSH1 0x20 DUP3 ADD SWAP1 POP DUP2 DUP2 SUB PUSH0 DUP4 ADD MSTORE PUSH2 0x50E DUP2 PUSH2 0x4D5 JUMP JUMPDEST SWAP1 POP SWAP2 SWAP1 POP JUMP INVALID LOG2 PUSH5 0x6970667358 0x22 SLT KECCAK256 0xAD PUSH21 0x558778725F04FD4776CF64F0E134181D9AAE20E56E 0xE0 0xDF PUSH18 0x5FECD4C19F9164736F6C634300081A003300 "
				},
				"gasEstimates": {
					"creation": {
						"codeDepositCost": "271000",
						"executionCost": "22415",
						"totalCost": "293415"
					},
					"external": {
						"fund()": "infinite",
						"getconversionrate(uint256)": "infinite",
						"getprice()": "infinite"
					}
				},
				"methodIdentifiers": {
					"fund()": "b60d4288",
					"getconversionrate(uint256)": "262f564b",
					"getprice()": "0fcb5984"
				}
			},
			"storageLayout": {
				"storage": [
					{
						"astId": 54,
						"contract": "Funding/send.sol:fundme",
						"label": "usd",
						"offset": 0,
						"slot": "0",
						"type": "t_uint256"
					}
				],
				"types": {
					"t_uint256": {
						"encoding": "inplace",
						"label": "uint256",
						"numberOfBytes": "32"
					}
				}
			},
			"userdoc": {
				"kind": "user",
				"methods": {},
				"version": 1
			}
		}
	}
}