{
	"Funding/fundme.sol": {
		"fundme": {
			"abi": [
				{
					"inputs": [
						{
							"internalType": "address",
							"name": "",
							"type": "address"
						}
					],
					"name": "AddressAndAmount",
					"outputs": [
						{
							"internalType": "uint256",
							"name": "",
							"type": "uint256"
						}
					],
					"stateMutability": "view",
					"type": "function"
				},
				{
					"inputs": [],
					"name": "fund",
					"outputs": [],
					"stateMutability": "payable",
					"type": "function"
				},
				{
					"inputs": [
						{
							"internalType": "uint256",
							"name": "",
							"type": "uint256"
						}
					],
					"name": "funders",
					"outputs": [
						{
							"internalType": "address",
							"name": "",
							"type": "address"
						}
					],
					"stateMutability": "view",
					"type": "function"
				},
				{
					"inputs": [],
					"name": "withdraw",
					"outputs": [],
					"stateMutability": "nonpayable",
					"type": "function"
				}
			],
			"devdoc": {
				"kind": "dev",
				"methods": {},
				"version": 1
			},
			"evm": {
				"assembly": "    /* \"Funding/fundme.sol\":363:2500  contract fundme{... */\n  mstore(0x40, 0x80)\n    /* \"Funding/fundme.sol\":461:470  50 * 1e18 */\n  0x02b5e3af16b1880000\n    /* \"Funding/fundme.sol\":447:470  uint256 usd = 50 * 1e18 */\n  0x00\n  sstore\n    /* \"Funding/fundme.sol\":363:2500  contract fundme{... */\n  callvalue\n  dup1\n  iszero\n  tag_1\n  jumpi\n  0x00\n  dup1\n  revert\ntag_1:\n  pop\n  dataSize(sub_0)\n  dup1\n  dataOffset(sub_0)\n  0x00\n  codecopy\n  0x00\n  return\nstop\n\nsub_0: assembly {\n        /* \"Funding/fundme.sol\":363:2500  contract fundme{... */\n      mstore(0x40, 0x80)\n      jumpi(tag_1, lt(calldatasize, 0x04))\n      shr(0xe0, calldataload(0x00))\n      dup1\n      0x3ccfd60b\n      eq\n      tag_2\n      jumpi\n      dup1\n      0xa75d77a4\n      eq\n      tag_3\n      jumpi\n      dup1\n      0xb60d4288\n      eq\n      tag_4\n      jumpi\n      dup1\n      0xdc0d3dff\n      eq\n      tag_5\n      jumpi\n    tag_1:\n      0x00\n      dup1\n      revert\n        /* \"Funding/fundme.sol\":2461:2497  function withdraw() public{... */\n    tag_2:\n      callvalue\n      dup1\n      iszero\n      tag_6\n      jumpi\n      0x00\n      dup1\n      revert\n    tag_6:\n      pop\n      tag_7\n      tag_8\n      jump\t// in\n    tag_7:\n      stop\n        /* \"Funding/fundme.sol\":545:597  mapping (address => uint256) public AddressAndAmount */\n    tag_3:\n      callvalue\n      dup1\n      iszero\n      tag_9\n      jumpi\n      0x00\n      dup1\n      revert\n    tag_9:\n      pop\n      tag_10\n      0x04\n      dup1\n      calldatasize\n      sub\n      dup2\n      add\n      swap1\n      tag_11\n      swap2\n      swap1\n      tag_12\n      jump\t// in\n    tag_11:\n      tag_13\n      jump\t// in\n    tag_10:\n      mload(0x40)\n      tag_14\n      swap2\n      swap1\n      tag_15\n      jump\t// in\n    tag_14:\n      mload(0x40)\n      dup1\n      swap2\n      sub\n      swap1\n      return\n        /* \"Funding/fundme.sol\":651:1050  function fund() public payable  { //payable is the thing that makes the button red ... */\n    tag_4:\n      tag_16\n      tag_17\n      jump\t// in\n    tag_16:\n      stop\n        /* \"Funding/fundme.sol\":512:537  address [] public funders */\n    tag_5:\n      callvalue\n      dup1\n      iszero\n      tag_18\n      jumpi\n      0x00\n      dup1\n      revert\n    tag_18:\n      pop\n      tag_19\n      0x04\n      dup1\n      calldatasize\n      sub\n      dup2\n      add\n      swap1\n      tag_20\n      swap2\n      swap1\n      tag_21\n      jump\t// in\n    tag_20:\n      tag_22\n      jump\t// in\n    tag_19:\n      mload(0x40)\n      tag_23\n      swap2\n      swap1\n      tag_24\n      jump\t// in\n    tag_23:\n      mload(0x40)\n      dup1\n      swap2\n      sub\n      swap1\n      return\n        /* \"Funding/fundme.sol\":2461:2497  function withdraw() public{... */\n    tag_8:\n      jump\t// out\n        /* \"Funding/fundme.sol\":545:597  mapping (address => uint256) public AddressAndAmount */\n    tag_13:\n      mstore(0x20, 0x02)\n      dup1\n      0x00\n      mstore\n      keccak256(0x00, 0x40)\n      0x00\n      swap2\n      pop\n      swap1\n      pop\n      sload\n      dup2\n      jump\t// out\n        /* \"Funding/fundme.sol\":651:1050  function fund() public payable  { //payable is the thing that makes the button red ... */\n    tag_17:\n        /* \"Funding/fundme.sol\":842:845  usd */\n      sload(0x00)\n        /* \"Funding/fundme.sol\":808:837  msg.value.getconversionrate() */\n      tag_27\n        /* \"Funding/fundme.sol\":808:817  msg.value */\n      callvalue\n        /* \"Funding/fundme.sol\":808:835  msg.value.getconversionrate */\n      tag_28\n        /* \"Funding/fundme.sol\":808:837  msg.value.getconversionrate() */\n      jump\t// in\n    tag_27:\n        /* \"Funding/fundme.sol\":807:845  (msg.value.getconversionrate()) >= usd */\n      lt\n      iszero\n        /* \"Funding/fundme.sol\":799:870  require((msg.value.getconversionrate()) >= usd , \"womp womp you broke\") */\n      tag_29\n      jumpi\n      mload(0x40)\n      0x08c379a000000000000000000000000000000000000000000000000000000000\n      dup2\n      mstore\n      0x04\n      add\n      tag_30\n      swap1\n      tag_31\n      jump\t// in\n    tag_30:\n      mload(0x40)\n      dup1\n      swap2\n      sub\n      swap1\n      revert\n    tag_29:\n        /* \"Funding/fundme.sol\":967:974  funders */\n      0x01\n        /* \"Funding/fundme.sol\":980:990  msg.sender */\n      caller\n        /* \"Funding/fundme.sol\":967:991  funders.push(msg.sender) */\n      swap1\n      dup1\n      0x01\n      dup2\n      sload\n      add\n      dup1\n      dup3\n      sstore\n      dup1\n      swap2\n      pop\n      pop\n      0x01\n      swap1\n      sub\n      swap1\n      0x00\n      mstore\n      keccak256(0x00, 0x20)\n      add\n      0x00\n      swap1\n      swap2\n      swap1\n      swap2\n      swap1\n      swap2\n      0x0100\n      exp\n      dup2\n      sload\n      dup2\n      0xffffffffffffffffffffffffffffffffffffffff\n      mul\n      not\n      and\n      swap1\n      dup4\n      0xffffffffffffffffffffffffffffffffffffffff\n      and\n      mul\n      or\n      swap1\n      sstore\n      pop\n        /* \"Funding/fundme.sol\":1033:1042  msg.value */\n      callvalue\n        /* \"Funding/fundme.sol\":1002:1018  AddressAndAmount */\n      0x02\n        /* \"Funding/fundme.sol\":1002:1030  AddressAndAmount[msg.sender] */\n      0x00\n        /* \"Funding/fundme.sol\":1019:1029  msg.sender */\n      caller\n        /* \"Funding/fundme.sol\":1002:1030  AddressAndAmount[msg.sender] */\n      0xffffffffffffffffffffffffffffffffffffffff\n      and\n      0xffffffffffffffffffffffffffffffffffffffff\n      and\n      dup2\n      mstore\n      0x20\n      add\n      swap1\n      dup2\n      mstore\n      0x20\n      add\n      0x00\n      keccak256\n        /* \"Funding/fundme.sol\":1002:1042  AddressAndAmount[msg.sender] = msg.value */\n      dup2\n      swap1\n      sstore\n      pop\n        /* \"Funding/fundme.sol\":651:1050  function fund() public payable  { //payable is the thing that makes the button red ... */\n      jump\t// out\n        /* \"Funding/fundme.sol\":512:537  address [] public funders */\n    tag_22:\n      0x01\n      dup2\n      dup2\n      sload\n      dup2\n      lt\n      tag_33\n      jumpi\n      0x00\n      dup1\n      revert\n    tag_33:\n      swap1\n      0x00\n      mstore\n      keccak256(0x00, 0x20)\n      add\n      0x00\n      swap2\n      pop\n      sload\n      swap1\n      0x0100\n      exp\n      swap1\n      div\n      0xffffffffffffffffffffffffffffffffffffffff\n      and\n      dup2\n      jump\t// out\n        /* \"Funding/PriceConverter.sol\":488:698  function getconversionrate(uint256 ethAmount) internal view returns (uint256){... */\n    tag_28:\n        /* \"Funding/PriceConverter.sol\":557:564  uint256 */\n      0x00\n        /* \"Funding/PriceConverter.sol\":576:592  uint256 ethPrice */\n      dup1\n        /* \"Funding/PriceConverter.sol\":595:605  getprice() */\n      tag_36\n        /* \"Funding/PriceConverter.sol\":595:603  getprice */\n      tag_37\n        /* \"Funding/PriceConverter.sol\":595:605  getprice() */\n      jump\t// in\n    tag_36:\n        /* \"Funding/PriceConverter.sol\":576:605  uint256 ethPrice = getprice() */\n      swap1\n      pop\n        /* \"Funding/PriceConverter.sol\":616:632  uint256 ethinusd */\n      0x00\n        /* \"Funding/PriceConverter.sol\":658:662  1e18 */\n      0x0de0b6b3a7640000\n        /* \"Funding/PriceConverter.sol\":646:654  ethPrice */\n      dup3\n        /* \"Funding/PriceConverter.sol\":636:645  ethAmount */\n      dup6\n        /* \"Funding/PriceConverter.sol\":636:654  ethAmount*ethPrice */\n      tag_38\n      swap2\n      swap1\n      tag_39\n      jump\t// in\n    tag_38:\n        /* \"Funding/PriceConverter.sol\":635:662  (ethAmount*ethPrice) / 1e18 */\n      tag_40\n      swap2\n      swap1\n      tag_41\n      jump\t// in\n    tag_40:\n        /* \"Funding/PriceConverter.sol\":616:662  uint256 ethinusd = (ethAmount*ethPrice) / 1e18 */\n      swap1\n      pop\n        /* \"Funding/PriceConverter.sol\":681:689  ethinusd */\n      dup1\n        /* \"Funding/PriceConverter.sol\":673:690  return (ethinusd) */\n      swap3\n      pop\n      pop\n      pop\n        /* \"Funding/PriceConverter.sol\":488:698  function getconversionrate(uint256 ethAmount) internal view returns (uint256){... */\n      swap2\n      swap1\n      pop\n      jump\t// out\n        /* \"Funding/PriceConverter.sol\":209:476  function getprice() internal view returns (uint256) { ... */\n    tag_37:\n        /* \"Funding/PriceConverter.sol\":252:259  uint256 */\n      0x00\n        /* \"Funding/PriceConverter.sol\":273:304  AggregatorV3Interface pricefeed */\n      dup1\n        /* \"Funding/PriceConverter.sol\":329:371  0x1b44F3514812d835EB1BDB0acB33d3fA3351Ee43 */\n      0x1b44f3514812d835eb1bdb0acb33d3fa3351ee43\n        /* \"Funding/PriceConverter.sol\":273:372  AggregatorV3Interface pricefeed = AggregatorV3Interface(0x1b44F3514812d835EB1BDB0acB33d3fA3351Ee43) */\n      swap1\n      pop\n        /* \"Funding/PriceConverter.sol\":386:396  int answer */\n      0x00\n        /* \"Funding/PriceConverter.sol\":401:410  pricefeed */\n      dup2\n        /* \"Funding/PriceConverter.sol\":401:426  pricefeed.latestRoundData */\n      0xffffffffffffffffffffffffffffffffffffffff\n      and\n      0xfeaf968c\n        /* \"Funding/PriceConverter.sol\":401:428  pricefeed.latestRoundData() */\n      mload(0x40)\n      dup2\n      0xffffffff\n      and\n      0xe0\n      shl\n      dup2\n      mstore\n      0x04\n      add\n      0xa0\n      mload(0x40)\n      dup1\n      dup4\n      sub\n      dup2\n      dup7\n      gas\n      staticcall\n      iszero\n      dup1\n      iszero\n      tag_44\n      jumpi\n      returndatasize\n      0x00\n      dup1\n      returndatacopy\n      revert(0x00, returndatasize)\n    tag_44:\n      pop\n      pop\n      pop\n      pop\n      mload(0x40)\n      returndatasize\n      not(0x1f)\n      0x1f\n      dup3\n      add\n      and\n      dup3\n      add\n      dup1\n      0x40\n      mstore\n      pop\n      dup2\n      add\n      swap1\n      tag_45\n      swap2\n      swap1\n      tag_46\n      jump\t// in\n    tag_45:\n        /* \"Funding/PriceConverter.sol\":384:428  (,int answer,,,)=pricefeed.latestRoundData() */\n      pop\n      pop\n      pop\n      swap2\n      pop\n      pop\n        /* \"Funding/PriceConverter.sol\":463:467  1e18 */\n      0x0de0b6b3a7640000\n        /* \"Funding/PriceConverter.sol\":454:460  answer */\n      dup2\n        /* \"Funding/PriceConverter.sol\":454:467  answer * 1e18 */\n      tag_47\n      swap2\n      swap1\n      tag_48\n      jump\t// in\n    tag_47:\n        /* \"Funding/PriceConverter.sol\":439:468  return uint256(answer * 1e18) */\n      swap3\n      pop\n      pop\n      pop\n        /* \"Funding/PriceConverter.sol\":209:476  function getprice() internal view returns (uint256) { ... */\n      swap1\n      jump\t// out\n        /* \"#utility.yul\":88:205   */\n    tag_50:\n        /* \"#utility.yul\":197:198   */\n      0x00\n        /* \"#utility.yul\":194:195   */\n      dup1\n        /* \"#utility.yul\":187:199   */\n      revert\n        /* \"#utility.yul\":334:460   */\n    tag_52:\n        /* \"#utility.yul\":371:378   */\n      0x00\n        /* \"#utility.yul\":411:453   */\n      0xffffffffffffffffffffffffffffffffffffffff\n        /* \"#utility.yul\":404:409   */\n      dup3\n        /* \"#utility.yul\":400:454   */\n      and\n        /* \"#utility.yul\":389:454   */\n      swap1\n      pop\n        /* \"#utility.yul\":334:460   */\n      swap2\n      swap1\n      pop\n      jump\t// out\n        /* \"#utility.yul\":466:562   */\n    tag_53:\n        /* \"#utility.yul\":503:510   */\n      0x00\n        /* \"#utility.yul\":532:556   */\n      tag_79\n        /* \"#utility.yul\":550:555   */\n      dup3\n        /* \"#utility.yul\":532:556   */\n      tag_52\n      jump\t// in\n    tag_79:\n        /* \"#utility.yul\":521:556   */\n      swap1\n      pop\n        /* \"#utility.yul\":466:562   */\n      swap2\n      swap1\n      pop\n      jump\t// out\n        /* \"#utility.yul\":568:690   */\n    tag_54:\n        /* \"#utility.yul\":641:665   */\n      tag_81\n        /* \"#utility.yul\":659:664   */\n      dup2\n        /* \"#utility.yul\":641:665   */\n      tag_53\n      jump\t// in\n    tag_81:\n        /* \"#utility.yul\":634:639   */\n      dup2\n        /* \"#utility.yul\":631:666   */\n      eq\n        /* \"#utility.yul\":621:684   */\n      tag_82\n      jumpi\n        /* \"#utility.yul\":680:681   */\n      0x00\n        /* \"#utility.yul\":677:678   */\n      dup1\n        /* \"#utility.yul\":670:682   */\n      revert\n        /* \"#utility.yul\":621:684   */\n    tag_82:\n        /* \"#utility.yul\":568:690   */\n      pop\n      jump\t// out\n        /* \"#utility.yul\":696:835   */\n    tag_55:\n        /* \"#utility.yul\":742:747   */\n      0x00\n        /* \"#utility.yul\":780:786   */\n      dup2\n        /* \"#utility.yul\":767:787   */\n      calldataload\n        /* \"#utility.yul\":758:787   */\n      swap1\n      pop\n        /* \"#utility.yul\":796:829   */\n      tag_84\n        /* \"#utility.yul\":823:828   */\n      dup2\n        /* \"#utility.yul\":796:829   */\n      tag_54\n      jump\t// in\n    tag_84:\n        /* \"#utility.yul\":696:835   */\n      swap3\n      swap2\n      pop\n      pop\n      jump\t// out\n        /* \"#utility.yul\":841:1170   */\n    tag_12:\n        /* \"#utility.yul\":900:906   */\n      0x00\n        /* \"#utility.yul\":949:951   */\n      0x20\n        /* \"#utility.yul\":937:946   */\n      dup3\n        /* \"#utility.yul\":928:935   */\n      dup5\n        /* \"#utility.yul\":924:947   */\n      sub\n        /* \"#utility.yul\":920:952   */\n      slt\n        /* \"#utility.yul\":917:1036   */\n      iszero\n      tag_86\n      jumpi\n        /* \"#utility.yul\":955:1034   */\n      tag_87\n      tag_50\n      jump\t// in\n    tag_87:\n        /* \"#utility.yul\":917:1036   */\n    tag_86:\n        /* \"#utility.yul\":1075:1076   */\n      0x00\n        /* \"#utility.yul\":1100:1153   */\n      tag_88\n        /* \"#utility.yul\":1145:1152   */\n      dup5\n        /* \"#utility.yul\":1136:1142   */\n      dup3\n        /* \"#utility.yul\":1125:1134   */\n      dup6\n        /* \"#utility.yul\":1121:1143   */\n      add\n        /* \"#utility.yul\":1100:1153   */\n      tag_55\n      jump\t// in\n    tag_88:\n        /* \"#utility.yul\":1090:1153   */\n      swap2\n      pop\n        /* \"#utility.yul\":1046:1163   */\n      pop\n        /* \"#utility.yul\":841:1170   */\n      swap3\n      swap2\n      pop\n      pop\n      jump\t// out\n        /* \"#utility.yul\":1176:1253   */\n    tag_56:\n        /* \"#utility.yul\":1213:1220   */\n      0x00\n        /* \"#utility.yul\":1242:1247   */\n      dup2\n        /* \"#utility.yul\":1231:1247   */\n      swap1\n      pop\n        /* \"#utility.yul\":1176:1253   */\n      swap2\n      swap1\n      pop\n      jump\t// out\n        /* \"#utility.yul\":1259:1377   */\n    tag_57:\n        /* \"#utility.yul\":1346:1370   */\n      tag_91\n        /* \"#utility.yul\":1364:1369   */\n      dup2\n        /* \"#utility.yul\":1346:1370   */\n      tag_56\n      jump\t// in\n    tag_91:\n        /* \"#utility.yul\":1341:1344   */\n      dup3\n        /* \"#utility.yul\":1334:1371   */\n      mstore\n        /* \"#utility.yul\":1259:1377   */\n      pop\n      pop\n      jump\t// out\n        /* \"#utility.yul\":1383:1605   */\n    tag_15:\n        /* \"#utility.yul\":1476:1480   */\n      0x00\n        /* \"#utility.yul\":1514:1516   */\n      0x20\n        /* \"#utility.yul\":1503:1512   */\n      dup3\n        /* \"#utility.yul\":1499:1517   */\n      add\n        /* \"#utility.yul\":1491:1517   */\n      swap1\n      pop\n        /* \"#utility.yul\":1527:1598   */\n      tag_93\n        /* \"#utility.yul\":1595:1596   */\n      0x00\n        /* \"#utility.yul\":1584:1593   */\n      dup4\n        /* \"#utility.yul\":1580:1597   */\n      add\n        /* \"#utility.yul\":1571:1577   */\n      dup5\n        /* \"#utility.yul\":1527:1598   */\n      tag_57\n      jump\t// in\n    tag_93:\n        /* \"#utility.yul\":1383:1605   */\n      swap3\n      swap2\n      pop\n      pop\n      jump\t// out\n        /* \"#utility.yul\":1611:1733   */\n    tag_58:\n        /* \"#utility.yul\":1684:1708   */\n      tag_95\n        /* \"#utility.yul\":1702:1707   */\n      dup2\n        /* \"#utility.yul\":1684:1708   */\n      tag_56\n      jump\t// in\n    tag_95:\n        /* \"#utility.yul\":1677:1682   */\n      dup2\n        /* \"#utility.yul\":1674:1709   */\n      eq\n        /* \"#utility.yul\":1664:1727   */\n      tag_96\n      jumpi\n        /* \"#utility.yul\":1723:1724   */\n      0x00\n        /* \"#utility.yul\":1720:1721   */\n      dup1\n        /* \"#utility.yul\":1713:1725   */\n      revert\n        /* \"#utility.yul\":1664:1727   */\n    tag_96:\n        /* \"#utility.yul\":1611:1733   */\n      pop\n      jump\t// out\n        /* \"#utility.yul\":1739:1878   */\n    tag_59:\n        /* \"#utility.yul\":1785:1790   */\n      0x00\n        /* \"#utility.yul\":1823:1829   */\n      dup2\n        /* \"#utility.yul\":1810:1830   */\n      calldataload\n        /* \"#utility.yul\":1801:1830   */\n      swap1\n      pop\n        /* \"#utility.yul\":1839:1872   */\n      tag_98\n        /* \"#utility.yul\":1866:1871   */\n      dup2\n        /* \"#utility.yul\":1839:1872   */\n      tag_58\n      jump\t// in\n    tag_98:\n        /* \"#utility.yul\":1739:1878   */\n      swap3\n      swap2\n      pop\n      pop\n      jump\t// out\n        /* \"#utility.yul\":1884:2213   */\n    tag_21:\n        /* \"#utility.yul\":1943:1949   */\n      0x00\n        /* \"#utility.yul\":1992:1994   */\n      0x20\n        /* \"#utility.yul\":1980:1989   */\n      dup3\n        /* \"#utility.yul\":1971:1978   */\n      dup5\n        /* \"#utility.yul\":1967:1990   */\n      sub\n        /* \"#utility.yul\":1963:1995   */\n      slt\n        /* \"#utility.yul\":1960:2079   */\n      iszero\n      tag_100\n      jumpi\n        /* \"#utility.yul\":1998:2077   */\n      tag_101\n      tag_50\n      jump\t// in\n    tag_101:\n        /* \"#utility.yul\":1960:2079   */\n    tag_100:\n        /* \"#utility.yul\":2118:2119   */\n      0x00\n        /* \"#utility.yul\":2143:2196   */\n      tag_102\n        /* \"#utility.yul\":2188:2195   */\n      dup5\n        /* \"#utility.yul\":2179:2185   */\n      dup3\n        /* \"#utility.yul\":2168:2177   */\n      dup6\n        /* \"#utility.yul\":2164:2186   */\n      add\n        /* \"#utility.yul\":2143:2196   */\n      tag_59\n      jump\t// in\n    tag_102:\n        /* \"#utility.yul\":2133:2196   */\n      swap2\n      pop\n        /* \"#utility.yul\":2089:2206   */\n      pop\n        /* \"#utility.yul\":1884:2213   */\n      swap3\n      swap2\n      pop\n      pop\n      jump\t// out\n        /* \"#utility.yul\":2219:2337   */\n    tag_60:\n        /* \"#utility.yul\":2306:2330   */\n      tag_104\n        /* \"#utility.yul\":2324:2329   */\n      dup2\n        /* \"#utility.yul\":2306:2330   */\n      tag_53\n      jump\t// in\n    tag_104:\n        /* \"#utility.yul\":2301:2304   */\n      dup3\n        /* \"#utility.yul\":2294:2331   */\n      mstore\n        /* \"#utility.yul\":2219:2337   */\n      pop\n      pop\n      jump\t// out\n        /* \"#utility.yul\":2343:2565   */\n    tag_24:\n        /* \"#utility.yul\":2436:2440   */\n      0x00\n        /* \"#utility.yul\":2474:2476   */\n      0x20\n        /* \"#utility.yul\":2463:2472   */\n      dup3\n        /* \"#utility.yul\":2459:2477   */\n      add\n        /* \"#utility.yul\":2451:2477   */\n      swap1\n      pop\n        /* \"#utility.yul\":2487:2558   */\n      tag_106\n        /* \"#utility.yul\":2555:2556   */\n      0x00\n        /* \"#utility.yul\":2544:2553   */\n      dup4\n        /* \"#utility.yul\":2540:2557   */\n      add\n        /* \"#utility.yul\":2531:2537   */\n      dup5\n        /* \"#utility.yul\":2487:2558   */\n      tag_60\n      jump\t// in\n    tag_106:\n        /* \"#utility.yul\":2343:2565   */\n      swap3\n      swap2\n      pop\n      pop\n      jump\t// out\n        /* \"#utility.yul\":2571:2740   */\n    tag_61:\n        /* \"#utility.yul\":2655:2666   */\n      0x00\n        /* \"#utility.yul\":2689:2695   */\n      dup3\n        /* \"#utility.yul\":2684:2687   */\n      dup3\n        /* \"#utility.yul\":2677:2696   */\n      mstore\n        /* \"#utility.yul\":2729:2733   */\n      0x20\n        /* \"#utility.yul\":2724:2727   */\n      dup3\n        /* \"#utility.yul\":2720:2734   */\n      add\n        /* \"#utility.yul\":2705:2734   */\n      swap1\n      pop\n        /* \"#utility.yul\":2571:2740   */\n      swap3\n      swap2\n      pop\n      pop\n      jump\t// out\n        /* \"#utility.yul\":2746:2915   */\n    tag_62:\n        /* \"#utility.yul\":2886:2907   */\n      0x776f6d7020776f6d7020796f752062726f6b6500000000000000000000000000\n        /* \"#utility.yul\":2882:2883   */\n      0x00\n        /* \"#utility.yul\":2874:2880   */\n      dup3\n        /* \"#utility.yul\":2870:2884   */\n      add\n        /* \"#utility.yul\":2863:2908   */\n      mstore\n        /* \"#utility.yul\":2746:2915   */\n      pop\n      jump\t// out\n        /* \"#utility.yul\":2921:3287   */\n    tag_63:\n        /* \"#utility.yul\":3063:3066   */\n      0x00\n        /* \"#utility.yul\":3084:3151   */\n      tag_110\n        /* \"#utility.yul\":3148:3150   */\n      0x13\n        /* \"#utility.yul\":3143:3146   */\n      dup4\n        /* \"#utility.yul\":3084:3151   */\n      tag_61\n      jump\t// in\n    tag_110:\n        /* \"#utility.yul\":3077:3151   */\n      swap2\n      pop\n        /* \"#utility.yul\":3160:3253   */\n      tag_111\n        /* \"#utility.yul\":3249:3252   */\n      dup3\n        /* \"#utility.yul\":3160:3253   */\n      tag_62\n      jump\t// in\n    tag_111:\n        /* \"#utility.yul\":3278:3280   */\n      0x20\n        /* \"#utility.yul\":3273:3276   */\n      dup3\n        /* \"#utility.yul\":3269:3281   */\n      add\n        /* \"#utility.yul\":3262:3281   */\n      swap1\n      pop\n        /* \"#utility.yul\":2921:3287   */\n      swap2\n      swap1\n      pop\n      jump\t// out\n        /* \"#utility.yul\":3293:3712   */\n    tag_31:\n        /* \"#utility.yul\":3459:3463   */\n      0x00\n        /* \"#utility.yul\":3497:3499   */\n      0x20\n        /* \"#utility.yul\":3486:3495   */\n      dup3\n        /* \"#utility.yul\":3482:3500   */\n      add\n        /* \"#utility.yul\":3474:3500   */\n      swap1\n      pop\n        /* \"#utility.yul\":3546:3555   */\n      dup2\n        /* \"#utility.yul\":3540:3544   */\n      dup2\n        /* \"#utility.yul\":3536:3556   */\n      sub\n        /* \"#utility.yul\":3532:3533   */\n      0x00\n        /* \"#utility.yul\":3521:3530   */\n      dup4\n        /* \"#utility.yul\":3517:3534   */\n      add\n        /* \"#utility.yul\":3510:3557   */\n      mstore\n        /* \"#utility.yul\":3574:3705   */\n      tag_113\n        /* \"#utility.yul\":3700:3704   */\n      dup2\n        /* \"#utility.yul\":3574:3705   */\n      tag_63\n      jump\t// in\n    tag_113:\n        /* \"#utility.yul\":3566:3705   */\n      swap1\n      pop\n        /* \"#utility.yul\":3293:3712   */\n      swap2\n      swap1\n      pop\n      jump\t// out\n        /* \"#utility.yul\":3718:3898   */\n    tag_64:\n        /* \"#utility.yul\":3766:3843   */\n      0x4e487b7100000000000000000000000000000000000000000000000000000000\n        /* \"#utility.yul\":3763:3764   */\n      0x00\n        /* \"#utility.yul\":3756:3844   */\n      mstore\n        /* \"#utility.yul\":3863:3867   */\n      0x11\n        /* \"#utility.yul\":3860:3861   */\n      0x04\n        /* \"#utility.yul\":3853:3868   */\n      mstore\n        /* \"#utility.yul\":3887:3891   */\n      0x24\n        /* \"#utility.yul\":3884:3885   */\n      0x00\n        /* \"#utility.yul\":3877:3892   */\n      revert\n        /* \"#utility.yul\":3904:4314   */\n    tag_39:\n        /* \"#utility.yul\":3944:3951   */\n      0x00\n        /* \"#utility.yul\":3967:3987   */\n      tag_116\n        /* \"#utility.yul\":3985:3986   */\n      dup3\n        /* \"#utility.yul\":3967:3987   */\n      tag_56\n      jump\t// in\n    tag_116:\n        /* \"#utility.yul\":3962:3987   */\n      swap2\n      pop\n        /* \"#utility.yul\":4001:4021   */\n      tag_117\n        /* \"#utility.yul\":4019:4020   */\n      dup4\n        /* \"#utility.yul\":4001:4021   */\n      tag_56\n      jump\t// in\n    tag_117:\n        /* \"#utility.yul\":3996:4021   */\n      swap3\n      pop\n        /* \"#utility.yul\":4056:4057   */\n      dup3\n        /* \"#utility.yul\":4053:4054   */\n      dup3\n        /* \"#utility.yul\":4049:4058   */\n      mul\n        /* \"#utility.yul\":4078:4108   */\n      tag_118\n        /* \"#utility.yul\":4096:4107   */\n      dup2\n        /* \"#utility.yul\":4078:4108   */\n      tag_56\n      jump\t// in\n    tag_118:\n        /* \"#utility.yul\":4067:4108   */\n      swap2\n      pop\n        /* \"#utility.yul\":4257:4258   */\n      dup3\n        /* \"#utility.yul\":4248:4255   */\n      dup3\n        /* \"#utility.yul\":4244:4259   */\n      div\n        /* \"#utility.yul\":4241:4242   */\n      dup5\n        /* \"#utility.yul\":4238:4260   */\n      eq\n        /* \"#utility.yul\":4218:4219   */\n      dup4\n        /* \"#utility.yul\":4211:4220   */\n      iszero\n        /* \"#utility.yul\":4191:4274   */\n      or\n        /* \"#utility.yul\":4168:4307   */\n      tag_119\n      jumpi\n        /* \"#utility.yul\":4287:4305   */\n      tag_120\n      tag_64\n      jump\t// in\n    tag_120:\n        /* \"#utility.yul\":4168:4307   */\n    tag_119:\n        /* \"#utility.yul\":3952:4314   */\n      pop\n        /* \"#utility.yul\":3904:4314   */\n      swap3\n      swap2\n      pop\n      pop\n      jump\t// out\n        /* \"#utility.yul\":4320:4500   */\n    tag_65:\n        /* \"#utility.yul\":4368:4445   */\n      0x4e487b7100000000000000000000000000000000000000000000000000000000\n        /* \"#utility.yul\":4365:4366   */\n      0x00\n        /* \"#utility.yul\":4358:4446   */\n      mstore\n        /* \"#utility.yul\":4465:4469   */\n      0x12\n        /* \"#utility.yul\":4462:4463   */\n      0x04\n        /* \"#utility.yul\":4455:4470   */\n      mstore\n        /* \"#utility.yul\":4489:4493   */\n      0x24\n        /* \"#utility.yul\":4486:4487   */\n      0x00\n        /* \"#utility.yul\":4479:4494   */\n      revert\n        /* \"#utility.yul\":4506:4691   */\n    tag_41:\n        /* \"#utility.yul\":4546:4547   */\n      0x00\n        /* \"#utility.yul\":4563:4583   */\n      tag_123\n        /* \"#utility.yul\":4581:4582   */\n      dup3\n        /* \"#utility.yul\":4563:4583   */\n      tag_56\n      jump\t// in\n    tag_123:\n        /* \"#utility.yul\":4558:4583   */\n      swap2\n      pop\n        /* \"#utility.yul\":4597:4617   */\n      tag_124\n        /* \"#utility.yul\":4615:4616   */\n      dup4\n        /* \"#utility.yul\":4597:4617   */\n      tag_56\n      jump\t// in\n    tag_124:\n        /* \"#utility.yul\":4592:4617   */\n      swap3\n      pop\n        /* \"#utility.yul\":4636:4637   */\n      dup3\n        /* \"#utility.yul\":4626:4661   */\n      tag_125\n      jumpi\n        /* \"#utility.yul\":4641:4659   */\n      tag_126\n      tag_65\n      jump\t// in\n    tag_126:\n        /* \"#utility.yul\":4626:4661   */\n    tag_125:\n        /* \"#utility.yul\":4683:4684   */\n      dup3\n        /* \"#utility.yul\":4680:4681   */\n      dup3\n        /* \"#utility.yul\":4676:4685   */\n      div\n        /* \"#utility.yul\":4671:4685   */\n      swap1\n      pop\n        /* \"#utility.yul\":4506:4691   */\n      swap3\n      swap2\n      pop\n      pop\n      jump\t// out\n        /* \"#utility.yul\":4697:4802   */\n    tag_66:\n        /* \"#utility.yul\":4733:4740   */\n      0x00\n        /* \"#utility.yul\":4773:4795   */\n      0xffffffffffffffffffff\n        /* \"#utility.yul\":4766:4771   */\n      dup3\n        /* \"#utility.yul\":4762:4796   */\n      and\n        /* \"#utility.yul\":4751:4796   */\n      swap1\n      pop\n        /* \"#utility.yul\":4697:4802   */\n      swap2\n      swap1\n      pop\n      jump\t// out\n        /* \"#utility.yul\":4808:4928   */\n    tag_67:\n        /* \"#utility.yul\":4880:4903   */\n      tag_129\n        /* \"#utility.yul\":4897:4902   */\n      dup2\n        /* \"#utility.yul\":4880:4903   */\n      tag_66\n      jump\t// in\n    tag_129:\n        /* \"#utility.yul\":4873:4878   */\n      dup2\n        /* \"#utility.yul\":4870:4904   */\n      eq\n        /* \"#utility.yul\":4860:4922   */\n      tag_130\n      jumpi\n        /* \"#utility.yul\":4918:4919   */\n      0x00\n        /* \"#utility.yul\":4915:4916   */\n      dup1\n        /* \"#utility.yul\":4908:4920   */\n      revert\n        /* \"#utility.yul\":4860:4922   */\n    tag_130:\n        /* \"#utility.yul\":4808:4928   */\n      pop\n      jump\t// out\n        /* \"#utility.yul\":4934:5075   */\n    tag_68:\n        /* \"#utility.yul\":4990:4995   */\n      0x00\n        /* \"#utility.yul\":5021:5027   */\n      dup2\n        /* \"#utility.yul\":5015:5028   */\n      mload\n        /* \"#utility.yul\":5006:5028   */\n      swap1\n      pop\n        /* \"#utility.yul\":5037:5069   */\n      tag_132\n        /* \"#utility.yul\":5063:5068   */\n      dup2\n        /* \"#utility.yul\":5037:5069   */\n      tag_67\n      jump\t// in\n    tag_132:\n        /* \"#utility.yul\":4934:5075   */\n      swap3\n      swap2\n      pop\n      pop\n      jump\t// out\n        /* \"#utility.yul\":5081:5157   */\n    tag_69:\n        /* \"#utility.yul\":5117:5124   */\n      0x00\n        /* \"#utility.yul\":5146:5151   */\n      dup2\n        /* \"#utility.yul\":5135:5151   */\n      swap1\n      pop\n        /* \"#utility.yul\":5081:5157   */\n      swap2\n      swap1\n      pop\n      jump\t// out\n        /* \"#utility.yul\":5163:5283   */\n    tag_70:\n        /* \"#utility.yul\":5235:5258   */\n      tag_135\n        /* \"#utility.yul\":5252:5257   */\n      dup2\n        /* \"#utility.yul\":5235:5258   */\n      tag_69\n      jump\t// in\n    tag_135:\n        /* \"#utility.yul\":5228:5233   */\n      dup2\n        /* \"#utility.yul\":5225:5259   */\n      eq\n        /* \"#utility.yul\":5215:5277   */\n      tag_136\n      jumpi\n        /* \"#utility.yul\":5273:5274   */\n      0x00\n        /* \"#utility.yul\":5270:5271   */\n      dup1\n        /* \"#utility.yul\":5263:5275   */\n      revert\n        /* \"#utility.yul\":5215:5277   */\n    tag_136:\n        /* \"#utility.yul\":5163:5283   */\n      pop\n      jump\t// out\n        /* \"#utility.yul\":5289:5430   */\n    tag_71:\n        /* \"#utility.yul\":5345:5350   */\n      0x00\n        /* \"#utility.yul\":5376:5382   */\n      dup2\n        /* \"#utility.yul\":5370:5383   */\n      mload\n        /* \"#utility.yul\":5361:5383   */\n      swap1\n      pop\n        /* \"#utility.yul\":5392:5424   */\n      tag_138\n        /* \"#utility.yul\":5418:5423   */\n      dup2\n        /* \"#utility.yul\":5392:5424   */\n      tag_70\n      jump\t// in\n    tag_138:\n        /* \"#utility.yul\":5289:5430   */\n      swap3\n      swap2\n      pop\n      pop\n      jump\t// out\n        /* \"#utility.yul\":5436:5579   */\n    tag_72:\n        /* \"#utility.yul\":5493:5498   */\n      0x00\n        /* \"#utility.yul\":5524:5530   */\n      dup2\n        /* \"#utility.yul\":5518:5531   */\n      mload\n        /* \"#utility.yul\":5509:5531   */\n      swap1\n      pop\n        /* \"#utility.yul\":5540:5573   */\n      tag_140\n        /* \"#utility.yul\":5567:5572   */\n      dup2\n        /* \"#utility.yul\":5540:5573   */\n      tag_58\n      jump\t// in\n    tag_140:\n        /* \"#utility.yul\":5436:5579   */\n      swap3\n      swap2\n      pop\n      pop\n      jump\t// out\n        /* \"#utility.yul\":5585:6556   */\n    tag_46:\n        /* \"#utility.yul\":5688:5694   */\n      0x00\n        /* \"#utility.yul\":5696:5702   */\n      dup1\n        /* \"#utility.yul\":5704:5710   */\n      0x00\n        /* \"#utility.yul\":5712:5718   */\n      dup1\n        /* \"#utility.yul\":5720:5726   */\n      0x00\n        /* \"#utility.yul\":5769:5772   */\n      0xa0\n        /* \"#utility.yul\":5757:5766   */\n      dup7\n        /* \"#utility.yul\":5748:5755   */\n      dup9\n        /* \"#utility.yul\":5744:5767   */\n      sub\n        /* \"#utility.yul\":5740:5773   */\n      slt\n        /* \"#utility.yul\":5737:5857   */\n      iszero\n      tag_142\n      jumpi\n        /* \"#utility.yul\":5776:5855   */\n      tag_143\n      tag_50\n      jump\t// in\n    tag_143:\n        /* \"#utility.yul\":5737:5857   */\n    tag_142:\n        /* \"#utility.yul\":5896:5897   */\n      0x00\n        /* \"#utility.yul\":5921:5984   */\n      tag_144\n        /* \"#utility.yul\":5976:5983   */\n      dup9\n        /* \"#utility.yul\":5967:5973   */\n      dup3\n        /* \"#utility.yul\":5956:5965   */\n      dup10\n        /* \"#utility.yul\":5952:5974   */\n      add\n        /* \"#utility.yul\":5921:5984   */\n      tag_68\n      jump\t// in\n    tag_144:\n        /* \"#utility.yul\":5911:5984   */\n      swap6\n      pop\n        /* \"#utility.yul\":5867:5994   */\n      pop\n        /* \"#utility.yul\":6033:6035   */\n      0x20\n        /* \"#utility.yul\":6059:6122   */\n      tag_145\n        /* \"#utility.yul\":6114:6121   */\n      dup9\n        /* \"#utility.yul\":6105:6111   */\n      dup3\n        /* \"#utility.yul\":6094:6103   */\n      dup10\n        /* \"#utility.yul\":6090:6112   */\n      add\n        /* \"#utility.yul\":6059:6122   */\n      tag_71\n      jump\t// in\n    tag_145:\n        /* \"#utility.yul\":6049:6122   */\n      swap5\n      pop\n        /* \"#utility.yul\":6004:6132   */\n      pop\n        /* \"#utility.yul\":6171:6173   */\n      0x40\n        /* \"#utility.yul\":6197:6261   */\n      tag_146\n        /* \"#utility.yul\":6253:6260   */\n      dup9\n        /* \"#utility.yul\":6244:6250   */\n      dup3\n        /* \"#utility.yul\":6233:6242   */\n      dup10\n        /* \"#utility.yul\":6229:6251   */\n      add\n        /* \"#utility.yul\":6197:6261   */\n      tag_72\n      jump\t// in\n    tag_146:\n        /* \"#utility.yul\":6187:6261   */\n      swap4\n      pop\n        /* \"#utility.yul\":6142:6271   */\n      pop\n        /* \"#utility.yul\":6310:6312   */\n      0x60\n        /* \"#utility.yul\":6336:6400   */\n      tag_147\n        /* \"#utility.yul\":6392:6399   */\n      dup9\n        /* \"#utility.yul\":6383:6389   */\n      dup3\n        /* \"#utility.yul\":6372:6381   */\n      dup10\n        /* \"#utility.yul\":6368:6390   */\n      add\n        /* \"#utility.yul\":6336:6400   */\n      tag_72\n      jump\t// in\n    tag_147:\n        /* \"#utility.yul\":6326:6400   */\n      swap3\n      pop\n        /* \"#utility.yul\":6281:6410   */\n      pop\n        /* \"#utility.yul\":6449:6452   */\n      0x80\n        /* \"#utility.yul\":6476:6539   */\n      tag_148\n        /* \"#utility.yul\":6531:6538   */\n      dup9\n        /* \"#utility.yul\":6522:6528   */\n      dup3\n        /* \"#utility.yul\":6511:6520   */\n      dup10\n        /* \"#utility.yul\":6507:6529   */\n      add\n        /* \"#utility.yul\":6476:6539   */\n      tag_68\n      jump\t// in\n    tag_148:\n        /* \"#utility.yul\":6466:6539   */\n      swap2\n      pop\n        /* \"#utility.yul\":6420:6549   */\n      pop\n        /* \"#utility.yul\":5585:6556   */\n      swap3\n      swap6\n      pop\n      swap3\n      swap6\n      swap1\n      swap4\n      pop\n      jump\t// out\n        /* \"#utility.yul\":6562:7118   */\n    tag_48:\n        /* \"#utility.yul\":6601:6608   */\n      0x00\n        /* \"#utility.yul\":6624:6643   */\n      tag_150\n        /* \"#utility.yul\":6641:6642   */\n      dup3\n        /* \"#utility.yul\":6624:6643   */\n      tag_69\n      jump\t// in\n    tag_150:\n        /* \"#utility.yul\":6619:6643   */\n      swap2\n      pop\n        /* \"#utility.yul\":6657:6676   */\n      tag_151\n        /* \"#utility.yul\":6674:6675   */\n      dup4\n        /* \"#utility.yul\":6657:6676   */\n      tag_69\n      jump\t// in\n    tag_151:\n        /* \"#utility.yul\":6652:6676   */\n      swap3\n      pop\n        /* \"#utility.yul\":6711:6712   */\n      dup3\n        /* \"#utility.yul\":6708:6709   */\n      dup3\n        /* \"#utility.yul\":6704:6713   */\n      mul\n        /* \"#utility.yul\":6733:6762   */\n      tag_152\n        /* \"#utility.yul\":6750:6761   */\n      dup2\n        /* \"#utility.yul\":6733:6762   */\n      tag_69\n      jump\t// in\n    tag_152:\n        /* \"#utility.yul\":6722:6762   */\n      swap2\n      pop\n        /* \"#utility.yul\":6820:6886   */\n      0x8000000000000000000000000000000000000000000000000000000000000000\n        /* \"#utility.yul\":6817:6818   */\n      dup5\n        /* \"#utility.yul\":6814:6887   */\n      eq\n        /* \"#utility.yul\":6810:6811   */\n      0x00\n        /* \"#utility.yul\":6807:6808   */\n      dup5\n        /* \"#utility.yul\":6803:6812   */\n      slt\n        /* \"#utility.yul\":6799:6888   */\n      and\n        /* \"#utility.yul\":6796:6911   */\n      iszero\n      tag_153\n      jumpi\n        /* \"#utility.yul\":6891:6909   */\n      tag_154\n      tag_64\n      jump\t// in\n    tag_154:\n        /* \"#utility.yul\":6796:6911   */\n    tag_153:\n        /* \"#utility.yul\":7061:7062   */\n      dup3\n        /* \"#utility.yul\":7052:7059   */\n      dup3\n        /* \"#utility.yul\":7047:7063   */\n      sdiv\n        /* \"#utility.yul\":7044:7045   */\n      dup5\n        /* \"#utility.yul\":7041:7064   */\n      eq\n        /* \"#utility.yul\":7021:7022   */\n      dup4\n        /* \"#utility.yul\":7014:7023   */\n      iszero\n        /* \"#utility.yul\":6994:7078   */\n      or\n        /* \"#utility.yul\":6971:7111   */\n      tag_155\n      jumpi\n        /* \"#utility.yul\":7091:7109   */\n      tag_156\n      tag_64\n      jump\t// in\n    tag_156:\n        /* \"#utility.yul\":6971:7111   */\n    tag_155:\n        /* \"#utility.yul\":6609:7118   */\n      pop\n        /* \"#utility.yul\":6562:7118   */\n      swap3\n      swap2\n      pop\n      pop\n      jump\t// out\n\n    auxdata: 0xa2646970667358221220d74b2020360cc80fb57cc0767723c0f81c6d77839889062d6b36fe6e9589641064736f6c634300081a0033\n}\n",
				"bytecode": {
					"linkReferences": {},
					"object": "60806040526802b5e3af16b18800005f55348015601a575f80fd5b5061071f806100285f395ff3fe60806040526004361061003e575f3560e01c80633ccfd60b14610042578063a75d77a414610058578063b60d428814610094578063dc0d3dff1461009e575b5f80fd5b34801561004d575f80fd5b506100566100da565b005b348015610063575f80fd5b5061007e6004803603810190610079919061035a565b6100dc565b60405161008b919061039d565b60405180910390f35b61009c6100f1565b005b3480156100a9575f80fd5b506100c460048036038101906100bf91906103e0565b6101e1565b6040516100d1919061041a565b60405180910390f35b565b6002602052805f5260405f205f915090505481565b5f546100fc3461021c565b101561013d576040517f08c379a00000000000000000000000000000000000000000000000000000000081526004016101349061048d565b60405180910390fd5b600133908060018154018082558091505060019003905f5260205f20015f9091909190916101000a81548173ffffffffffffffffffffffffffffffffffffffff021916908373ffffffffffffffffffffffffffffffffffffffff1602179055503460025f3373ffffffffffffffffffffffffffffffffffffffff1673ffffffffffffffffffffffffffffffffffffffff1681526020019081526020015f2081905550565b600181815481106101f0575f80fd5b905f5260205f20015f915054906101000a900473ffffffffffffffffffffffffffffffffffffffff1681565b5f80610226610254565b90505f670de0b6b3a7640000828561023e91906104d8565b6102489190610546565b90508092505050919050565b5f80731b44f3514812d835eb1bdb0acb33d3fa3351ee4390505f8173ffffffffffffffffffffffffffffffffffffffff1663feaf968c6040518163ffffffff1660e01b815260040160a060405180830381865afa1580156102b7573d5f803e3d5ffd5b505050506040513d601f19601f820116820180604052508101906102db91906105fc565b505050915050670de0b6b3a7640000816102f59190610673565b9250505090565b5f80fd5b5f73ffffffffffffffffffffffffffffffffffffffff82169050919050565b5f61032982610300565b9050919050565b6103398161031f565b8114610343575f80fd5b50565b5f8135905061035481610330565b92915050565b5f6020828403121561036f5761036e6102fc565b5b5f61037c84828501610346565b91505092915050565b5f819050919050565b61039781610385565b82525050565b5f6020820190506103b05f83018461038e565b92915050565b6103bf81610385565b81146103c9575f80fd5b50565b5f813590506103da816103b6565b92915050565b5f602082840312156103f5576103f46102fc565b5b5f610402848285016103cc565b91505092915050565b6104148161031f565b82525050565b5f60208201905061042d5f83018461040b565b92915050565b5f82825260208201905092915050565b7f776f6d7020776f6d7020796f752062726f6b65000000000000000000000000005f82015250565b5f610477601383610433565b915061048282610443565b602082019050919050565b5f6020820190508181035f8301526104a48161046b565b9050919050565b7f4e487b71000000000000000000000000000000000000000000000000000000005f52601160045260245ffd5b5f6104e282610385565b91506104ed83610385565b92508282026104fb81610385565b91508282048414831517610512576105116104ab565b5b5092915050565b7f4e487b71000000000000000000000000000000000000000000000000000000005f52601260045260245ffd5b5f61055082610385565b915061055b83610385565b92508261056b5761056a610519565b5b828204905092915050565b5f69ffffffffffffffffffff82169050919050565b61059481610576565b811461059e575f80fd5b50565b5f815190506105af8161058b565b92915050565b5f819050919050565b6105c7816105b5565b81146105d1575f80fd5b50565b5f815190506105e2816105be565b92915050565b5f815190506105f6816103b6565b92915050565b5f805f805f60a08688031215610615576106146102fc565b5b5f610622888289016105a1565b9550506020610633888289016105d4565b9450506040610644888289016105e8565b9350506060610655888289016105e8565b9250506080610666888289016105a1565b9150509295509295909350565b5f61067d826105b5565b9150610688836105b5565b9250828202610696816105b5565b91507f800000000000000000000000000000000000000000000000000000000000000084145f841216156106cd576106cc6104ab565b5b82820584148315176106e2576106e16104ab565b5b509291505056fea2646970667358221220d74b2020360cc80fb57cc0767723c0f81c6d77839889062d6b36fe6e9589641064736f6c634300081a0033",
					"opcodes": "PUSH1 0x80 PUSH1 0x40 MSTORE PUSH9 0x2B5E3AF16B1880000 PUSH0 SSTORE CALLVALUE DUP1 ISZERO PUSH1 0x1A JUMPI PUSH0 DUP1 REVERT JUMPDEST POP PUSH2 0x71F DUP1 PUSH2 0x28 PUSH0 CODECOPY PUSH0 RETURN INVALID PUSH1 0x80 PUSH1 0x40 MSTORE PUSH1 0x4 CALLDATASIZE LT PUSH2 0x3E JUMPI PUSH0 CALLDATALOAD PUSH1 0xE0 SHR DUP1 PUSH4 0x3CCFD60B EQ PUSH2 0x42 JUMPI DUP1 PUSH4 0xA75D77A4 EQ PUSH2 0x58 JUMPI DUP1 PUSH4 0xB60D4288 EQ PUSH2 0x94 JUMPI DUP1 PUSH4 0xDC0D3DFF EQ PUSH2 0x9E JUMPI JUMPDEST PUSH0 DUP1 REVERT JUMPDEST CALLVALUE DUP1 ISZERO PUSH2 0x4D JUMPI PUSH0 DUP1 REVERT JUMPDEST POP PUSH2 0x56 PUSH2 0xDA JUMP JUMPDEST STOP JUMPDEST CALLVALUE DUP1 ISZERO PUSH2 0x63 JUMPI PUSH0 DUP1 REVERT JUMPDEST POP PUSH2 0x7E PUSH1 0x4 DUP1 CALLDATASIZE SUB DUP2 ADD SWAP1 PUSH2 0x79 SWAP2 SWAP1 PUSH2 0x35A JUMP JUMPDEST PUSH2 0xDC JUMP JUMPDEST PUSH1 0x40 MLOAD PUSH2 0x8B SWAP2 SWAP1 PUSH2 0x39D JUMP JUMPDEST PUSH1 0x40 MLOAD DUP1 SWAP2 SUB SWAP1 RETURN JUMPDEST PUSH2 0x9C PUSH2 0xF1 JUMP JUMPDEST STOP JUMPDEST CALLVALUE DUP1 ISZERO PUSH2 0xA9 JUMPI PUSH0 DUP1 REVERT JUMPDEST POP PUSH2 0xC4 PUSH1 0x4 DUP1 CALLDATASIZE SUB DUP2 ADD SWAP1 PUSH2 0xBF SWAP2 SWAP1 PUSH2 0x3E0 JUMP JUMPDEST PUSH2 0x1E1 JUMP JUMPDEST PUSH1 0x40 MLOAD PUSH2 0xD1 SWAP2 SWAP1 PUSH2 0x41A JUMP JUMPDEST PUSH1 0x40 MLOAD DUP1 SWAP2 SUB SWAP1 RETURN JUMPDEST JUMP JUMPDEST PUSH1 0x2 PUSH1 0x20 MSTORE DUP1 PUSH0 MSTORE PUSH1 0x40 PUSH0 KECCAK256 PUSH0 SWAP2 POP SWAP1 POP SLOAD DUP2 JUMP JUMPDEST PUSH0 SLOAD PUSH2 0xFC CALLVALUE PUSH2 0x21C JUMP JUMPDEST LT ISZERO PUSH2 0x13D JUMPI PUSH1 0x40 MLOAD PUSH32 0x8C379A000000000000000000000000000000000000000000000000000000000 DUP2 MSTORE PUSH1 0x4 ADD PUSH2 0x134 SWAP1 PUSH2 0x48D JUMP JUMPDEST PUSH1 0x40 MLOAD DUP1 SWAP2 SUB SWAP1 REVERT JUMPDEST PUSH1 0x1 CALLER SWAP1 DUP1 PUSH1 0x1 DUP2 SLOAD ADD DUP1 DUP3 SSTORE DUP1 SWAP2 POP POP PUSH1 0x1 SWAP1 SUB SWAP1 PUSH0 MSTORE PUSH1 0x20 PUSH0 KECCAK256 ADD PUSH0 SWAP1 SWAP2 SWAP1 SWAP2 SWAP1 SWAP2 PUSH2 0x100 EXP DUP2 SLOAD DUP2 PUSH20 0xFFFFFFFFFFFFFFFFFFFFFFFFFFFFFFFFFFFFFFFF MUL NOT AND SWAP1 DUP4 PUSH20 0xFFFFFFFFFFFFFFFFFFFFFFFFFFFFFFFFFFFFFFFF AND MUL OR SWAP1 SSTORE POP CALLVALUE PUSH1 0x2 PUSH0 CALLER PUSH20 0xFFFFFFFFFFFFFFFFFFFFFFFFFFFFFFFFFFFFFFFF AND PUSH20 0xFFFFFFFFFFFFFFFFFFFFFFFFFFFFFFFFFFFFFFFF AND DUP2 MSTORE PUSH1 0x20 ADD SWAP1 DUP2 MSTORE PUSH1 0x20 ADD PUSH0 KECCAK256 DUP2 SWAP1 SSTORE POP JUMP JUMPDEST PUSH1 0x1 DUP2 DUP2 SLOAD DUP2 LT PUSH2 0x1F0 JUMPI PUSH0 DUP1 REVERT JUMPDEST SWAP1 PUSH0 MSTORE PUSH1 0x20 PUSH0 KECCAK256 ADD PUSH0 SWAP2 POP SLOAD SWAP1 PUSH2 0x100 EXP SWAP1 DIV PUSH20 0xFFFFFFFFFFFFFFFFFFFFFFFFFFFFFFFFFFFFFFFF AND DUP2 JUMP JUMPDEST PUSH0 DUP1 PUSH2 0x226 PUSH2 0x254 JUMP JUMPDEST SWAP1 POP PUSH0 PUSH8 0xDE0B6B3A7640000 DUP3 DUP6 PUSH2 0x23E SWAP2 SWAP1 PUSH2 0x4D8 JUMP JUMPDEST PUSH2 0x248 SWAP2 SWAP1 PUSH2 0x546 JUMP JUMPDEST SWAP1 POP DUP1 SWAP3 POP POP POP SWAP2 SWAP1 POP JUMP JUMPDEST PUSH0 DUP1 PUSH20 0x1B44F3514812D835EB1BDB0ACB33D3FA3351EE43 SWAP1 POP PUSH0 DUP2 PUSH20 0xFFFFFFFFFFFFFFFFFFFFFFFFFFFFFFFFFFFFFFFF AND PUSH4 0xFEAF968C PUSH1 0x40 MLOAD DUP2 PUSH4 0xFFFFFFFF AND PUSH1 0xE0 SHL DUP2 MSTORE PUSH1 0x4 ADD PUSH1 0xA0 PUSH1 0x40 MLOAD DUP1 DUP4 SUB DUP2 DUP7 GAS STATICCALL ISZERO DUP1 ISZERO PUSH2 0x2B7 JUMPI RETURNDATASIZE PUSH0 DUP1 RETURNDATACOPY RETURNDATASIZE PUSH0 REVERT JUMPDEST POP POP POP POP PUSH1 0x40 MLOAD RETURNDATASIZE PUSH1 0x1F NOT PUSH1 0x1F DUP3 ADD AND DUP3 ADD DUP1 PUSH1 0x40 MSTORE POP DUP2 ADD SWAP1 PUSH2 0x2DB SWAP2 SWAP1 PUSH2 0x5FC JUMP JUMPDEST POP POP POP SWAP2 POP POP PUSH8 0xDE0B6B3A7640000 DUP2 PUSH2 0x2F5 SWAP2 SWAP1 PUSH2 0x673 JUMP JUMPDEST SWAP3 POP POP POP SWAP1 JUMP JUMPDEST PUSH0 DUP1 REVERT JUMPDEST PUSH0 PUSH20 0xFFFFFFFFFFFFFFFFFFFFFFFFFFFFFFFFFFFFFFFF DUP3 AND SWAP1 POP SWAP2 SWAP1 POP JUMP JUMPDEST PUSH0 PUSH2 0x329 DUP3 PUSH2 0x300 JUMP JUMPDEST SWAP1 POP SWAP2 SWAP1 POP JUMP JUMPDEST PUSH2 0x339 DUP2 PUSH2 0x31F JUMP JUMPDEST DUP2 EQ PUSH2 0x343 JUMPI PUSH0 DUP1 REVERT JUMPDEST POP JUMP JUMPDEST PUSH0 DUP2 CALLDATALOAD SWAP1 POP PUSH2 0x354 DUP2 PUSH2 0x330 JUMP JUMPDEST SWAP3 SWAP2 POP POP JUMP JUMPDEST PUSH0 PUSH1 0x20 DUP3 DUP5 SUB SLT ISZERO PUSH2 0x36F JUMPI PUSH2 0x36E PUSH2 0x2FC JUMP JUMPDEST JUMPDEST PUSH0 PUSH2 0x37C DUP5 DUP3 DUP6 ADD PUSH2 0x346 JUMP JUMPDEST SWAP2 POP POP SWAP3 SWAP2 POP POP JUMP JUMPDEST PUSH0 DUP2 SWAP1 POP SWAP2 SWAP1 POP JUMP JUMPDEST PUSH2 0x397 DUP2 PUSH2 0x385 JUMP JUMPDEST DUP3 MSTORE POP POP JUMP JUMPDEST PUSH0 PUSH1 0x20 DUP3 ADD SWAP1 POP PUSH2 0x3B0 PUSH0 DUP4 ADD DUP5 PUSH2 0x38E JUMP JUMPDEST SWAP3 SWAP2 POP POP JUMP JUMPDEST PUSH2 0x3BF DUP2 PUSH2 0x385 JUMP JUMPDEST DUP2 EQ PUSH2 0x3C9 JUMPI PUSH0 DUP1 REVERT JUMPDEST POP JUMP JUMPDEST PUSH0 DUP2 CALLDATALOAD SWAP1 POP PUSH2 0x3DA DUP2 PUSH2 0x3B6 JUMP JUMPDEST SWAP3 SWAP2 POP POP JUMP JUMPDEST PUSH0 PUSH1 0x20 DUP3 DUP5 SUB SLT ISZERO PUSH2 0x3F5 JUMPI PUSH2 0x3F4 PUSH2 0x2FC JUMP JUMPDEST JUMPDEST PUSH0 PUSH2 0x402 DUP5 DUP3 DUP6 ADD PUSH2 0x3CC JUMP JUMPDEST SWAP2 POP POP SWAP3 SWAP2 POP POP JUMP JUMPDEST PUSH2 0x414 DUP2 PUSH2 0x31F JUMP JUMPDEST DUP3 MSTORE POP POP JUMP JUMPDEST PUSH0 PUSH1 0x20 DUP3 ADD SWAP1 POP PUSH2 0x42D PUSH0 DUP4 ADD DUP5 PUSH2 0x40B JUMP JUMPDEST SWAP3 SWAP2 POP POP JUMP JUMPDEST PUSH0 DUP3 DUP3 MSTORE PUSH1 0x20 DUP3 ADD SWAP1 POP SWAP3 SWAP2 POP POP JUMP JUMPDEST PUSH32 0x776F6D7020776F6D7020796F752062726F6B6500000000000000000000000000 PUSH0 DUP3 ADD MSTORE POP JUMP JUMPDEST PUSH0 PUSH2 0x477 PUSH1 0x13 DUP4 PUSH2 0x433 JUMP JUMPDEST SWAP2 POP PUSH2 0x482 DUP3 PUSH2 0x443 JUMP JUMPDEST PUSH1 0x20 DUP3 ADD SWAP1 POP SWAP2 SWAP1 POP JUMP JUMPDEST PUSH0 PUSH1 0x20 DUP3 ADD SWAP1 POP DUP2 DUP2 SUB PUSH0 DUP4 ADD MSTORE PUSH2 0x4A4 DUP2 PUSH2 0x46B JUMP JUMPDEST SWAP1 POP SWAP2 SWAP1 POP JUMP JUMPDEST PUSH32 0x4E487B7100000000000000000000000000000000000000000000000000000000 PUSH0 MSTORE PUSH1 0x11 PUSH1 0x4 MSTORE PUSH1 0x24 PUSH0 REVERT JUMPDEST PUSH0 PUSH2 0x4E2 DUP3 PUSH2 0x385 JUMP JUMPDEST SWAP2 POP PUSH2 0x4ED DUP4 PUSH2 0x385 JUMP JUMPDEST SWAP3 POP DUP3 DUP3 MUL PUSH2 0x4FB DUP2 PUSH2 0x385 JUMP JUMPDEST SWAP2 POP DUP3 DUP3 DIV DUP5 EQ DUP4 ISZERO OR PUSH2 0x512 JUMPI PUSH2 0x511 PUSH2 0x4AB JUMP JUMPDEST JUMPDEST POP SWAP3 SWAP2 POP POP JUMP JUMPDEST PUSH32 0x4E487B7100000000000000000000000000000000000000000000000000000000 PUSH0 MSTORE PUSH1 0x12 PUSH1 0x4 MSTORE PUSH1 0x24 PUSH0 REVERT JUMPDEST PUSH0 PUSH2 0x550 DUP3 PUSH2 0x385 JUMP JUMPDEST SWAP2 POP PUSH2 0x55B DUP4 PUSH2 0x385 JUMP JUMPDEST SWAP3 POP DUP3 PUSH2 0x56B JUMPI PUSH2 0x56A PUSH2 0x519 JUMP JUMPDEST JUMPDEST DUP3 DUP3 DIV SWAP1 POP SWAP3 SWAP2 POP POP JUMP JUMPDEST PUSH0 PUSH10 0xFFFFFFFFFFFFFFFFFFFF DUP3 AND SWAP1 POP SWAP2 SWAP1 POP JUMP JUMPDEST PUSH2 0x594 DUP2 PUSH2 0x576 JUMP JUMPDEST DUP2 EQ PUSH2 0x59E JUMPI PUSH0 DUP1 REVERT JUMPDEST POP JUMP JUMPDEST PUSH0 DUP2 MLOAD SWAP1 POP PUSH2 0x5AF DUP2 PUSH2 0x58B JUMP JUMPDEST SWAP3 SWAP2 POP POP JUMP JUMPDEST PUSH0 DUP2 SWAP1 POP SWAP2 SWAP1 POP JUMP JUMPDEST PUSH2 0x5C7 DUP2 PUSH2 0x5B5 JUMP JUMPDEST DUP2 EQ PUSH2 0x5D1 JUMPI PUSH0 DUP1 REVERT JUMPDEST POP JUMP JUMPDEST PUSH0 DUP2 MLOAD SWAP1 POP PUSH2 0x5E2 DUP2 PUSH2 0x5BE JUMP JUMPDEST SWAP3 SWAP2 POP POP JUMP JUMPDEST PUSH0 DUP2 MLOAD SWAP1 POP PUSH2 0x5F6 DUP2 PUSH2 0x3B6 JUMP JUMPDEST SWAP3 SWAP2 POP POP JUMP JUMPDEST PUSH0 DUP1 PUSH0 DUP1 PUSH0 PUSH1 0xA0 DUP7 DUP9 SUB SLT ISZERO PUSH2 0x615 JUMPI PUSH2 0x614 PUSH2 0x2FC JUMP JUMPDEST JUMPDEST PUSH0 PUSH2 0x622 DUP9 DUP3 DUP10 ADD PUSH2 0x5A1 JUMP JUMPDEST SWAP6 POP POP PUSH1 0x20 PUSH2 0x633 DUP9 DUP3 DUP10 ADD PUSH2 0x5D4 JUMP JUMPDEST SWAP5 POP POP PUSH1 0x40 PUSH2 0x644 DUP9 DUP3 DUP10 ADD PUSH2 0x5E8 JUMP JUMPDEST SWAP4 POP POP PUSH1 0x60 PUSH2 0x655 DUP9 DUP3 DUP10 ADD PUSH2 0x5E8 JUMP JUMPDEST SWAP3 POP POP PUSH1 0x80 PUSH2 0x666 DUP9 DUP3 DUP10 ADD PUSH2 0x5A1 JUMP JUMPDEST SWAP2 POP POP SWAP3 SWAP6 POP SWAP3 SWAP6 SWAP1 SWAP4 POP JUMP JUMPDEST PUSH0 PUSH2 0x67D DUP3 PUSH2 0x5B5 JUMP JUMPDEST SWAP2 POP PUSH2 0x688 DUP4 PUSH2 0x5B5 JUMP JUMPDEST SWAP3 POP DUP3 DUP3 MUL PUSH2 0x696 DUP2 PUSH2 0x5B5 JUMP JUMPDEST SWAP2 POP PUSH32 0x8000000000000000000000000000000000000000000000000000000000000000 DUP5 EQ PUSH0 DUP5 SLT AND ISZERO PUSH2 0x6CD JUMPI PUSH2 0x6CC PUSH2 0x4AB JUMP JUMPDEST JUMPDEST DUP3 DUP3 SDIV DUP5 EQ DUP4 ISZERO OR PUSH2 0x6E2 JUMPI PUSH2 0x6E1 PUSH2 0x4AB JUMP JUMPDEST JUMPDEST POP SWAP3 SWAP2 POP POP JUMP INVALID LOG2 PUSH5 0x6970667358 0x22 SLT KECCAK256 0xD7 0x4B KECCAK256 KECCAK256 CALLDATASIZE 0xC 0xC8 0xF 0xB5 PUSH29 0xC0767723C0F81C6D77839889062D6B36FE6E9589641064736F6C634300 ADDMOD BYTE STOP CALLER "
				},
				"gasEstimates": {
					"creation": {
						"codeDepositCost": "364600",
						"executionCost": "22502",
						"totalCost": "387102"
					},
					"external": {
						"AddressAndAmount(address)": "2802",
						"fund()": "infinite",
						"funders(uint256)": "4988",
						"withdraw()": "121"
					}
				},
				"methodIdentifiers": {
					"AddressAndAmount(address)": "a75d77a4",
					"fund()": "b60d4288",
					"funders(uint256)": "dc0d3dff",
					"withdraw()": "3ccfd60b"
				}
			},
			"storageLayout": {
				"storage": [
					{
						"astId": 114,
						"contract": "Funding/fundme.sol:fundme",
						"label": "usd",
						"offset": 0,
						"slot": "0",
						"type": "t_uint256"
					},
					{
						"astId": 117,
						"contract": "Funding/fundme.sol:fundme",
						"label": "funders",
						"offset": 0,
						"slot": "1",
						"type": "t_array(t_address)dyn_storage"
					},
					{
						"astId": 121,
						"contract": "Funding/fundme.sol:fundme",
						"label": "AddressAndAmount",
						"offset": 0,
						"slot": "2",
						"type": "t_mapping(t_address,t_uint256)"
					}
				],
				"types": {
					"t_address": {
						"encoding": "inplace",
						"label": "address",
						"numberOfBytes": "20"
					},
					"t_array(t_address)dyn_storage": {
						"base": "t_address",
						"encoding": "dynamic_array",
						"label": "address[]",
						"numberOfBytes": "32"
					},
					"t_mapping(t_address,t_uint256)": {
						"encoding": "mapping",
						"key": "t_address",
						"label": "mapping(address => uint256)",
						"numberOfBytes": "32",
						"value": "t_uint256"
					},
					"t_uint256": {
						"encoding": "inplace",
						"label": "uint256",
						"numberOfBytes": "32"
					}
				}
			},
			"userdoc": {
				"kind": "user",
				"methods": {},
				"version": 1
			}
		}
	}
}