{
	"data": {
		"bytecode": {
			"linkReferences": {},
			"object": "6080604052348015600e575f80fd5b506111368061001c5f395ff3fe608060405234801561000f575f80fd5b5060043610610034575f3560e01c8063d18ac71014610038578063deb3f1c314610068575b5f80fd5b610052600480360381019061004d919061017b565b610072565b60405161005f9190610220565b60405180910390f35b6100706100ac565b005b5f8181548110610080575f80fd5b905f5260205f20015f915054906101000a900473ffffffffffffffffffffffffffffffffffffffff1681565b5f6040516100b990610137565b604051809103905ff0801580156100d2573d5f803e3d5ffd5b5090505f81908060018154018082558091505060019003905f5260205f20015f9091909190916101000a81548173ffffffffffffffffffffffffffffffffffffffff021916908373ffffffffffffffffffffffffffffffffffffffff16021790555050565b610ec78061023a83390190565b5f80fd5b5f819050919050565b61015a81610148565b8114610164575f80fd5b50565b5f8135905061017581610151565b92915050565b5f602082840312156101905761018f610144565b5b5f61019d84828501610167565b91505092915050565b5f73ffffffffffffffffffffffffffffffffffffffff82169050919050565b5f819050919050565b5f6101e86101e36101de846101a6565b6101c5565b6101a6565b9050919050565b5f6101f9826101ce565b9050919050565b5f61020a826101ef565b9050919050565b61021a81610200565b82525050565b5f6020820190506102335f830184610211565b9291505056fe608060405260015f806101000a81548160ff021916908315150217905550736880607d4890dd9d1b9b90e66e2608d7de658ee060025f6101000a81548173ffffffffffffffffffffffffffffffffffffffff021916908373ffffffffffffffffffffffffffffffffffffffff1602179055507f74657874000000000000000000000000000000000000000000000000000000006003556040518060400160405280604581526020016040518060400160405280600581526020017f47686f756c00000000000000000000000000000000000000000000000000000081525081525060045f820151815f015560208201518160010190816100ff919061034d565b50505034801561010d575f80fd5b5061041c565b5f81519050919050565b7f4e487b71000000000000000000000000000000000000000000000000000000005f52604160045260245ffd5b7f4e487b71000000000000000000000000000000000000000000000000000000005f52602260045260245ffd5b5f600282049050600182168061018e57607f821691505b6020821081036101a1576101a061014a565b5b50919050565b5f819050815f5260205f209050919050565b5f6020601f8301049050919050565b5f82821b905092915050565b5f600883026102037fffffffffffffffffffffffffffffffffffffffffffffffffffffffffffffffff826101c8565b61020d86836101c8565b95508019841693508086168417925050509392505050565b5f819050919050565b5f819050919050565b5f61025161024c61024784610225565b61022e565b610225565b9050919050565b5f819050919050565b61026a83610237565b61027e61027682610258565b8484546101d4565b825550505050565b5f90565b610292610286565b61029d818484610261565b505050565b5b818110156102c0576102b55f8261028a565b6001810190506102a3565b5050565b601f821115610305576102d6816101a7565b6102df846101b9565b810160208510156102ee578190505b6103026102fa856101b9565b8301826102a2565b50505b505050565b5f82821c905092915050565b5f6103255f198460080261030a565b1980831691505092915050565b5f61033d8383610316565b9150826002028217905092915050565b61035682610113565b67ffffffffffffffff81111561036f5761036e61011d565b5b6103798254610177565b6103848282856102c4565b5f60209050601f8311600181146103b5575f84156103a3578287015190505b6103ad8582610332565b865550610414565b601f1984166103c3866101a7565b5f5b828110156103ea578489015182556001820191506020850194506020810190506103c5565b868310156104075784890151610403601f891682610316565b8355505b6001600288020188555050505b505050505050565b610a9e806104295f395ff3fe608060405234801561000f575f80fd5b506004361061007b575f3560e01c806371e5ee5f1161005957806371e5ee5f146100db5780637bd5989e1461010c578063bd821e5b14610128578063c9de10ff146101445761007b565b806319908de01461007f5780631b08d96f1461009d57806346cb59c2146100bc575b5f80fd5b610087610174565b60405161009491906103ca565b60405180910390f35b6100a561017a565b6040516100b39291906103e3565b60405180910390f35b6100c461018f565b6040516100d292919061047a565b60405180910390f35b6100f560048036038101906100f091906104e3565b610226565b60405161010392919061047a565b60405180910390f35b6101266004803603810190610121919061063a565b6102db565b005b610142600480360381019061013d91906104e3565b610364565b005b61015e60048036038101906101599190610694565b610385565b60405161016b91906103ca565b60405180910390f35b60015481565b5f805f61036d90506001548192509250509091565b6004805f0154908060010180546101a590610708565b80601f01602080910402602001604051908101604052809291908181526020018280546101d190610708565b801561021c5780601f106101f35761010080835404028352916020019161021c565b820191905f5260205f20905b8154815290600101906020018083116101ff57829003601f168201915b5050505050905082565b60078181548110610235575f80fd5b905f5260205f2090600202015f91509050805f01549080600101805461025a90610708565b80601f016020809104026020016040519081016040528092919081815260200182805461028690610708565b80156102d15780601f106102a8576101008083540402835291602001916102d1565b820191905f5260205f20905b8154815290600101906020018083116102b457829003601f168201915b5050505050905082565b5f6040518060400160405280838152602001848152509050816006846040516103049190610772565b908152602001604051809103902081905550600781908060018154018082558091505060019003905f5260205f2090600202015f909190919091505f820151815f0155602082015181600101908161035c9190610925565b505050505050565b8060018190555060015f81548092919061037d90610a21565b919050555050565b6006818051602081018201805184825260208301602085012081835280955050505050505f915090505481565b5f819050919050565b6103c4816103b2565b82525050565b5f6020820190506103dd5f8301846103bb565b92915050565b5f6040820190506103f65f8301856103bb565b61040360208301846103bb565b9392505050565b5f81519050919050565b5f82825260208201905092915050565b8281835e5f83830152505050565b5f601f19601f8301169050919050565b5f61044c8261040a565b6104568185610414565b9350610466818560208601610424565b61046f81610432565b840191505092915050565b5f60408201905061048d5f8301856103bb565b818103602083015261049f8184610442565b90509392505050565b5f604051905090565b5f80fd5b5f80fd5b6104c2816103b2565b81146104cc575f80fd5b50565b5f813590506104dd816104b9565b92915050565b5f602082840312156104f8576104f76104b1565b5b5f610505848285016104cf565b91505092915050565b5f80fd5b5f80fd5b7f4e487b71000000000000000000000000000000000000000000000000000000005f52604160045260245ffd5b61054c82610432565b810181811067ffffffffffffffff8211171561056b5761056a610516565b5b80604052505050565b5f61057d6104a8565b90506105898282610543565b919050565b5f67ffffffffffffffff8211156105a8576105a7610516565b5b6105b182610432565b9050602081019050919050565b828183375f83830152505050565b5f6105de6105d98461058e565b610574565b9050828152602081018484840111156105fa576105f9610512565b5b6106058482856105be565b509392505050565b5f82601f8301126106215761062061050e565b5b81356106318482602086016105cc565b91505092915050565b5f80604083850312156106505761064f6104b1565b5b5f83013567ffffffffffffffff81111561066d5761066c6104b5565b5b6106798582860161060d565b925050602061068a858286016104cf565b9150509250929050565b5f602082840312156106a9576106a86104b1565b5b5f82013567ffffffffffffffff8111156106c6576106c56104b5565b5b6106d28482850161060d565b91505092915050565b7f4e487b71000000000000000000000000000000000000000000000000000000005f52602260045260245ffd5b5f600282049050600182168061071f57607f821691505b602082108103610732576107316106db565b5b50919050565b5f81905092915050565b5f61074c8261040a565b6107568185610738565b9350610766818560208601610424565b80840191505092915050565b5f61077d8284610742565b915081905092915050565b5f819050815f5260205f209050919050565b5f6020601f8301049050919050565b5f82821b905092915050565b5f600883026107e47fffffffffffffffffffffffffffffffffffffffffffffffffffffffffffffffff826107a9565b6107ee86836107a9565b95508019841693508086168417925050509392505050565b5f819050919050565b5f61082961082461081f846103b2565b610806565b6103b2565b9050919050565b5f819050919050565b6108428361080f565b61085661084e82610830565b8484546107b5565b825550505050565b5f90565b61086a61085e565b610875818484610839565b505050565b5b818110156108985761088d5f82610862565b60018101905061087b565b5050565b601f8211156108dd576108ae81610788565b6108b78461079a565b810160208510156108c6578190505b6108da6108d28561079a565b83018261087a565b50505b505050565b5f82821c905092915050565b5f6108fd5f19846008026108e2565b1980831691505092915050565b5f61091583836108ee565b9150826002028217905092915050565b61092e8261040a565b67ffffffffffffffff81111561094757610946610516565b5b6109518254610708565b61095c82828561089c565b5f60209050601f83116001811461098d575f841561097b578287015190505b610985858261090a565b8655506109ec565b601f19841661099b86610788565b5f5b828110156109c25784890151825560018201915060208501945060208101905061099d565b868310156109df57848901516109db601f8916826108ee565b8355505b6001600288020188555050505b505050505050565b7f4e487b71000000000000000000000000000000000000000000000000000000005f52601160045260245ffd5b5f610a2b826103b2565b91507fffffffffffffffffffffffffffffffffffffffffffffffffffffffffffffffff8203610a5d57610a5c6109f4565b5b60018201905091905056fea2646970667358221220434580ea628a07389f6256d110c7feb9b734a9a254439a201fddab2ee402924764736f6c634300081a0033a2646970667358221220c9f31da8da92459396f19aaeec8bc6eff7c5d6746171e8eecceada04b0aa752e64736f6c634300081a0033",
			"opcodes": "PUSH1 0x80 PUSH1 0x40 MSTORE CALLVALUE DUP1 ISZERO PUSH1 0xE JUMPI PUSH0 DUP1 REVERT JUMPDEST POP PUSH2 0x1136 DUP1 PUSH2 0x1C PUSH0 CODECOPY PUSH0 RETURN INVALID PUSH1 0x80 PUSH1 0x40 MSTORE CALLVALUE DUP1 ISZERO PUSH2 0xF JUMPI PUSH0 DUP1 REVERT JUMPDEST POP PUSH1 0x4 CALLDATASIZE LT PUSH2 0x34 JUMPI PUSH0 CALLDATALOAD PUSH1 0xE0 SHR DUP1 PUSH4 0xD18AC710 EQ PUSH2 0x38 JUMPI DUP1 PUSH4 0xDEB3F1C3 EQ PUSH2 0x68 JUMPI JUMPDEST PUSH0 DUP1 REVERT JUMPDEST PUSH2 0x52 PUSH1 0x4 DUP1 CALLDATASIZE SUB DUP2 ADD SWAP1 PUSH2 0x4D SWAP2 SWAP1 PUSH2 0x17B JUMP JUMPDEST PUSH2 0x72 JUMP JUMPDEST PUSH1 0x40 MLOAD PUSH2 0x5F SWAP2 SWAP1 PUSH2 0x220 JUMP JUMPDEST PUSH1 0x40 MLOAD DUP1 SWAP2 SUB SWAP1 RETURN JUMPDEST PUSH2 0x70 PUSH2 0xAC JUMP JUMPDEST STOP JUMPDEST PUSH0 DUP2 DUP2 SLOAD DUP2 LT PUSH2 0x80 JUMPI PUSH0 DUP1 REVERT JUMPDEST SWAP1 PUSH0 MSTORE PUSH1 0x20 PUSH0 KECCAK256 ADD PUSH0 SWAP2 POP SLOAD SWAP1 PUSH2 0x100 EXP SWAP1 DIV PUSH20 0xFFFFFFFFFFFFFFFFFFFFFFFFFFFFFFFFFFFFFFFF AND DUP2 JUMP JUMPDEST PUSH0 PUSH1 0x40 MLOAD PUSH2 0xB9 SWAP1 PUSH2 0x137 JUMP JUMPDEST PUSH1 0x40 MLOAD DUP1 SWAP2 SUB SWAP1 PUSH0 CREATE DUP1 ISZERO DUP1 ISZERO PUSH2 0xD2 JUMPI RETURNDATASIZE PUSH0 DUP1 RETURNDATACOPY RETURNDATASIZE PUSH0 REVERT JUMPDEST POP SWAP1 POP PUSH0 DUP2 SWAP1 DUP1 PUSH1 0x1 DUP2 SLOAD ADD DUP1 DUP3 SSTORE DUP1 SWAP2 POP POP PUSH1 0x1 SWAP1 SUB SWAP1 PUSH0 MSTORE PUSH1 0x20 PUSH0 KECCAK256 ADD PUSH0 SWAP1 SWAP2 SWAP1 SWAP2 SWAP1 SWAP2 PUSH2 0x100 EXP DUP2 SLOAD DUP2 PUSH20 0xFFFFFFFFFFFFFFFFFFFFFFFFFFFFFFFFFFFFFFFF MUL NOT AND SWAP1 DUP4 PUSH20 0xFFFFFFFFFFFFFFFFFFFFFFFFFFFFFFFFFFFFFFFF AND MUL OR SWAP1 SSTORE POP POP JUMP JUMPDEST PUSH2 0xEC7 DUP1 PUSH2 0x23A DUP4 CODECOPY ADD SWAP1 JUMP JUMPDEST PUSH0 DUP1 REVERT JUMPDEST PUSH0 DUP2 SWAP1 POP SWAP2 SWAP1 POP JUMP JUMPDEST PUSH2 0x15A DUP2 PUSH2 0x148 JUMP JUMPDEST DUP2 EQ PUSH2 0x164 JUMPI PUSH0 DUP1 REVERT JUMPDEST POP JUMP JUMPDEST PUSH0 DUP2 CALLDATALOAD SWAP1 POP PUSH2 0x175 DUP2 PUSH2 0x151 JUMP JUMPDEST SWAP3 SWAP2 POP POP JUMP JUMPDEST PUSH0 PUSH1 0x20 DUP3 DUP5 SUB SLT ISZERO PUSH2 0x190 JUMPI PUSH2 0x18F PUSH2 0x144 JUMP JUMPDEST JUMPDEST PUSH0 PUSH2 0x19D DUP5 DUP3 DUP6 ADD PUSH2 0x167 JUMP JUMPDEST SWAP2 POP POP SWAP3 SWAP2 POP POP JUMP JUMPDEST PUSH0 PUSH20 0xFFFFFFFFFFFFFFFFFFFFFFFFFFFFFFFFFFFFFFFF DUP3 AND SWAP1 POP SWAP2 SWAP1 POP JUMP JUMPDEST PUSH0 DUP2 SWAP1 POP SWAP2 SWAP1 POP JUMP JUMPDEST PUSH0 PUSH2 0x1E8 PUSH2 0x1E3 PUSH2 0x1DE DUP5 PUSH2 0x1A6 JUMP JUMPDEST PUSH2 0x1C5 JUMP JUMPDEST PUSH2 0x1A6 JUMP JUMPDEST SWAP1 POP SWAP2 SWAP1 POP JUMP JUMPDEST PUSH0 PUSH2 0x1F9 DUP3 PUSH2 0x1CE JUMP JUMPDEST SWAP1 POP SWAP2 SWAP1 POP JUMP JUMPDEST PUSH0 PUSH2 0x20A DUP3 PUSH2 0x1EF JUMP JUMPDEST SWAP1 POP SWAP2 SWAP1 POP JUMP JUMPDEST PUSH2 0x21A DUP2 PUSH2 0x200 JUMP JUMPDEST DUP3 MSTORE POP POP JUMP JUMPDEST PUSH0 PUSH1 0x20 DUP3 ADD SWAP1 POP PUSH2 0x233 PUSH0 DUP4 ADD DUP5 PUSH2 0x211 JUMP JUMPDEST SWAP3 SWAP2 POP POP JUMP INVALID PUSH1 0x80 PUSH1 0x40 MSTORE PUSH1 0x1 PUSH0 DUP1 PUSH2 0x100 EXP DUP2 SLOAD DUP2 PUSH1 0xFF MUL NOT AND SWAP1 DUP4 ISZERO ISZERO MUL OR SWAP1 SSTORE POP PUSH20 0x6880607D4890DD9D1B9B90E66E2608D7DE658EE0 PUSH1 0x2 PUSH0 PUSH2 0x100 EXP DUP2 SLOAD DUP2 PUSH20 0xFFFFFFFFFFFFFFFFFFFFFFFFFFFFFFFFFFFFFFFF MUL NOT AND SWAP1 DUP4 PUSH20 0xFFFFFFFFFFFFFFFFFFFFFFFFFFFFFFFFFFFFFFFF AND MUL OR SWAP1 SSTORE POP PUSH32 0x7465787400000000000000000000000000000000000000000000000000000000 PUSH1 0x3 SSTORE PUSH1 0x40 MLOAD DUP1 PUSH1 0x40 ADD PUSH1 0x40 MSTORE DUP1 PUSH1 0x45 DUP2 MSTORE PUSH1 0x20 ADD PUSH1 0x40 MLOAD DUP1 PUSH1 0x40 ADD PUSH1 0x40 MSTORE DUP1 PUSH1 0x5 DUP2 MSTORE PUSH1 0x20 ADD PUSH32 0x47686F756C000000000000000000000000000000000000000000000000000000 DUP2 MSTORE POP DUP2 MSTORE POP PUSH1 0x4 PUSH0 DUP3 ADD MLOAD DUP2 PUSH0 ADD SSTORE PUSH1 0x20 DUP3 ADD MLOAD DUP2 PUSH1 0x1 ADD SWAP1 DUP2 PUSH2 0xFF SWAP2 SWAP1 PUSH2 0x34D JUMP JUMPDEST POP POP POP CALLVALUE DUP1 ISZERO PUSH2 0x10D JUMPI PUSH0 DUP1 REVERT JUMPDEST POP PUSH2 0x41C JUMP JUMPDEST PUSH0 DUP2 MLOAD SWAP1 POP SWAP2 SWAP1 POP JUMP JUMPDEST PUSH32 0x4E487B7100000000000000000000000000000000000000000000000000000000 PUSH0 MSTORE PUSH1 0x41 PUSH1 0x4 MSTORE PUSH1 0x24 PUSH0 REVERT JUMPDEST PUSH32 0x4E487B7100000000000000000000000000000000000000000000000000000000 PUSH0 MSTORE PUSH1 0x22 PUSH1 0x4 MSTORE PUSH1 0x24 PUSH0 REVERT JUMPDEST PUSH0 PUSH1 0x2 DUP3 DIV SWAP1 POP PUSH1 0x1 DUP3 AND DUP1 PUSH2 0x18E JUMPI PUSH1 0x7F DUP3 AND SWAP2 POP JUMPDEST PUSH1 0x20 DUP3 LT DUP2 SUB PUSH2 0x1A1 JUMPI PUSH2 0x1A0 PUSH2 0x14A JUMP JUMPDEST JUMPDEST POP SWAP2 SWAP1 POP JUMP JUMPDEST PUSH0 DUP2 SWAP1 POP DUP2 PUSH0 MSTORE PUSH1 0x20 PUSH0 KECCAK256 SWAP1 POP SWAP2 SWAP1 POP JUMP JUMPDEST PUSH0 PUSH1 0x20 PUSH1 0x1F DUP4 ADD DIV SWAP1 POP SWAP2 SWAP1 POP JUMP JUMPDEST PUSH0 DUP3 DUP3 SHL SWAP1 POP SWAP3 SWAP2 POP POP JUMP JUMPDEST PUSH0 PUSH1 0x8 DUP4 MUL PUSH2 0x203 PUSH32 0xFFFFFFFFFFFFFFFFFFFFFFFFFFFFFFFFFFFFFFFFFFFFFFFFFFFFFFFFFFFFFFFF DUP3 PUSH2 0x1C8 JUMP JUMPDEST PUSH2 0x20D DUP7 DUP4 PUSH2 0x1C8 JUMP JUMPDEST SWAP6 POP DUP1 NOT DUP5 AND SWAP4 POP DUP1 DUP7 AND DUP5 OR SWAP3 POP POP POP SWAP4 SWAP3 POP POP POP JUMP JUMPDEST PUSH0 DUP2 SWAP1 POP SWAP2 SWAP1 POP JUMP JUMPDEST PUSH0 DUP2 SWAP1 POP SWAP2 SWAP1 POP JUMP JUMPDEST PUSH0 PUSH2 0x251 PUSH2 0x24C PUSH2 0x247 DUP5 PUSH2 0x225 JUMP JUMPDEST PUSH2 0x22E JUMP JUMPDEST PUSH2 0x225 JUMP JUMPDEST SWAP1 POP SWAP2 SWAP1 POP JUMP JUMPDEST PUSH0 DUP2 SWAP1 POP SWAP2 SWAP1 POP JUMP JUMPDEST PUSH2 0x26A DUP4 PUSH2 0x237 JUMP JUMPDEST PUSH2 0x27E PUSH2 0x276 DUP3 PUSH2 0x258 JUMP JUMPDEST DUP5 DUP5 SLOAD PUSH2 0x1D4 JUMP JUMPDEST DUP3 SSTORE POP POP POP POP JUMP JUMPDEST PUSH0 SWAP1 JUMP JUMPDEST PUSH2 0x292 PUSH2 0x286 JUMP JUMPDEST PUSH2 0x29D DUP2 DUP5 DUP5 PUSH2 0x261 JUMP JUMPDEST POP POP POP JUMP JUMPDEST JUMPDEST DUP2 DUP2 LT ISZERO PUSH2 0x2C0 JUMPI PUSH2 0x2B5 PUSH0 DUP3 PUSH2 0x28A JUMP JUMPDEST PUSH1 0x1 DUP2 ADD SWAP1 POP PUSH2 0x2A3 JUMP JUMPDEST POP POP JUMP JUMPDEST PUSH1 0x1F DUP3 GT ISZERO PUSH2 0x305 JUMPI PUSH2 0x2D6 DUP2 PUSH2 0x1A7 JUMP JUMPDEST PUSH2 0x2DF DUP5 PUSH2 0x1B9 JUMP JUMPDEST DUP2 ADD PUSH1 0x20 DUP6 LT ISZERO PUSH2 0x2EE JUMPI DUP2 SWAP1 POP JUMPDEST PUSH2 0x302 PUSH2 0x2FA DUP6 PUSH2 0x1B9 JUMP JUMPDEST DUP4 ADD DUP3 PUSH2 0x2A2 JUMP JUMPDEST POP POP JUMPDEST POP POP POP JUMP JUMPDEST PUSH0 DUP3 DUP3 SHR SWAP1 POP SWAP3 SWAP2 POP POP JUMP JUMPDEST PUSH0 PUSH2 0x325 PUSH0 NOT DUP5 PUSH1 0x8 MUL PUSH2 0x30A JUMP JUMPDEST NOT DUP1 DUP4 AND SWAP2 POP POP SWAP3 SWAP2 POP POP JUMP JUMPDEST PUSH0 PUSH2 0x33D DUP4 DUP4 PUSH2 0x316 JUMP JUMPDEST SWAP2 POP DUP3 PUSH1 0x2 MUL DUP3 OR SWAP1 POP SWAP3 SWAP2 POP POP JUMP JUMPDEST PUSH2 0x356 DUP3 PUSH2 0x113 JUMP JUMPDEST PUSH8 0xFFFFFFFFFFFFFFFF DUP2 GT ISZERO PUSH2 0x36F JUMPI PUSH2 0x36E PUSH2 0x11D JUMP JUMPDEST JUMPDEST PUSH2 0x379 DUP3 SLOAD PUSH2 0x177 JUMP JUMPDEST PUSH2 0x384 DUP3 DUP3 DUP6 PUSH2 0x2C4 JUMP JUMPDEST PUSH0 PUSH1 0x20 SWAP1 POP PUSH1 0x1F DUP4 GT PUSH1 0x1 DUP2 EQ PUSH2 0x3B5 JUMPI PUSH0 DUP5 ISZERO PUSH2 0x3A3 JUMPI DUP3 DUP8 ADD MLOAD SWAP1 POP JUMPDEST PUSH2 0x3AD DUP6 DUP3 PUSH2 0x332 JUMP JUMPDEST DUP7 SSTORE POP PUSH2 0x414 JUMP JUMPDEST PUSH1 0x1F NOT DUP5 AND PUSH2 0x3C3 DUP7 PUSH2 0x1A7 JUMP JUMPDEST PUSH0 JUMPDEST DUP3 DUP2 LT ISZERO PUSH2 0x3EA JUMPI DUP5 DUP10 ADD MLOAD DUP3 SSTORE PUSH1 0x1 DUP3 ADD SWAP2 POP PUSH1 0x20 DUP6 ADD SWAP5 POP PUSH1 0x20 DUP2 ADD SWAP1 POP PUSH2 0x3C5 JUMP JUMPDEST DUP7 DUP4 LT ISZERO PUSH2 0x407 JUMPI DUP5 DUP10 ADD MLOAD PUSH2 0x403 PUSH1 0x1F DUP10 AND DUP3 PUSH2 0x316 JUMP JUMPDEST DUP4 SSTORE POP JUMPDEST PUSH1 0x1 PUSH1 0x2 DUP9 MUL ADD DUP9 SSTORE POP POP POP JUMPDEST POP POP POP POP POP POP JUMP JUMPDEST PUSH2 0xA9E DUP1 PUSH2 0x429 PUSH0 CODECOPY PUSH0 RETURN INVALID PUSH1 0x80 PUSH1 0x40 MSTORE CALLVALUE DUP1 ISZERO PUSH2 0xF JUMPI PUSH0 DUP1 REVERT JUMPDEST POP PUSH1 0x4 CALLDATASIZE LT PUSH2 0x7B JUMPI PUSH0 CALLDATALOAD PUSH1 0xE0 SHR DUP1 PUSH4 0x71E5EE5F GT PUSH2 0x59 JUMPI DUP1 PUSH4 0x71E5EE5F EQ PUSH2 0xDB JUMPI DUP1 PUSH4 0x7BD5989E EQ PUSH2 0x10C JUMPI DUP1 PUSH4 0xBD821E5B EQ PUSH2 0x128 JUMPI DUP1 PUSH4 0xC9DE10FF EQ PUSH2 0x144 JUMPI PUSH2 0x7B JUMP JUMPDEST DUP1 PUSH4 0x19908DE0 EQ PUSH2 0x7F JUMPI DUP1 PUSH4 0x1B08D96F EQ PUSH2 0x9D JUMPI DUP1 PUSH4 0x46CB59C2 EQ PUSH2 0xBC JUMPI JUMPDEST PUSH0 DUP1 REVERT JUMPDEST PUSH2 0x87 PUSH2 0x174 JUMP JUMPDEST PUSH1 0x40 MLOAD PUSH2 0x94 SWAP2 SWAP1 PUSH2 0x3CA JUMP JUMPDEST PUSH1 0x40 MLOAD DUP1 SWAP2 SUB SWAP1 RETURN JUMPDEST PUSH2 0xA5 PUSH2 0x17A JUMP JUMPDEST PUSH1 0x40 MLOAD PUSH2 0xB3 SWAP3 SWAP2 SWAP1 PUSH2 0x3E3 JUMP JUMPDEST PUSH1 0x40 MLOAD DUP1 SWAP2 SUB SWAP1 RETURN JUMPDEST PUSH2 0xC4 PUSH2 0x18F JUMP JUMPDEST PUSH1 0x40 MLOAD PUSH2 0xD2 SWAP3 SWAP2 SWAP1 PUSH2 0x47A JUMP JUMPDEST PUSH1 0x40 MLOAD DUP1 SWAP2 SUB SWAP1 RETURN JUMPDEST PUSH2 0xF5 PUSH1 0x4 DUP1 CALLDATASIZE SUB DUP2 ADD SWAP1 PUSH2 0xF0 SWAP2 SWAP1 PUSH2 0x4E3 JUMP JUMPDEST PUSH2 0x226 JUMP JUMPDEST PUSH1 0x40 MLOAD PUSH2 0x103 SWAP3 SWAP2 SWAP1 PUSH2 0x47A JUMP JUMPDEST PUSH1 0x40 MLOAD DUP1 SWAP2 SUB SWAP1 RETURN JUMPDEST PUSH2 0x126 PUSH1 0x4 DUP1 CALLDATASIZE SUB DUP2 ADD SWAP1 PUSH2 0x121 SWAP2 SWAP1 PUSH2 0x63A JUMP JUMPDEST PUSH2 0x2DB JUMP JUMPDEST STOP JUMPDEST PUSH2 0x142 PUSH1 0x4 DUP1 CALLDATASIZE SUB DUP2 ADD SWAP1 PUSH2 0x13D SWAP2 SWAP1 PUSH2 0x4E3 JUMP JUMPDEST PUSH2 0x364 JUMP JUMPDEST STOP JUMPDEST PUSH2 0x15E PUSH1 0x4 DUP1 CALLDATASIZE SUB DUP2 ADD SWAP1 PUSH2 0x159 SWAP2 SWAP1 PUSH2 0x694 JUMP JUMPDEST PUSH2 0x385 JUMP JUMPDEST PUSH1 0x40 MLOAD PUSH2 0x16B SWAP2 SWAP1 PUSH2 0x3CA JUMP JUMPDEST PUSH1 0x40 MLOAD DUP1 SWAP2 SUB SWAP1 RETURN JUMPDEST PUSH1 0x1 SLOAD DUP2 JUMP JUMPDEST PUSH0 DUP1 PUSH0 PUSH2 0x36D SWAP1 POP PUSH1 0x1 SLOAD DUP2 SWAP3 POP SWAP3 POP POP SWAP1 SWAP2 JUMP JUMPDEST PUSH1 0x4 DUP1 PUSH0 ADD SLOAD SWAP1 DUP1 PUSH1 0x1 ADD DUP1 SLOAD PUSH2 0x1A5 SWAP1 PUSH2 0x708 JUMP JUMPDEST DUP1 PUSH1 0x1F ADD PUSH1 0x20 DUP1 SWAP2 DIV MUL PUSH1 0x20 ADD PUSH1 0x40 MLOAD SWAP1 DUP2 ADD PUSH1 0x40 MSTORE DUP1 SWAP3 SWAP2 SWAP1 DUP2 DUP2 MSTORE PUSH1 0x20 ADD DUP3 DUP1 SLOAD PUSH2 0x1D1 SWAP1 PUSH2 0x708 JUMP JUMPDEST DUP1 ISZERO PUSH2 0x21C JUMPI DUP1 PUSH1 0x1F LT PUSH2 0x1F3 JUMPI PUSH2 0x100 DUP1 DUP4 SLOAD DIV MUL DUP4 MSTORE SWAP2 PUSH1 0x20 ADD SWAP2 PUSH2 0x21C JUMP JUMPDEST DUP3 ADD SWAP2 SWAP1 PUSH0 MSTORE PUSH1 0x20 PUSH0 KECCAK256 SWAP1 JUMPDEST DUP2 SLOAD DUP2 MSTORE SWAP1 PUSH1 0x1 ADD SWAP1 PUSH1 0x20 ADD DUP1 DUP4 GT PUSH2 0x1FF JUMPI DUP3 SWAP1 SUB PUSH1 0x1F AND DUP3 ADD SWAP2 JUMPDEST POP POP POP POP POP SWAP1 POP DUP3 JUMP JUMPDEST PUSH1 0x7 DUP2 DUP2 SLOAD DUP2 LT PUSH2 0x235 JUMPI PUSH0 DUP1 REVERT JUMPDEST SWAP1 PUSH0 MSTORE PUSH1 0x20 PUSH0 KECCAK256 SWAP1 PUSH1 0x2 MUL ADD PUSH0 SWAP2 POP SWAP1 POP DUP1 PUSH0 ADD SLOAD SWAP1 DUP1 PUSH1 0x1 ADD DUP1 SLOAD PUSH2 0x25A SWAP1 PUSH2 0x708 JUMP JUMPDEST DUP1 PUSH1 0x1F ADD PUSH1 0x20 DUP1 SWAP2 DIV MUL PUSH1 0x20 ADD PUSH1 0x40 MLOAD SWAP1 DUP2 ADD PUSH1 0x40 MSTORE DUP1 SWAP3 SWAP2 SWAP1 DUP2 DUP2 MSTORE PUSH1 0x20 ADD DUP3 DUP1 SLOAD PUSH2 0x286 SWAP1 PUSH2 0x708 JUMP JUMPDEST DUP1 ISZERO PUSH2 0x2D1 JUMPI DUP1 PUSH1 0x1F LT PUSH2 0x2A8 JUMPI PUSH2 0x100 DUP1 DUP4 SLOAD DIV MUL DUP4 MSTORE SWAP2 PUSH1 0x20 ADD SWAP2 PUSH2 0x2D1 JUMP JUMPDEST DUP3 ADD SWAP2 SWAP1 PUSH0 MSTORE PUSH1 0x20 PUSH0 KECCAK256 SWAP1 JUMPDEST DUP2 SLOAD DUP2 MSTORE SWAP1 PUSH1 0x1 ADD SWAP1 PUSH1 0x20 ADD DUP1 DUP4 GT PUSH2 0x2B4 JUMPI DUP3 SWAP1 SUB PUSH1 0x1F AND DUP3 ADD SWAP2 JUMPDEST POP POP POP POP POP SWAP1 POP DUP3 JUMP JUMPDEST PUSH0 PUSH1 0x40 MLOAD DUP1 PUSH1 0x40 ADD PUSH1 0x40 MSTORE DUP1 DUP4 DUP2 MSTORE PUSH1 0x20 ADD DUP5 DUP2 MSTORE POP SWAP1 POP DUP2 PUSH1 0x6 DUP5 PUSH1 0x40 MLOAD PUSH2 0x304 SWAP2 SWAP1 PUSH2 0x772 JUMP JUMPDEST SWAP1 DUP2 MSTORE PUSH1 0x20 ADD PUSH1 0x40 MLOAD DUP1 SWAP2 SUB SWAP1 KECCAK256 DUP2 SWAP1 SSTORE POP PUSH1 0x7 DUP2 SWAP1 DUP1 PUSH1 0x1 DUP2 SLOAD ADD DUP1 DUP3 SSTORE DUP1 SWAP2 POP POP PUSH1 0x1 SWAP1 SUB SWAP1 PUSH0 MSTORE PUSH1 0x20 PUSH0 KECCAK256 SWAP1 PUSH1 0x2 MUL ADD PUSH0 SWAP1 SWAP2 SWAP1 SWAP2 SWAP1 SWAP2 POP PUSH0 DUP3 ADD MLOAD DUP2 PUSH0 ADD SSTORE PUSH1 0x20 DUP3 ADD MLOAD DUP2 PUSH1 0x1 ADD SWAP1 DUP2 PUSH2 0x35C SWAP2 SWAP1 PUSH2 0x925 JUMP JUMPDEST POP POP POP POP POP POP JUMP JUMPDEST DUP1 PUSH1 0x1 DUP2 SWAP1 SSTORE POP PUSH1 0x1 PUSH0 DUP2 SLOAD DUP1 SWAP3 SWAP2 SWAP1 PUSH2 0x37D SWAP1 PUSH2 0xA21 JUMP JUMPDEST SWAP2 SWAP1 POP SSTORE POP POP JUMP JUMPDEST PUSH1 0x6 DUP2 DUP1 MLOAD PUSH1 0x20 DUP2 ADD DUP3 ADD DUP1 MLOAD DUP5 DUP3 MSTORE PUSH1 0x20 DUP4 ADD PUSH1 0x20 DUP6 ADD KECCAK256 DUP2 DUP4 MSTORE DUP1 SWAP6 POP POP POP POP POP POP PUSH0 SWAP2 POP SWAP1 POP SLOAD DUP2 JUMP JUMPDEST PUSH0 DUP2 SWAP1 POP SWAP2 SWAP1 POP JUMP JUMPDEST PUSH2 0x3C4 DUP2 PUSH2 0x3B2 JUMP JUMPDEST DUP3 MSTORE POP POP JUMP JUMPDEST PUSH0 PUSH1 0x20 DUP3 ADD SWAP1 POP PUSH2 0x3DD PUSH0 DUP4 ADD DUP5 PUSH2 0x3BB JUMP JUMPDEST SWAP3 SWAP2 POP POP JUMP JUMPDEST PUSH0 PUSH1 0x40 DUP3 ADD SWAP1 POP PUSH2 0x3F6 PUSH0 DUP4 ADD DUP6 PUSH2 0x3BB JUMP JUMPDEST PUSH2 0x403 PUSH1 0x20 DUP4 ADD DUP5 PUSH2 0x3BB JUMP JUMPDEST SWAP4 SWAP3 POP POP POP JUMP JUMPDEST PUSH0 DUP2 MLOAD SWAP1 POP SWAP2 SWAP1 POP JUMP JUMPDEST PUSH0 DUP3 DUP3 MSTORE PUSH1 0x20 DUP3 ADD SWAP1 POP SWAP3 SWAP2 POP POP JUMP JUMPDEST DUP3 DUP2 DUP4 MCOPY PUSH0 DUP4 DUP4 ADD MSTORE POP POP POP JUMP JUMPDEST PUSH0 PUSH1 0x1F NOT PUSH1 0x1F DUP4 ADD AND SWAP1 POP SWAP2 SWAP1 POP JUMP JUMPDEST PUSH0 PUSH2 0x44C DUP3 PUSH2 0x40A JUMP JUMPDEST PUSH2 0x456 DUP2 DUP6 PUSH2 0x414 JUMP JUMPDEST SWAP4 POP PUSH2 0x466 DUP2 DUP6 PUSH1 0x20 DUP7 ADD PUSH2 0x424 JUMP JUMPDEST PUSH2 0x46F DUP2 PUSH2 0x432 JUMP JUMPDEST DUP5 ADD SWAP2 POP POP SWAP3 SWAP2 POP POP JUMP JUMPDEST PUSH0 PUSH1 0x40 DUP3 ADD SWAP1 POP PUSH2 0x48D PUSH0 DUP4 ADD DUP6 PUSH2 0x3BB JUMP JUMPDEST DUP2 DUP2 SUB PUSH1 0x20 DUP4 ADD MSTORE PUSH2 0x49F DUP2 DUP5 PUSH2 0x442 JUMP JUMPDEST SWAP1 POP SWAP4 SWAP3 POP POP POP JUMP JUMPDEST PUSH0 PUSH1 0x40 MLOAD SWAP1 POP SWAP1 JUMP JUMPDEST PUSH0 DUP1 REVERT JUMPDEST PUSH0 DUP1 REVERT JUMPDEST PUSH2 0x4C2 DUP2 PUSH2 0x3B2 JUMP JUMPDEST DUP2 EQ PUSH2 0x4CC JUMPI PUSH0 DUP1 REVERT JUMPDEST POP JUMP JUMPDEST PUSH0 DUP2 CALLDATALOAD SWAP1 POP PUSH2 0x4DD DUP2 PUSH2 0x4B9 JUMP JUMPDEST SWAP3 SWAP2 POP POP JUMP JUMPDEST PUSH0 PUSH1 0x20 DUP3 DUP5 SUB SLT ISZERO PUSH2 0x4F8 JUMPI PUSH2 0x4F7 PUSH2 0x4B1 JUMP JUMPDEST JUMPDEST PUSH0 PUSH2 0x505 DUP5 DUP3 DUP6 ADD PUSH2 0x4CF JUMP JUMPDEST SWAP2 POP POP SWAP3 SWAP2 POP POP JUMP JUMPDEST PUSH0 DUP1 REVERT JUMPDEST PUSH0 DUP1 REVERT JUMPDEST PUSH32 0x4E487B7100000000000000000000000000000000000000000000000000000000 PUSH0 MSTORE PUSH1 0x41 PUSH1 0x4 MSTORE PUSH1 0x24 PUSH0 REVERT JUMPDEST PUSH2 0x54C DUP3 PUSH2 0x432 JUMP JUMPDEST DUP2 ADD DUP2 DUP2 LT PUSH8 0xFFFFFFFFFFFFFFFF DUP3 GT OR ISZERO PUSH2 0x56B JUMPI PUSH2 0x56A PUSH2 0x516 JUMP JUMPDEST JUMPDEST DUP1 PUSH1 0x40 MSTORE POP POP POP JUMP JUMPDEST PUSH0 PUSH2 0x57D PUSH2 0x4A8 JUMP JUMPDEST SWAP1 POP PUSH2 0x589 DUP3 DUP3 PUSH2 0x543 JUMP JUMPDEST SWAP2 SWAP1 POP JUMP JUMPDEST PUSH0 PUSH8 0xFFFFFFFFFFFFFFFF DUP3 GT ISZERO PUSH2 0x5A8 JUMPI PUSH2 0x5A7 PUSH2 0x516 JUMP JUMPDEST JUMPDEST PUSH2 0x5B1 DUP3 PUSH2 0x432 JUMP JUMPDEST SWAP1 POP PUSH1 0x20 DUP2 ADD SWAP1 POP SWAP2 SWAP1 POP JUMP JUMPDEST DUP3 DUP2 DUP4 CALLDATACOPY PUSH0 DUP4 DUP4 ADD MSTORE POP POP POP JUMP JUMPDEST PUSH0 PUSH2 0x5DE PUSH2 0x5D9 DUP5 PUSH2 0x58E JUMP JUMPDEST PUSH2 0x574 JUMP JUMPDEST SWAP1 POP DUP3 DUP2 MSTORE PUSH1 0x20 DUP2 ADD DUP5 DUP5 DUP5 ADD GT ISZERO PUSH2 0x5FA JUMPI PUSH2 0x5F9 PUSH2 0x512 JUMP JUMPDEST JUMPDEST PUSH2 0x605 DUP5 DUP3 DUP6 PUSH2 0x5BE JUMP JUMPDEST POP SWAP4 SWAP3 POP POP POP JUMP JUMPDEST PUSH0 DUP3 PUSH1 0x1F DUP4 ADD SLT PUSH2 0x621 JUMPI PUSH2 0x620 PUSH2 0x50E JUMP JUMPDEST JUMPDEST DUP2 CALLDATALOAD PUSH2 0x631 DUP5 DUP3 PUSH1 0x20 DUP7 ADD PUSH2 0x5CC JUMP JUMPDEST SWAP2 POP POP SWAP3 SWAP2 POP POP JUMP JUMPDEST PUSH0 DUP1 PUSH1 0x40 DUP4 DUP6 SUB SLT ISZERO PUSH2 0x650 JUMPI PUSH2 0x64F PUSH2 0x4B1 JUMP JUMPDEST JUMPDEST PUSH0 DUP4 ADD CALLDATALOAD PUSH8 0xFFFFFFFFFFFFFFFF DUP2 GT ISZERO PUSH2 0x66D JUMPI PUSH2 0x66C PUSH2 0x4B5 JUMP JUMPDEST JUMPDEST PUSH2 0x679 DUP6 DUP3 DUP7 ADD PUSH2 0x60D JUMP JUMPDEST SWAP3 POP POP PUSH1 0x20 PUSH2 0x68A DUP6 DUP3 DUP7 ADD PUSH2 0x4CF JUMP JUMPDEST SWAP2 POP POP SWAP3 POP SWAP3 SWAP1 POP JUMP JUMPDEST PUSH0 PUSH1 0x20 DUP3 DUP5 SUB SLT ISZERO PUSH2 0x6A9 JUMPI PUSH2 0x6A8 PUSH2 0x4B1 JUMP JUMPDEST JUMPDEST PUSH0 DUP3 ADD CALLDATALOAD PUSH8 0xFFFFFFFFFFFFFFFF DUP2 GT ISZERO PUSH2 0x6C6 JUMPI PUSH2 0x6C5 PUSH2 0x4B5 JUMP JUMPDEST JUMPDEST PUSH2 0x6D2 DUP5 DUP3 DUP6 ADD PUSH2 0x60D JUMP JUMPDEST SWAP2 POP POP SWAP3 SWAP2 POP POP JUMP JUMPDEST PUSH32 0x4E487B7100000000000000000000000000000000000000000000000000000000 PUSH0 MSTORE PUSH1 0x22 PUSH1 0x4 MSTORE PUSH1 0x24 PUSH0 REVERT JUMPDEST PUSH0 PUSH1 0x2 DUP3 DIV SWAP1 POP PUSH1 0x1 DUP3 AND DUP1 PUSH2 0x71F JUMPI PUSH1 0x7F DUP3 AND SWAP2 POP JUMPDEST PUSH1 0x20 DUP3 LT DUP2 SUB PUSH2 0x732 JUMPI PUSH2 0x731 PUSH2 0x6DB JUMP JUMPDEST JUMPDEST POP SWAP2 SWAP1 POP JUMP JUMPDEST PUSH0 DUP2 SWAP1 POP SWAP3 SWAP2 POP POP JUMP JUMPDEST PUSH0 PUSH2 0x74C DUP3 PUSH2 0x40A JUMP JUMPDEST PUSH2 0x756 DUP2 DUP6 PUSH2 0x738 JUMP JUMPDEST SWAP4 POP PUSH2 0x766 DUP2 DUP6 PUSH1 0x20 DUP7 ADD PUSH2 0x424 JUMP JUMPDEST DUP1 DUP5 ADD SWAP2 POP POP SWAP3 SWAP2 POP POP JUMP JUMPDEST PUSH0 PUSH2 0x77D DUP3 DUP5 PUSH2 0x742 JUMP JUMPDEST SWAP2 POP DUP2 SWAP1 POP SWAP3 SWAP2 POP POP JUMP JUMPDEST PUSH0 DUP2 SWAP1 POP DUP2 PUSH0 MSTORE PUSH1 0x20 PUSH0 KECCAK256 SWAP1 POP SWAP2 SWAP1 POP JUMP JUMPDEST PUSH0 PUSH1 0x20 PUSH1 0x1F DUP4 ADD DIV SWAP1 POP SWAP2 SWAP1 POP JUMP JUMPDEST PUSH0 DUP3 DUP3 SHL SWAP1 POP SWAP3 SWAP2 POP POP JUMP JUMPDEST PUSH0 PUSH1 0x8 DUP4 MUL PUSH2 0x7E4 PUSH32 0xFFFFFFFFFFFFFFFFFFFFFFFFFFFFFFFFFFFFFFFFFFFFFFFFFFFFFFFFFFFFFFFF DUP3 PUSH2 0x7A9 JUMP JUMPDEST PUSH2 0x7EE DUP7 DUP4 PUSH2 0x7A9 JUMP JUMPDEST SWAP6 POP DUP1 NOT DUP5 AND SWAP4 POP DUP1 DUP7 AND DUP5 OR SWAP3 POP POP POP SWAP4 SWAP3 POP POP POP JUMP JUMPDEST PUSH0 DUP2 SWAP1 POP SWAP2 SWAP1 POP JUMP JUMPDEST PUSH0 PUSH2 0x829 PUSH2 0x824 PUSH2 0x81F DUP5 PUSH2 0x3B2 JUMP JUMPDEST PUSH2 0x806 JUMP JUMPDEST PUSH2 0x3B2 JUMP JUMPDEST SWAP1 POP SWAP2 SWAP1 POP JUMP JUMPDEST PUSH0 DUP2 SWAP1 POP SWAP2 SWAP1 POP JUMP JUMPDEST PUSH2 0x842 DUP4 PUSH2 0x80F JUMP JUMPDEST PUSH2 0x856 PUSH2 0x84E DUP3 PUSH2 0x830 JUMP JUMPDEST DUP5 DUP5 SLOAD PUSH2 0x7B5 JUMP JUMPDEST DUP3 SSTORE POP POP POP POP JUMP JUMPDEST PUSH0 SWAP1 JUMP JUMPDEST PUSH2 0x86A PUSH2 0x85E JUMP JUMPDEST PUSH2 0x875 DUP2 DUP5 DUP5 PUSH2 0x839 JUMP JUMPDEST POP POP POP JUMP JUMPDEST JUMPDEST DUP2 DUP2 LT ISZERO PUSH2 0x898 JUMPI PUSH2 0x88D PUSH0 DUP3 PUSH2 0x862 JUMP JUMPDEST PUSH1 0x1 DUP2 ADD SWAP1 POP PUSH2 0x87B JUMP JUMPDEST POP POP JUMP JUMPDEST PUSH1 0x1F DUP3 GT ISZERO PUSH2 0x8DD JUMPI PUSH2 0x8AE DUP2 PUSH2 0x788 JUMP JUMPDEST PUSH2 0x8B7 DUP5 PUSH2 0x79A JUMP JUMPDEST DUP2 ADD PUSH1 0x20 DUP6 LT ISZERO PUSH2 0x8C6 JUMPI DUP2 SWAP1 POP JUMPDEST PUSH2 0x8DA PUSH2 0x8D2 DUP6 PUSH2 0x79A JUMP JUMPDEST DUP4 ADD DUP3 PUSH2 0x87A JUMP JUMPDEST POP POP JUMPDEST POP POP POP JUMP JUMPDEST PUSH0 DUP3 DUP3 SHR SWAP1 POP SWAP3 SWAP2 POP POP JUMP JUMPDEST PUSH0 PUSH2 0x8FD PUSH0 NOT DUP5 PUSH1 0x8 MUL PUSH2 0x8E2 JUMP JUMPDEST NOT DUP1 DUP4 AND SWAP2 POP POP SWAP3 SWAP2 POP POP JUMP JUMPDEST PUSH0 PUSH2 0x915 DUP4 DUP4 PUSH2 0x8EE JUMP JUMPDEST SWAP2 POP DUP3 PUSH1 0x2 MUL DUP3 OR SWAP1 POP SWAP3 SWAP2 POP POP JUMP JUMPDEST PUSH2 0x92E DUP3 PUSH2 0x40A JUMP JUMPDEST PUSH8 0xFFFFFFFFFFFFFFFF DUP2 GT ISZERO PUSH2 0x947 JUMPI PUSH2 0x946 PUSH2 0x516 JUMP JUMPDEST JUMPDEST PUSH2 0x951 DUP3 SLOAD PUSH2 0x708 JUMP JUMPDEST PUSH2 0x95C DUP3 DUP3 DUP6 PUSH2 0x89C JUMP JUMPDEST PUSH0 PUSH1 0x20 SWAP1 POP PUSH1 0x1F DUP4 GT PUSH1 0x1 DUP2 EQ PUSH2 0x98D JUMPI PUSH0 DUP5 ISZERO PUSH2 0x97B JUMPI DUP3 DUP8 ADD MLOAD SWAP1 POP JUMPDEST PUSH2 0x985 DUP6 DUP3 PUSH2 0x90A JUMP JUMPDEST DUP7 SSTORE POP PUSH2 0x9EC JUMP JUMPDEST PUSH1 0x1F NOT DUP5 AND PUSH2 0x99B DUP7 PUSH2 0x788 JUMP JUMPDEST PUSH0 JUMPDEST DUP3 DUP2 LT ISZERO PUSH2 0x9C2 JUMPI DUP5 DUP10 ADD MLOAD DUP3 SSTORE PUSH1 0x1 DUP3 ADD SWAP2 POP PUSH1 0x20 DUP6 ADD SWAP5 POP PUSH1 0x20 DUP2 ADD SWAP1 POP PUSH2 0x99D JUMP JUMPDEST DUP7 DUP4 LT ISZERO PUSH2 0x9DF JUMPI DUP5 DUP10 ADD MLOAD PUSH2 0x9DB PUSH1 0x1F DUP10 AND DUP3 PUSH2 0x8EE JUMP JUMPDEST DUP4 SSTORE POP JUMPDEST PUSH1 0x1 PUSH1 0x2 DUP9 MUL ADD DUP9 SSTORE POP POP POP JUMPDEST POP POP POP POP POP POP JUMP JUMPDEST PUSH32 0x4E487B7100000000000000000000000000000000000000000000000000000000 PUSH0 MSTORE PUSH1 0x11 PUSH1 0x4 MSTORE PUSH1 0x24 PUSH0 REVERT JUMPDEST PUSH0 PUSH2 0xA2B DUP3 PUSH2 0x3B2 JUMP JUMPDEST SWAP2 POP PUSH32 0xFFFFFFFFFFFFFFFFFFFFFFFFFFFFFFFFFFFFFFFFFFFFFFFFFFFFFFFFFFFFFFFF DUP3 SUB PUSH2 0xA5D JUMPI PUSH2 0xA5C PUSH2 0x9F4 JUMP JUMPDEST JUMPDEST PUSH1 0x1 DUP3 ADD SWAP1 POP SWAP2 SWAP1 POP JUMP INVALID LOG2 PUSH5 0x6970667358 0x22 SLT KECCAK256 NUMBER GASLIMIT DUP1 0xEA PUSH3 0x8A0738 SWAP16 PUSH3 0x56D110 0xC7 INVALID 0xB9 0xB7 CALLVALUE 0xA9 LOG2 SLOAD NUMBER SWAP11 KECCAK256 0x1F 0xDD 0xAB 0x2E 0xE4 MUL SWAP3 SELFBALANCE PUSH5 0x736F6C6343 STOP ADDMOD BYTE STOP CALLER LOG2 PUSH5 0x6970667358 0x22 SLT KECCAK256 0xC9 RETURN SAR 0xA8 0xDA SWAP3 GASLIMIT SWAP4 SWAP7 CALL SWAP11 0xAE 0xEC DUP12 0xC6 0xEF 0xF7 0xC5 0xD6 PUSH21 0x6171E8EECCEADA04B0AA752E64736F6C634300081A STOP CALLER "
		},
		"gasEstimates": {
			"creation": {
				"codeDepositCost": "881200",
				"executionCost": "914",
				"totalCost": "882114"
			},
			"external": {
				"goofing()": "infinite",
				"goofy(uint256)": "infinite"
			}
		},
		"methodIdentifiers": {
			"goofing()": "deb3f1c3",
			"goofy(uint256)": "d18ac710"
		}
	},
	"abi": [
		{
			"inputs": [],
			"name": "goofing",
			"outputs": [],
			"stateMutability": "nonpayable",
			"type": "function"
		},
		{
			"inputs": [
				{
					"internalType": "uint256",
					"name": "",
					"type": "uint256"
				}
			],
			"name": "goofy",
			"outputs": [
				{
					"internalType": "contract goof",
					"name": "",
					"type": "address"
				}
			],
			"stateMutability": "view",
			"type": "function"
		}
	]
}